{
  "contractName": "PredictionMarket",
  "abi": [
    {
      "inputs": [
        {
          "internalType": "uint256",
          "name": "duration",
          "type": "uint256"
        }
      ],
      "stateMutability": "payable",
      "type": "constructor"
    },
    {
      "anonymous": false,
      "inputs": [
        {
          "indexed": false,
          "internalType": "uint256",
          "name": "orderId",
          "type": "uint256"
        }
      ],
      "name": "OrderCanceled",
      "type": "event"
    },
    {
      "anonymous": false,
      "inputs": [
        {
          "indexed": false,
          "internalType": "uint256",
          "name": "orderId",
          "type": "uint256"
        },
        {
          "indexed": false,
          "internalType": "address",
          "name": "user",
          "type": "address"
        },
        {
          "indexed": false,
          "internalType": "enum PredictionMarket.OrderType",
          "name": "orderType",
          "type": "uint8"
        },
        {
          "indexed": false,
          "internalType": "uint256",
          "name": "amount",
          "type": "uint256"
        },
        {
          "indexed": false,
          "internalType": "uint256",
          "name": "price",
          "type": "uint256"
        }
      ],
      "name": "OrderPlaced",
      "type": "event"
    },
    {
      "anonymous": false,
      "inputs": [
        {
          "indexed": false,
          "internalType": "address",
          "name": "user",
          "type": "address"
        },
        {
          "indexed": false,
          "internalType": "uint256",
          "name": "amount",
          "type": "uint256"
        }
      ],
      "name": "Payout",
      "type": "event"
    },
    {
      "anonymous": false,
      "inputs": [
        {
          "indexed": false,
          "internalType": "uint256",
          "name": "orderId",
          "type": "uint256"
        },
        {
          "indexed": false,
          "internalType": "address",
          "name": "user",
          "type": "address"
        },
        {
          "indexed": false,
          "internalType": "uint256",
          "name": "amount",
          "type": "uint256"
        }
      ],
      "name": "TradeMatched",
      "type": "event"
    },
    {
      "inputs": [],
      "name": "TX_FEE_DENOMINATOR",
      "outputs": [
        {
          "internalType": "uint256",
          "name": "",
          "type": "uint256"
        }
      ],
      "stateMutability": "view",
      "type": "function"
    },
    {
      "inputs": [],
      "name": "TX_FEE_NUMERATOR",
      "outputs": [
        {
          "internalType": "uint256",
          "name": "",
          "type": "uint256"
        }
      ],
      "stateMutability": "view",
      "type": "function"
    },
    {
      "inputs": [
        {
          "internalType": "address",
          "name": "",
          "type": "address"
        }
      ],
      "name": "balances",
      "outputs": [
        {
          "internalType": "uint256",
          "name": "",
          "type": "uint256"
        }
      ],
      "stateMutability": "view",
      "type": "function"
    },
    {
      "inputs": [],
      "name": "collateral",
      "outputs": [
        {
          "internalType": "uint256",
          "name": "",
          "type": "uint256"
        }
      ],
      "stateMutability": "view",
      "type": "function"
    },
    {
      "inputs": [],
      "name": "counter",
      "outputs": [
        {
          "internalType": "uint256",
          "name": "",
          "type": "uint256"
        }
      ],
      "stateMutability": "view",
      "type": "function"
    },
    {
      "inputs": [],
      "name": "deadLine",
      "outputs": [
        {
          "internalType": "uint256",
          "name": "",
          "type": "uint256"
        }
      ],
      "stateMutability": "view",
      "type": "function"
    },
    {
      "inputs": [
        {
          "internalType": "uint256",
          "name": "",
          "type": "uint256"
        }
      ],
      "name": "orders",
      "outputs": [
        {
          "internalType": "address",
          "name": "user",
          "type": "address"
        },
        {
          "internalType": "enum PredictionMarket.OrderType",
          "name": "orderType",
          "type": "uint8"
        },
        {
          "internalType": "uint256",
          "name": "amount",
          "type": "uint256"
        },
        {
          "internalType": "uint256",
          "name": "price",
          "type": "uint256"
        }
      ],
      "stateMutability": "view",
      "type": "function"
    },
    {
      "inputs": [],
      "name": "owner",
      "outputs": [
        {
          "internalType": "address",
          "name": "",
          "type": "address"
        }
      ],
      "stateMutability": "view",
      "type": "function"
    },
    {
      "inputs": [],
      "name": "result",
      "outputs": [
        {
          "internalType": "enum PredictionMarket.Result",
          "name": "",
          "type": "uint8"
        }
      ],
      "stateMutability": "view",
      "type": "function"
    },
    {
      "inputs": [
        {
          "internalType": "address",
          "name": "",
          "type": "address"
        }
      ],
      "name": "shares",
      "outputs": [
        {
          "internalType": "uint256",
          "name": "",
          "type": "uint256"
        }
      ],
      "stateMutability": "view",
      "type": "function"
    },
    {
      "inputs": [
        {
          "internalType": "uint256",
          "name": "price",
          "type": "uint256"
        }
      ],
      "name": "orderBuy",
      "outputs": [],
      "stateMutability": "payable",
      "type": "function"
    },
    {
      "inputs": [
        {
          "internalType": "uint256",
          "name": "price",
          "type": "uint256"
        },
        {
          "internalType": "uint256",
          "name": "amount",
          "type": "uint256"
        }
      ],
      "name": "orderSell",
      "outputs": [],
      "stateMutability": "nonpayable",
      "type": "function"
    },
    {
      "inputs": [
        {
          "internalType": "uint256",
          "name": "orderId",
          "type": "uint256"
        }
      ],
      "name": "tradeBuy",
      "outputs": [],
      "stateMutability": "payable",
      "type": "function"
    },
    {
      "inputs": [
        {
          "internalType": "uint256",
          "name": "orderId",
          "type": "uint256"
        },
        {
          "internalType": "uint256",
          "name": "amount",
          "type": "uint256"
        }
      ],
      "name": "tradeSell",
      "outputs": [],
      "stateMutability": "nonpayable",
      "type": "function"
    },
    {
      "inputs": [
        {
          "internalType": "uint256",
          "name": "orderId",
          "type": "uint256"
        }
      ],
      "name": "cancleOrder",
      "outputs": [],
      "stateMutability": "nonpayable",
      "type": "function"
    },
    {
      "inputs": [
        {
          "internalType": "bool",
          "name": "_result",
          "type": "bool"
        }
      ],
      "name": "resolve",
      "outputs": [],
      "stateMutability": "nonpayable",
      "type": "function"
    },
    {
      "inputs": [],
      "name": "withDraw",
      "outputs": [],
      "stateMutability": "nonpayable",
      "type": "function"
    }
  ],
  "bytecode": "0x60806040526040516200252638038062002526833981810160405281019062000029919062000102565b600034116200003757600080fd5b336000806101000a81548173ffffffffffffffffffffffffffffffffffffffff021916908373ffffffffffffffffffffffffffffffffffffffff16021790555080426200008591906200012e565b6001819055506064346200009a91906200018b565b600560003373ffffffffffffffffffffffffffffffffffffffff1673ffffffffffffffffffffffffffffffffffffffff16815260200190815260200160002081905550346003819055505062000245565b600081519050620000fc816200022b565b92915050565b6000602082840312156200011557600080fd5b60006200012584828501620000eb565b91505092915050565b60006200013b82620001c3565b91506200014883620001c3565b9250827fffffffffffffffffffffffffffffffffffffffffffffffffffffffffffffffff0382111562000180576200017f620001cd565b5b828201905092915050565b60006200019882620001c3565b9150620001a583620001c3565b925082620001b857620001b7620001fc565b5b828204905092915050565b6000819050919050565b7f4e487b7100000000000000000000000000000000000000000000000000000000600052601160045260246000fd5b7f4e487b7100000000000000000000000000000000000000000000000000000000600052601260045260246000fd5b6200023681620001c3565b81146200024257600080fd5b50565b6122d180620002556000396000f3fe60806040526004361061011b576000357c01000000000000000000000000000000000000000000000000000000009004806365372147116100b2578063a85c38ef11610081578063a85c38ef146102fe578063bef3a0831461033e578063ce7c2ac214610369578063d8dfeb45146103a6578063f406cb8a146103d15761011b565b806365372147146102545780638da5cb5b1461027f5780638dbe0a16146102aa5780639eedc53a146102d55761011b565b8063427119a9116100ee578063427119a9146101c65780636018fa42146101e257806361bc221a146101fe57806362e08c81146102295761011b565b80630bede3f8146101205780630fdb1c101461014957806327e235e31461016057806334a18aa81461019d575b600080fd5b34801561012c57600080fd5b5061014760048036038101906101429190611d59565b6103fa565b005b34801561015557600080fd5b5061015e6106a7565b005b34801561016c57600080fd5b5061018760048036038101906101829190611d30565b6108e0565b6040516101949190611ed6565b60405180910390f35b3480156101a957600080fd5b506101c460048036038101906101bf9190611dab565b6108f8565b005b6101e060048036038101906101db9190611d82565b610b91565b005b6101fc60048036038101906101f79190611d82565b61112f565b005b34801561020a57600080fd5b5061021361130d565b6040516102209190611ed6565b60405180910390f35b34801561023557600080fd5b5061023e611313565b60405161024b9190611ed6565b60405180910390f35b34801561026057600080fd5b50610269611319565b6040516102769190611ebb565b60405180910390f35b34801561028b57600080fd5b5061029461132c565b6040516102a19190611e32565b60405180910390f35b3480156102b657600080fd5b506102bf611350565b6040516102cc9190611ed6565b60405180910390f35b3480156102e157600080fd5b506102fc60048036038101906102f79190611dab565b611355565b005b34801561030a57600080fd5b5061032560048036038101906103209190611d82565b61199e565b6040516103359493929190611e76565b60405180910390f35b34801561034a57600080fd5b506103536119fb565b6040516103609190611ed6565b60405180910390f35b34801561037557600080fd5b50610390600480360381019061038b9190611d30565b611a01565b60405161039d9190611ed6565b60405180910390f35b3480156103b257600080fd5b506103bb611a19565b6040516103c89190611ed6565b60405180910390f35b3480156103dd57600080fd5b506103f860048036038101906103f39190611d82565b611a1f565b005b600154421161040857600080fd5b60008054906101000a900473ffffffffffffffffffffffffffffffffffffffff1673ffffffffffffffffffffffffffffffffffffffff163373ffffffffffffffffffffffffffffffffffffffff161461046057600080fd5b6000600281111561049a577f4e487b7100000000000000000000000000000000000000000000000000000000600052602160045260246000fd5b600060149054906101000a900460ff1660028111156104e2577f4e487b7100000000000000000000000000000000000000000000000000000000600052602160045260246000fd5b146104ec57600080fd5b806104f85760026104fb565b60015b600060146101000a81548160ff02191690836002811115610545577f4e487b7100000000000000000000000000000000000000000000000000000000600052602160045260246000fd5b0217905550600280811115610583577f4e487b7100000000000000000000000000000000000000000000000000000000600052602160045260246000fd5b600060149054906101000a900460ff1660028111156105cb577f4e487b7100000000000000000000000000000000000000000000000000000000600052602160045260246000fd5b14156106a457600354600660008060009054906101000a900473ffffffffffffffffffffffffffffffffffffffff1673ffffffffffffffffffffffffffffffffffffffff1673ffffffffffffffffffffffffffffffffffffffff1681526020019081526020016000205461063f9190611f7b565b600660008060009054906101000a900473ffffffffffffffffffffffffffffffffffffffff1673ffffffffffffffffffffffffffffffffffffffff1673ffffffffffffffffffffffffffffffffffffffff168152602001908152602001600020819055505b50565b60003390506000600660008373ffffffffffffffffffffffffffffffffffffffff1673ffffffffffffffffffffffffffffffffffffffff1681526020019081526020016000205490506000600660008473ffffffffffffffffffffffffffffffffffffffff1673ffffffffffffffffffffffffffffffffffffffff168152602001908152602001600020819055506001600281111561076f577f4e487b7100000000000000000000000000000000000000000000000000000000600052602160045260246000fd5b600060149054906101000a900460ff1660028111156107b7577f4e487b7100000000000000000000000000000000000000000000000000000000600052602160045260246000fd5b141561085c576064600560008473ffffffffffffffffffffffffffffffffffffffff1673ffffffffffffffffffffffffffffffffffffffff168152602001908152602001600020546108099190612002565b816108149190611f7b565b90506000600560008473ffffffffffffffffffffffffffffffffffffffff1673ffffffffffffffffffffffffffffffffffffffff168152602001908152602001600020819055505b8173ffffffffffffffffffffffffffffffffffffffff166108fc829081150290604051600060405180830381858888f193505050501580156108a2573d6000803e3d6000fd5b507f5afeca38b2064c23a692c4cf353015d80ab3ecc417b4f893f372690c11fbd9a682826040516108d4929190611e4d565b60405180910390a15050565b60066020528060005260406000206000915090505481565b600154421061090657600080fd5b80600560003373ffffffffffffffffffffffffffffffffffffffff1673ffffffffffffffffffffffffffffffffffffffff16815260200190815260200160002054101561095257600080fd5b6000821161095f57600080fd5b606482111561096d57600080fd5b80600560003373ffffffffffffffffffffffffffffffffffffffff1673ffffffffffffffffffffffffffffffffffffffff168152602001908152602001600020546109b8919061205c565b600560003373ffffffffffffffffffffffffffffffffffffffff1673ffffffffffffffffffffffffffffffffffffffff1681526020019081526020016000208190555060026000815480929190610a0e90612158565b919050555060405180608001604052803373ffffffffffffffffffffffffffffffffffffffff168152602001600180811115610a73577f4e487b7100000000000000000000000000000000000000000000000000000000600052602160045260246000fd5b81526020018281526020018381525060046000600254815260200190815260200160002060008201518160000160006101000a81548173ffffffffffffffffffffffffffffffffffffffff021916908373ffffffffffffffffffffffffffffffffffffffff16021790555060208201518160000160146101000a81548160ff02191690836001811115610b2f577f4e487b7100000000000000000000000000000000000000000000000000000000600052602160045260246000fd5b021790555060408201518160010155606082015181600201559050507f28ee76b520925c614b94784e5bd4b8d8ad21fd9930aea487e678e1e5a5f405136002543360018486604051610b85959493929190611ef1565b60405180910390a15050565b60006004600083815260200190815260200160002090506001544210610bb657600080fd5b3373ffffffffffffffffffffffffffffffffffffffff168160000160009054906101000a900473ffffffffffffffffffffffffffffffffffffffff1673ffffffffffffffffffffffffffffffffffffffff161415610c1357600080fd5b600180811115610c4c577f4e487b7100000000000000000000000000000000000000000000000000000000600052602160045260246000fd5b8160000160149054906101000a900460ff166001811115610c96577f4e487b7100000000000000000000000000000000000000000000000000000000600052602160045260246000fd5b14610ca057600080fd5b6000816001015411610cb157600080fd5b60003411610cbe57600080fd5b80600101548160020154610cd29190612002565b341115610cde57600080fd5b6000816002015434610cf09190611fd1565b905060006101f46001610d039190611fd1565b836002015483610d139190612002565b610d1d9190612002565b905060006101f46001610d309190611fd1565b83610d3b9190612002565b90508083610d49919061205c565b600560003373ffffffffffffffffffffffffffffffffffffffff1673ffffffffffffffffffffffffffffffffffffffff16815260200190815260200160002054610d939190611f7b565b600560003373ffffffffffffffffffffffffffffffffffffffff1673ffffffffffffffffffffffffffffffffffffffff1681526020019081526020016000208190555080600560008060009054906101000a900473ffffffffffffffffffffffffffffffffffffffff1673ffffffffffffffffffffffffffffffffffffffff1673ffffffffffffffffffffffffffffffffffffffff16815260200190815260200160002054610e429190611f7b565b600560008060009054906101000a900473ffffffffffffffffffffffffffffffffffffffff1673ffffffffffffffffffffffffffffffffffffffff1673ffffffffffffffffffffffffffffffffffffffff1681526020019081526020016000208190555081846002015484610eb79190612002565b610ec1919061205c565b600660008660000160009054906101000a900473ffffffffffffffffffffffffffffffffffffffff1673ffffffffffffffffffffffffffffffffffffffff1673ffffffffffffffffffffffffffffffffffffffff16815260200190815260200160002054610f2f9190611f7b565b600660008660000160009054906101000a900473ffffffffffffffffffffffffffffffffffffffff1673ffffffffffffffffffffffffffffffffffffffff1673ffffffffffffffffffffffffffffffffffffffff1681526020019081526020016000208190555081600660008060009054906101000a900473ffffffffffffffffffffffffffffffffffffffff1673ffffffffffffffffffffffffffffffffffffffff1673ffffffffffffffffffffffffffffffffffffffff168152602001908152602001600020546110029190611f7b565b600660008060009054906101000a900473ffffffffffffffffffffffffffffffffffffffff1673ffffffffffffffffffffffffffffffffffffffff1673ffffffffffffffffffffffffffffffffffffffff168152602001908152602001600020819055508284600101546110769190611f7b565b84600101819055506000846001015414156110ed5760046000868152602001908152602001600020600080820160006101000a81549073ffffffffffffffffffffffffffffffffffffffff02191690556000820160146101000a81549060ff02191690556001820160009055600282016000905550505b7f27d9abeaaa9352743d445f5421d15a1fc96197eca61e08eae7caa5ca345abcb885338560405161112093929190611f44565b60405180910390a15050505050565b600154421061113d57600080fd5b6000341161114a57600080fd5b600081101561115857600080fd5b606481111561116657600080fd5b600081346111749190611fd1565b90506002600081548092919061118990612158565b919050555060405180608001604052803373ffffffffffffffffffffffffffffffffffffffff168152602001600060018111156111ef577f4e487b7100000000000000000000000000000000000000000000000000000000600052602160045260246000fd5b81526020018281526020018381525060046000600254815260200190815260200160002060008201518160000160006101000a81548173ffffffffffffffffffffffffffffffffffffffff021916908373ffffffffffffffffffffffffffffffffffffffff16021790555060208201518160000160146101000a81548160ff021916908360018111156112ab577f4e487b7100000000000000000000000000000000000000000000000000000000600052602160045260246000fd5b021790555060408201518160010155606082015181600201559050507f28ee76b520925c614b94784e5bd4b8d8ad21fd9930aea487e678e1e5a5f405136002543360008486604051611301959493929190611ef1565b60405180910390a15050565b60025481565b6101f481565b600060149054906101000a900460ff1681565b60008054906101000a900473ffffffffffffffffffffffffffffffffffffffff1681565b600181565b6000600460008481526020019081526020016000209050600154421061137a57600080fd5b8060000160009054906101000a900473ffffffffffffffffffffffffffffffffffffffff1673ffffffffffffffffffffffffffffffffffffffff163373ffffffffffffffffffffffffffffffffffffffff1614156113d757600080fd5b60006001811115611411577f4e487b7100000000000000000000000000000000000000000000000000000000600052602160045260246000fd5b8160000160149054906101000a900460ff16600181111561145b577f4e487b7100000000000000000000000000000000000000000000000000000000600052602160045260246000fd5b1461146557600080fd5b600081600101541161147657600080fd5b806001015482111561148757600080fd5b81600560003373ffffffffffffffffffffffffffffffffffffffff1673ffffffffffffffffffffffffffffffffffffffff1681526020019081526020016000205410156114d357600080fd5b60006101f460016114e49190611fd1565b8260020154846114f49190612002565b6114fe9190612002565b905060006101f460016115119190611fd1565b8461151c9190612002565b905083600560003373ffffffffffffffffffffffffffffffffffffffff1673ffffffffffffffffffffffffffffffffffffffff16815260200190815260200160002054611569919061205c565b600560003373ffffffffffffffffffffffffffffffffffffffff1673ffffffffffffffffffffffffffffffffffffffff1681526020019081526020016000208190555080846115b8919061205c565b600560008560000160009054906101000a900473ffffffffffffffffffffffffffffffffffffffff1673ffffffffffffffffffffffffffffffffffffffff1673ffffffffffffffffffffffffffffffffffffffff168152602001908152602001600020546116269190611f7b565b600560008560000160009054906101000a900473ffffffffffffffffffffffffffffffffffffffff1673ffffffffffffffffffffffffffffffffffffffff1673ffffffffffffffffffffffffffffffffffffffff1681526020019081526020016000208190555080600560008060009054906101000a900473ffffffffffffffffffffffffffffffffffffffff1673ffffffffffffffffffffffffffffffffffffffff1673ffffffffffffffffffffffffffffffffffffffff168152602001908152602001600020546116f99190611f7b565b600560008060009054906101000a900473ffffffffffffffffffffffffffffffffffffffff1673ffffffffffffffffffffffffffffffffffffffff1673ffffffffffffffffffffffffffffffffffffffff168152602001908152602001600020819055508183600201548561176e9190612002565b611778919061205c565b600660003373ffffffffffffffffffffffffffffffffffffffff1673ffffffffffffffffffffffffffffffffffffffff168152602001908152602001600020546117c29190611f7b565b600660003373ffffffffffffffffffffffffffffffffffffffff1673ffffffffffffffffffffffffffffffffffffffff1681526020019081526020016000208190555081600660008060009054906101000a900473ffffffffffffffffffffffffffffffffffffffff1673ffffffffffffffffffffffffffffffffffffffff1673ffffffffffffffffffffffffffffffffffffffff168152602001908152602001600020546118719190611f7b565b600660008060009054906101000a900473ffffffffffffffffffffffffffffffffffffffff1673ffffffffffffffffffffffffffffffffffffffff1673ffffffffffffffffffffffffffffffffffffffff168152602001908152602001600020819055508383600101546118e5919061205c565b836001018190555060008360010154141561195c5760046000868152602001908152602001600020600080820160006101000a81549073ffffffffffffffffffffffffffffffffffffffff02191690556000820160146101000a81549060ff02191690556001820160009055600282016000905550505b7f27d9abeaaa9352743d445f5421d15a1fc96197eca61e08eae7caa5ca345abcb885338660405161198f93929190611f44565b60405180910390a15050505050565b60046020528060005260406000206000915090508060000160009054906101000a900473ffffffffffffffffffffffffffffffffffffffff16908060000160149054906101000a900460ff16908060010154908060020154905084565b60015481565b60056020528060005260406000206000915090505481565b60035481565b60006004600083815260200190815260200160002090503373ffffffffffffffffffffffffffffffffffffffff168160000160009054906101000a900473ffffffffffffffffffffffffffffffffffffffff1673ffffffffffffffffffffffffffffffffffffffff1614611a9257600080fd5b60006001811115611acc577f4e487b7100000000000000000000000000000000000000000000000000000000600052602160045260246000fd5b8160000160149054906101000a900460ff166001811115611b16577f4e487b7100000000000000000000000000000000000000000000000000000000600052602160045260246000fd5b1415611bc25780600201548160010154611b309190612002565b600660003373ffffffffffffffffffffffffffffffffffffffff1673ffffffffffffffffffffffffffffffffffffffff16815260200190815260200160002054611b7a9190611f7b565b600660003373ffffffffffffffffffffffffffffffffffffffff1673ffffffffffffffffffffffffffffffffffffffff16815260200190815260200160002081905550611c55565b8060010154600560003373ffffffffffffffffffffffffffffffffffffffff1673ffffffffffffffffffffffffffffffffffffffff16815260200190815260200160002054611c119190611f7b565b600560003373ffffffffffffffffffffffffffffffffffffffff1673ffffffffffffffffffffffffffffffffffffffff168152602001908152602001600020819055505b60046000838152602001908152602001600020600080820160006101000a81549073ffffffffffffffffffffffffffffffffffffffff02191690556000820160146101000a81549060ff02191690556001820160009055600282016000905550507fc41f4ceb2938876c35e61b705e9d2f18a02c4a26ce5e049a6308a943d46851b382604051611ce59190611ed6565b60405180910390a15050565b600081359050611d0081612256565b92915050565b600081359050611d158161226d565b92915050565b600081359050611d2a81612284565b92915050565b600060208284031215611d4257600080fd5b6000611d5084828501611cf1565b91505092915050565b600060208284031215611d6b57600080fd5b6000611d7984828501611d06565b91505092915050565b600060208284031215611d9457600080fd5b6000611da284828501611d1b565b91505092915050565b60008060408385031215611dbe57600080fd5b6000611dcc85828601611d1b565b9250506020611ddd85828601611d1b565b9150509250929050565b611df0816120fe565b82525050565b611dff81612090565b82525050565b611e0e81612110565b82525050565b611e1d81612122565b82525050565b611e2c816120f4565b82525050565b6000602082019050611e476000830184611df6565b92915050565b6000604082019050611e626000830185611de7565b611e6f6020830184611e23565b9392505050565b6000608082019050611e8b6000830187611df6565b611e986020830186611e05565b611ea56040830185611e23565b611eb26060830184611e23565b95945050505050565b6000602082019050611ed06000830184611e14565b92915050565b6000602082019050611eeb6000830184611e23565b92915050565b600060a082019050611f066000830188611e23565b611f136020830187611df6565b611f206040830186611e05565b611f2d6060830185611e23565b611f3a6080830184611e23565b9695505050505050565b6000606082019050611f596000830186611e23565b611f666020830185611df6565b611f736040830184611e23565b949350505050565b6000611f86826120f4565b9150611f91836120f4565b9250827fffffffffffffffffffffffffffffffffffffffffffffffffffffffffffffffff03821115611fc657611fc56121a1565b5b828201905092915050565b6000611fdc826120f4565b9150611fe7836120f4565b925082611ff757611ff66121d0565b5b828204905092915050565b600061200d826120f4565b9150612018836120f4565b9250817fffffffffffffffffffffffffffffffffffffffffffffffffffffffffffffffff0483118215151615612051576120506121a1565b5b828202905092915050565b6000612067826120f4565b9150612072836120f4565b925082821015612085576120846121a1565b5b828203905092915050565b600061209b826120d4565b9050919050565b60008115159050919050565b60008190506120bc8261222e565b919050565b60008190506120cf82612242565b919050565b600073ffffffffffffffffffffffffffffffffffffffff82169050919050565b6000819050919050565b600061210982612134565b9050919050565b600061211b826120ae565b9050919050565b600061212d826120c1565b9050919050565b600061213f82612146565b9050919050565b6000612151826120d4565b9050919050565b6000612163826120f4565b91507fffffffffffffffffffffffffffffffffffffffffffffffffffffffffffffffff821415612196576121956121a1565b5b600182019050919050565b7f4e487b7100000000000000000000000000000000000000000000000000000000600052601160045260246000fd5b7f4e487b7100000000000000000000000000000000000000000000000000000000600052601260045260246000fd5b7f4e487b7100000000000000000000000000000000000000000000000000000000600052602160045260246000fd5b6002811061223f5761223e6121ff565b5b50565b60038110612253576122526121ff565b5b50565b61225f81612090565b811461226a57600080fd5b50565b612276816120a2565b811461228157600080fd5b50565b61228d816120f4565b811461229857600080fd5b5056fea264697066735822122085fd24b5f2eccb584becece43e9220d9af2b5be63bb5e08a2529f1b94e429dc764736f6c63430008030033",
  "immutableReferences": {},
  "source": "// SPDX-License-Identifier: MIT\npragma solidity ^0.8.1;\n\ncontract PredictionMarket {\n  enum OrderType {\n    Buy,\n    Sell\n  }\n  enum Result {\n    Open,\n    Yes,\n    No\n  }\n\n  struct Order {\n    address user;\n    OrderType orderType;\n    uint256 amount;\n    uint256 price;\n  }\n\n  uint256 public constant TX_FEE_NUMERATOR = 1;\n  uint256 public constant TX_FEE_DENOMINATOR = 500;\n\n  address public owner;\n  Result public result;\n  uint256 public deadLine;\n  uint256 public counter;\n  uint256 public collateral;\n  mapping(uint256 => Order) public orders;\n  mapping(address => uint256) public shares;\n  mapping(address => uint256) public balances;\n\n  event OrderPlaced(uint256 orderId, address user, OrderType orderType, uint256 amount, uint256 price);\n  event TradeMatched(uint256 orderId, address user, uint256 amount);\n  event OrderCanceled(uint256 orderId);\n  event Payout(address user, uint256 amount);\n\n  constructor(uint256 duration) payable {\n    require(msg.value > 0);\n\n    owner = msg.sender;\n    deadLine = (block.timestamp + duration);\n    shares[msg.sender] = (msg.value / 100);\n    collateral = msg.value;\n  }\n\n  function orderBuy(uint256 price) public payable {\n    require(block.timestamp < deadLine);\n    require(msg.value > 0);\n    require(price >= 0);\n    require(price <= 100);\n\n    uint256 amount = (msg.value / price);\n    counter++;\n    orders[counter] = Order(msg.sender, OrderType.Buy, amount, price);\n    emit OrderPlaced(counter, msg.sender, OrderType.Buy, amount, price);\n  }\n\n  function orderSell(uint256 price, uint256 amount) public {\n    require(block.timestamp < deadLine);\n    require(shares[msg.sender] >= amount);\n    require(price > 0);\n    require(price <= 100);\n\n    shares[msg.sender] = (shares[msg.sender] - amount);\n    counter++;\n    orders[counter] = Order(msg.sender, OrderType.Sell, amount, price);\n    emit OrderPlaced(counter, msg.sender, OrderType.Sell, amount, price);\n  }\n\n  function tradeBuy(uint256 orderId) public payable {\n    Order storage order = orders[orderId];\n\n    require(block.timestamp < deadLine);\n    require(order.user != msg.sender);\n    require(order.orderType == OrderType.Sell);\n    require(order.amount > 0);\n    require(msg.value > 0);\n    require(msg.value <= order.price * order.amount);\n\n    uint256 amount = (msg.value / order.price);\n    uint256 fee = (amount * order.price) * (TX_FEE_NUMERATOR / TX_FEE_DENOMINATOR);\n    uint256 feeShare = amount * (TX_FEE_NUMERATOR / TX_FEE_DENOMINATOR);\n\n    shares[msg.sender] = (shares[msg.sender] + (amount - feeShare));\n    shares[owner] = (shares[owner] + feeShare);\n    balances[order.user] = (balances[order.user] + ((amount * order.price) - fee));\n    balances[owner] = (balances[owner] + fee);\n    order.amount = (order.amount + amount);\n    if (order.amount == 0) delete orders[orderId];\n    emit TradeMatched(orderId, msg.sender, amount);\n  }\n\n  function tradeSell(uint256 orderId, uint256 amount) public {\n    Order storage order = orders[orderId];\n\n    require(block.timestamp < deadLine);\n    require(msg.sender != order.user);\n    require(order.orderType == OrderType.Buy);\n    require(order.amount > 0);\n    require(amount <= order.amount);\n    require(shares[msg.sender] >= amount);\n\n    uint256 fee = (amount * order.price) * (TX_FEE_NUMERATOR / TX_FEE_DENOMINATOR);\n    uint256 feeShare = amount * (TX_FEE_NUMERATOR / TX_FEE_DENOMINATOR);\n\n    shares[msg.sender] = (shares[msg.sender] - amount);\n    shares[order.user] = (shares[order.user] + (amount - feeShare));\n    shares[owner] = (shares[owner] + feeShare);\n    balances[msg.sender] = (balances[msg.sender] + ((amount * order.price) - fee));\n    balances[owner] = (balances[owner] + fee);\n    order.amount = (order.amount - amount);\n    if (order.amount == 0) delete orders[orderId];\n    emit TradeMatched(orderId, msg.sender, amount);\n  }\n\n  function cancleOrder(uint256 orderId) public {\n    Order storage order = orders[orderId];\n\n    require(order.user == msg.sender);\n\n    if (order.orderType == OrderType.Buy) balances[msg.sender] = (balances[msg.sender] + (order.amount * order.price));\n    else shares[msg.sender] = (shares[msg.sender] + order.amount);\n    delete orders[orderId];\n    emit OrderCanceled(orderId);\n  }\n\n  function resolve(bool _result) public {\n    require(block.timestamp > deadLine);\n    require(msg.sender == owner);\n    require(result == Result.Open);\n\n    result = _result ? Result.Yes : Result.No;\n    if (result == Result.No) balances[owner] = (balances[owner] + collateral);\n  }\n\n  function withDraw() public {\n    address payable withdrawer = payable(msg.sender);\n    uint256 payout = balances[withdrawer];\n    balances[withdrawer] = 0;\n\n    if (result == Result.Yes) {\n      payout = payout + (shares[withdrawer] * 100);\n      shares[withdrawer] = 0;\n    }\n    withdrawer.transfer(payout);\n    emit Payout(withdrawer, payout);\n  }\n}\n",
  "sourcePath": "/Users/deveshrawat/Desktop/MyApps/learn_solidity/solidity_contracts/predictionMarckets/contracts/PredictionMarket.sol",
  "compiler": {
    "name": "solc",
    "version": "0.8.3+commit.8d00100c.Linux.g++"
  },
  "schemaVersion": "3.4.5",
  "updatedAt": "2022-02-21T14:12:21.746Z",
  "devdoc": {
    "kind": "dev",
    "methods": {},
    "version": 1
  },
  "userdoc": {
    "kind": "user",
    "methods": {},
    "version": 1
  }
}