{
  "contractName": "PredictionMarket",
  "abi": [
    {
      "inputs": [
        {
          "internalType": "uint256",
          "name": "duration",
          "type": "uint256"
        }
      ],
      "stateMutability": "payable",
      "type": "constructor"
    },
    {
      "anonymous": false,
      "inputs": [
        {
          "indexed": false,
          "internalType": "uint256",
          "name": "orderId",
          "type": "uint256"
        }
      ],
      "name": "OrderCanceled",
      "type": "event"
    },
    {
      "anonymous": false,
      "inputs": [
        {
          "indexed": false,
          "internalType": "uint256",
          "name": "orderId",
          "type": "uint256"
        },
        {
          "indexed": false,
          "internalType": "address",
          "name": "user",
          "type": "address"
        },
        {
          "indexed": false,
          "internalType": "enum PredictionMarket.OrderType",
          "name": "orderType",
          "type": "uint8"
        },
        {
          "indexed": false,
          "internalType": "uint256",
          "name": "amount",
          "type": "uint256"
        },
        {
          "indexed": false,
          "internalType": "uint256",
          "name": "price",
          "type": "uint256"
        }
      ],
      "name": "OrderPlaced",
      "type": "event"
    },
    {
      "anonymous": false,
      "inputs": [
        {
          "indexed": false,
          "internalType": "address",
          "name": "user",
          "type": "address"
        },
        {
          "indexed": false,
          "internalType": "uint256",
          "name": "amount",
          "type": "uint256"
        }
      ],
      "name": "Payout",
      "type": "event"
    },
    {
      "anonymous": false,
      "inputs": [
        {
          "indexed": false,
          "internalType": "uint256",
          "name": "orderId",
          "type": "uint256"
        },
        {
          "indexed": false,
          "internalType": "address",
          "name": "user",
          "type": "address"
        },
        {
          "indexed": false,
          "internalType": "uint256",
          "name": "amount",
          "type": "uint256"
        }
      ],
      "name": "TradeMatched",
      "type": "event"
    },
    {
      "inputs": [],
      "name": "TX_FEE_DENOMINATOR",
      "outputs": [
        {
          "internalType": "uint256",
          "name": "",
          "type": "uint256"
        }
      ],
      "stateMutability": "view",
      "type": "function"
    },
    {
      "inputs": [],
      "name": "TX_FEE_NUMERATOR",
      "outputs": [
        {
          "internalType": "uint256",
          "name": "",
          "type": "uint256"
        }
      ],
      "stateMutability": "view",
      "type": "function"
    },
    {
      "inputs": [
        {
          "internalType": "address",
          "name": "",
          "type": "address"
        }
      ],
      "name": "balances",
      "outputs": [
        {
          "internalType": "uint256",
          "name": "",
          "type": "uint256"
        }
      ],
      "stateMutability": "view",
      "type": "function"
    },
    {
      "inputs": [],
      "name": "collateral",
      "outputs": [
        {
          "internalType": "uint256",
          "name": "",
          "type": "uint256"
        }
      ],
      "stateMutability": "view",
      "type": "function"
    },
    {
      "inputs": [],
      "name": "counter",
      "outputs": [
        {
          "internalType": "uint256",
          "name": "",
          "type": "uint256"
        }
      ],
      "stateMutability": "view",
      "type": "function"
    },
    {
      "inputs": [],
      "name": "deadLine",
      "outputs": [
        {
          "internalType": "uint256",
          "name": "",
          "type": "uint256"
        }
      ],
      "stateMutability": "view",
      "type": "function"
    },
    {
      "inputs": [
        {
          "internalType": "uint256",
          "name": "",
          "type": "uint256"
        }
      ],
      "name": "orders",
      "outputs": [
        {
          "internalType": "address",
          "name": "user",
          "type": "address"
        },
        {
          "internalType": "enum PredictionMarket.OrderType",
          "name": "orderType",
          "type": "uint8"
        },
        {
          "internalType": "uint256",
          "name": "amount",
          "type": "uint256"
        },
        {
          "internalType": "uint256",
          "name": "price",
          "type": "uint256"
        }
      ],
      "stateMutability": "view",
      "type": "function"
    },
    {
      "inputs": [],
      "name": "owner",
      "outputs": [
        {
          "internalType": "address",
          "name": "",
          "type": "address"
        }
      ],
      "stateMutability": "view",
      "type": "function"
    },
    {
      "inputs": [],
      "name": "result",
      "outputs": [
        {
          "internalType": "enum PredictionMarket.Result",
          "name": "",
          "type": "uint8"
        }
      ],
      "stateMutability": "view",
      "type": "function"
    },
    {
      "inputs": [
        {
          "internalType": "address",
          "name": "",
          "type": "address"
        }
      ],
      "name": "shares",
      "outputs": [
        {
          "internalType": "uint256",
          "name": "",
          "type": "uint256"
        }
      ],
      "stateMutability": "view",
      "type": "function"
    },
    {
      "inputs": [
        {
          "internalType": "uint256",
          "name": "price",
          "type": "uint256"
        }
      ],
      "name": "orderBuy",
      "outputs": [],
      "stateMutability": "payable",
      "type": "function"
    },
    {
      "inputs": [
        {
          "internalType": "uint256",
          "name": "price",
          "type": "uint256"
        },
        {
          "internalType": "uint256",
          "name": "amount",
          "type": "uint256"
        }
      ],
      "name": "orderSell",
      "outputs": [],
      "stateMutability": "nonpayable",
      "type": "function"
    },
    {
      "inputs": [
        {
          "internalType": "uint256",
          "name": "orderId",
          "type": "uint256"
        }
      ],
      "name": "tradeBuy",
      "outputs": [],
      "stateMutability": "payable",
      "type": "function"
    },
    {
      "inputs": [
        {
          "internalType": "uint256",
          "name": "orderId",
          "type": "uint256"
        },
        {
          "internalType": "uint256",
          "name": "amount",
          "type": "uint256"
        }
      ],
      "name": "tradeSell",
      "outputs": [],
      "stateMutability": "nonpayable",
      "type": "function"
    },
    {
      "inputs": [
        {
          "internalType": "uint256",
          "name": "orderId",
          "type": "uint256"
        }
      ],
      "name": "cancleOrder",
      "outputs": [],
      "stateMutability": "nonpayable",
      "type": "function"
    },
    {
      "inputs": [
        {
          "internalType": "bool",
          "name": "_result",
          "type": "bool"
        }
      ],
      "name": "resolve",
      "outputs": [],
      "stateMutability": "nonpayable",
      "type": "function"
    },
    {
      "inputs": [],
      "name": "withDraw",
      "outputs": [],
      "stateMutability": "nonpayable",
      "type": "function"
    }
  ],
  "bytecode": "0x60806040526040516200258a3803806200258a833981810160405281019062000029919062000156565b600034116200003757600080fd5b336000806101000a81548173ffffffffffffffffffffffffffffffffffffffff021916908373ffffffffffffffffffffffffffffffffffffffff1602179055506200009742826200010f6401000000000262001ca9176401000000009004565b600181905550620000be346064620001276401000000000262001cbf176401000000009004565b600560003373ffffffffffffffffffffffffffffffffffffffff1673ffffffffffffffffffffffffffffffffffffffff16815260200190815260200160002081905550346003819055505062000299565b600081836200011f919062000182565b905092915050565b60008183620001379190620001df565b905092915050565b60008151905062000150816200027f565b92915050565b6000602082840312156200016957600080fd5b600062000179848285016200013f565b91505092915050565b60006200018f8262000217565b91506200019c8362000217565b9250827fffffffffffffffffffffffffffffffffffffffffffffffffffffffffffffffff03821115620001d457620001d362000221565b5b828201905092915050565b6000620001ec8262000217565b9150620001f98362000217565b9250826200020c576200020b62000250565b5b828204905092915050565b6000819050919050565b7f4e487b7100000000000000000000000000000000000000000000000000000000600052601160045260246000fd5b7f4e487b7100000000000000000000000000000000000000000000000000000000600052601260045260246000fd5b6200028a8162000217565b81146200029657600080fd5b50565b6122e180620002a96000396000f3fe60806040526004361061011b576000357c01000000000000000000000000000000000000000000000000000000009004806365372147116100b2578063a85c38ef11610081578063a85c38ef146102fe578063bef3a0831461033e578063ce7c2ac214610369578063d8dfeb45146103a6578063f406cb8a146103d15761011b565b806365372147146102545780638da5cb5b1461027f5780638dbe0a16146102aa5780639eedc53a146102d55761011b565b8063427119a9116100ee578063427119a9146101c65780636018fa42146101e257806361bc221a146101fe57806362e08c81146102295761011b565b80630bede3f8146101205780630fdb1c101461014957806327e235e31461016057806334a18aa81461019d575b600080fd5b34801561012c57600080fd5b5061014760048036038101906101429190611d69565b6103fa565b005b34801561015557600080fd5b5061015e6106a5565b005b34801561016c57600080fd5b5061018760048036038101906101829190611d40565b6108da565b6040516101949190611ee6565b60405180910390f35b3480156101a957600080fd5b506101c460048036038101906101bf9190611dbb565b6108f2565b005b6101e060048036038101906101db9190611d92565b610b89565b005b6101fc60048036038101906101f79190611d92565b61110b565b005b34801561020a57600080fd5b506102136112e7565b6040516102209190611ee6565b60405180910390f35b34801561023557600080fd5b5061023e6112ed565b60405161024b9190611ee6565b60405180910390f35b34801561026057600080fd5b506102696112f3565b6040516102769190611ecb565b60405180910390f35b34801561028b57600080fd5b50610294611306565b6040516102a19190611e42565b60405180910390f35b3480156102b657600080fd5b506102bf61132a565b6040516102cc9190611ee6565b60405180910390f35b3480156102e157600080fd5b506102fc60048036038101906102f79190611dbb565b61132f565b005b34801561030a57600080fd5b5061032560048036038101906103209190611d92565b61195c565b6040516103359493929190611e86565b60405180910390f35b34801561034a57600080fd5b506103536119b9565b6040516103609190611ee6565b60405180910390f35b34801561037557600080fd5b50610390600480360381019061038b9190611d40565b6119bf565b60405161039d9190611ee6565b60405180910390f35b3480156103b257600080fd5b506103bb6119d7565b6040516103c89190611ee6565b60405180910390f35b3480156103dd57600080fd5b506103f860048036038101906103f39190611d92565b6119dd565b005b600154421161040857600080fd5b60008054906101000a900473ffffffffffffffffffffffffffffffffffffffff1673ffffffffffffffffffffffffffffffffffffffff163373ffffffffffffffffffffffffffffffffffffffff161461046057600080fd5b6000600281111561049a577f4e487b7100000000000000000000000000000000000000000000000000000000600052602160045260246000fd5b600060149054906101000a900460ff1660028111156104e2577f4e487b7100000000000000000000000000000000000000000000000000000000600052602160045260246000fd5b146104ec57600080fd5b806104f85760026104fb565b60015b600060146101000a81548160ff02191690836002811115610545577f4e487b7100000000000000000000000000000000000000000000000000000000600052602160045260246000fd5b0217905550600280811115610583577f4e487b7100000000000000000000000000000000000000000000000000000000600052602160045260246000fd5b600060149054906101000a900460ff1660028111156105cb577f4e487b7100000000000000000000000000000000000000000000000000000000600052602160045260246000fd5b14156106a25761063d600660008060009054906101000a900473ffffffffffffffffffffffffffffffffffffffff1673ffffffffffffffffffffffffffffffffffffffff1673ffffffffffffffffffffffffffffffffffffffff16815260200190815260200160002054600354611ca9565b600660008060009054906101000a900473ffffffffffffffffffffffffffffffffffffffff1673ffffffffffffffffffffffffffffffffffffffff1673ffffffffffffffffffffffffffffffffffffffff168152602001908152602001600020819055505b50565b60003390506000600660008373ffffffffffffffffffffffffffffffffffffffff1673ffffffffffffffffffffffffffffffffffffffff1681526020019081526020016000205490506000600660008473ffffffffffffffffffffffffffffffffffffffff1673ffffffffffffffffffffffffffffffffffffffff168152602001908152602001600020819055506001600281111561076d577f4e487b7100000000000000000000000000000000000000000000000000000000600052602160045260246000fd5b600060149054906101000a900460ff1660028111156107b5577f4e487b7100000000000000000000000000000000000000000000000000000000600052602160045260246000fd5b14156108565761080e81610809600560008673ffffffffffffffffffffffffffffffffffffffff1673ffffffffffffffffffffffffffffffffffffffff168152602001908152602001600020546064611cd5565b611ca9565b90506000600560008473ffffffffffffffffffffffffffffffffffffffff1673ffffffffffffffffffffffffffffffffffffffff168152602001908152602001600020819055505b8173ffffffffffffffffffffffffffffffffffffffff166108fc829081150290604051600060405180830381858888f1935050505015801561089c573d6000803e3d6000fd5b507f5afeca38b2064c23a692c4cf353015d80ab3ecc417b4f893f372690c11fbd9a682826040516108ce929190611e5d565b60405180910390a15050565b60066020528060005260406000206000915090505481565b600154421061090057600080fd5b80600560003373ffffffffffffffffffffffffffffffffffffffff1673ffffffffffffffffffffffffffffffffffffffff16815260200190815260200160002054101561094c57600080fd5b6000821161095957600080fd5b606482111561096757600080fd5b6109b0600560003373ffffffffffffffffffffffffffffffffffffffff1673ffffffffffffffffffffffffffffffffffffffff1681526020019081526020016000205482611ceb565b600560003373ffffffffffffffffffffffffffffffffffffffff1673ffffffffffffffffffffffffffffffffffffffff1681526020019081526020016000208190555060026000815480929190610a0690612168565b919050555060405180608001604052803373ffffffffffffffffffffffffffffffffffffffff168152602001600180811115610a6b577f4e487b7100000000000000000000000000000000000000000000000000000000600052602160045260246000fd5b81526020018281526020018381525060046000600254815260200190815260200160002060008201518160000160006101000a81548173ffffffffffffffffffffffffffffffffffffffff021916908373ffffffffffffffffffffffffffffffffffffffff16021790555060208201518160000160146101000a81548160ff02191690836001811115610b27577f4e487b7100000000000000000000000000000000000000000000000000000000600052602160045260246000fd5b021790555060408201518160010155606082015181600201559050507f28ee76b520925c614b94784e5bd4b8d8ad21fd9930aea487e678e1e5a5f405136002543360018486604051610b7d959493929190611f01565b60405180910390a15050565b60006004600083815260200190815260200160002090506001544210610bae57600080fd5b3373ffffffffffffffffffffffffffffffffffffffff168160000160009054906101000a900473ffffffffffffffffffffffffffffffffffffffff1673ffffffffffffffffffffffffffffffffffffffff161415610c0b57600080fd5b600180811115610c44577f4e487b7100000000000000000000000000000000000000000000000000000000600052602160045260246000fd5b8160000160149054906101000a900460ff166001811115610c8e577f4e487b7100000000000000000000000000000000000000000000000000000000600052602160045260246000fd5b14610c9857600080fd5b6000816001015411610ca957600080fd5b60003411610cb657600080fd5b80600101548160020154610cca9190612012565b341115610cd657600080fd5b6000610ce6348360020154611cbf565b90506000610d0d610cfb838560020154611cd5565b610d0860016101f4611cbf565b611cd5565b90506000610d2783610d2260016101f4611cbf565b611cd5565b9050610d7b600560003373ffffffffffffffffffffffffffffffffffffffff1673ffffffffffffffffffffffffffffffffffffffff16815260200190815260200160002054610d768584611ceb565b611ca9565b600560003373ffffffffffffffffffffffffffffffffffffffff1673ffffffffffffffffffffffffffffffffffffffff16815260200190815260200160002081905550610e28600560008060009054906101000a900473ffffffffffffffffffffffffffffffffffffffff1673ffffffffffffffffffffffffffffffffffffffff1673ffffffffffffffffffffffffffffffffffffffff1681526020019081526020016000205482611ca9565b600560008060009054906101000a900473ffffffffffffffffffffffffffffffffffffffff1673ffffffffffffffffffffffffffffffffffffffff1673ffffffffffffffffffffffffffffffffffffffff16815260200190815260200160002081905550610f0f600660008660000160009054906101000a900473ffffffffffffffffffffffffffffffffffffffff1673ffffffffffffffffffffffffffffffffffffffff1673ffffffffffffffffffffffffffffffffffffffff16815260200190815260200160002054610f0a610f04868860020154611cd5565b85611ceb565b611ca9565b600660008660000160009054906101000a900473ffffffffffffffffffffffffffffffffffffffff1673ffffffffffffffffffffffffffffffffffffffff1673ffffffffffffffffffffffffffffffffffffffff16815260200190815260200160002081905550610fe0600660008060009054906101000a900473ffffffffffffffffffffffffffffffffffffffff1673ffffffffffffffffffffffffffffffffffffffff1673ffffffffffffffffffffffffffffffffffffffff1681526020019081526020016000205483611ca9565b600660008060009054906101000a900473ffffffffffffffffffffffffffffffffffffffff1673ffffffffffffffffffffffffffffffffffffffff1673ffffffffffffffffffffffffffffffffffffffff16815260200190815260200160002081905550611052846001015484611ceb565b84600101819055506000846001015414156110c95760046000868152602001908152602001600020600080820160006101000a81549073ffffffffffffffffffffffffffffffffffffffff02191690556000820160146101000a81549060ff02191690556001820160009055600282016000905550505b7f27d9abeaaa9352743d445f5421d15a1fc96197eca61e08eae7caa5ca345abcb88533856040516110fc93929190611f54565b60405180910390a15050505050565b600154421061111957600080fd5b6000341161112657600080fd5b600081101561113457600080fd5b606481111561114257600080fd5b600061114e3483611cbf565b90506002600081548092919061116390612168565b919050555060405180608001604052803373ffffffffffffffffffffffffffffffffffffffff168152602001600060018111156111c9577f4e487b7100000000000000000000000000000000000000000000000000000000600052602160045260246000fd5b81526020018281526020018381525060046000600254815260200190815260200160002060008201518160000160006101000a81548173ffffffffffffffffffffffffffffffffffffffff021916908373ffffffffffffffffffffffffffffffffffffffff16021790555060208201518160000160146101000a81548160ff02191690836001811115611285577f4e487b7100000000000000000000000000000000000000000000000000000000600052602160045260246000fd5b021790555060408201518160010155606082015181600201559050507f28ee76b520925c614b94784e5bd4b8d8ad21fd9930aea487e678e1e5a5f4051360025433600084866040516112db959493929190611f01565b60405180910390a15050565b60025481565b6101f481565b600060149054906101000a900460ff1681565b60008054906101000a900473ffffffffffffffffffffffffffffffffffffffff1681565b600181565b6000600460008481526020019081526020016000209050600154421061135457600080fd5b8060000160009054906101000a900473ffffffffffffffffffffffffffffffffffffffff1673ffffffffffffffffffffffffffffffffffffffff163373ffffffffffffffffffffffffffffffffffffffff1614156113b157600080fd5b600060018111156113eb577f4e487b7100000000000000000000000000000000000000000000000000000000600052602160045260246000fd5b8160000160149054906101000a900460ff166001811115611435577f4e487b7100000000000000000000000000000000000000000000000000000000600052602160045260246000fd5b1461143f57600080fd5b600081600101541161145057600080fd5b806001015482111561146157600080fd5b81600560003373ffffffffffffffffffffffffffffffffffffffff1673ffffffffffffffffffffffffffffffffffffffff1681526020019081526020016000205410156114ad57600080fd5b60006114d26114c0848460020154611cd5565b6114cd60016101f4611cbf565b611cd5565b905060006114ec846114e760016101f4611cbf565b611cd5565b9050611537600560003373ffffffffffffffffffffffffffffffffffffffff1673ffffffffffffffffffffffffffffffffffffffff1681526020019081526020016000205485611ceb565b600560003373ffffffffffffffffffffffffffffffffffffffff1673ffffffffffffffffffffffffffffffffffffffff168152602001908152602001600020819055506115f0600560008560000160009054906101000a900473ffffffffffffffffffffffffffffffffffffffff1673ffffffffffffffffffffffffffffffffffffffff1673ffffffffffffffffffffffffffffffffffffffff168152602001908152602001600020546115eb8684611ceb565b611ca9565b600560008560000160009054906101000a900473ffffffffffffffffffffffffffffffffffffffff1673ffffffffffffffffffffffffffffffffffffffff1673ffffffffffffffffffffffffffffffffffffffff168152602001908152602001600020819055506116c1600560008060009054906101000a900473ffffffffffffffffffffffffffffffffffffffff1673ffffffffffffffffffffffffffffffffffffffff1673ffffffffffffffffffffffffffffffffffffffff1681526020019081526020016000205482611ca9565b600560008060009054906101000a900473ffffffffffffffffffffffffffffffffffffffff1673ffffffffffffffffffffffffffffffffffffffff1673ffffffffffffffffffffffffffffffffffffffff16815260200190815260200160002081905550611784600660003373ffffffffffffffffffffffffffffffffffffffff1673ffffffffffffffffffffffffffffffffffffffff1681526020019081526020016000205461177f611779878760020154611cd5565b85611ceb565b611ca9565b600660003373ffffffffffffffffffffffffffffffffffffffff1673ffffffffffffffffffffffffffffffffffffffff16815260200190815260200160002081905550611831600660008060009054906101000a900473ffffffffffffffffffffffffffffffffffffffff1673ffffffffffffffffffffffffffffffffffffffff1673ffffffffffffffffffffffffffffffffffffffff1681526020019081526020016000205483611ca9565b600660008060009054906101000a900473ffffffffffffffffffffffffffffffffffffffff1673ffffffffffffffffffffffffffffffffffffffff1673ffffffffffffffffffffffffffffffffffffffff168152602001908152602001600020819055506118a3836001015485611ceb565b836001018190555060008360010154141561191a5760046000868152602001908152602001600020600080820160006101000a81549073ffffffffffffffffffffffffffffffffffffffff02191690556000820160146101000a81549060ff02191690556001820160009055600282016000905550505b7f27d9abeaaa9352743d445f5421d15a1fc96197eca61e08eae7caa5ca345abcb885338660405161194d93929190611f54565b60405180910390a15050505050565b60046020528060005260406000206000915090508060000160009054906101000a900473ffffffffffffffffffffffffffffffffffffffff16908060000160149054906101000a900460ff16908060010154908060020154905084565b60015481565b60056020528060005260406000206000915090505481565b60035481565b60006004600083815260200190815260200160002090503373ffffffffffffffffffffffffffffffffffffffff168160000160009054906101000a900473ffffffffffffffffffffffffffffffffffffffff1673ffffffffffffffffffffffffffffffffffffffff1614611a5057600080fd5b60006001811115611a8a577f4e487b7100000000000000000000000000000000000000000000000000000000600052602160045260246000fd5b8160000160149054906101000a900460ff166001811115611ad4577f4e487b7100000000000000000000000000000000000000000000000000000000600052602160045260246000fd5b1415611b7c57611b34600660003373ffffffffffffffffffffffffffffffffffffffff1673ffffffffffffffffffffffffffffffffffffffff16815260200190815260200160002054611b2f83600101548460020154611cd5565b611ca9565b600660003373ffffffffffffffffffffffffffffffffffffffff1673ffffffffffffffffffffffffffffffffffffffff16815260200190815260200160002081905550611c0d565b611bc9600560003373ffffffffffffffffffffffffffffffffffffffff1673ffffffffffffffffffffffffffffffffffffffff168152602001908152602001600020548260010154611ca9565b600560003373ffffffffffffffffffffffffffffffffffffffff1673ffffffffffffffffffffffffffffffffffffffff168152602001908152602001600020819055505b60046000838152602001908152602001600020600080820160006101000a81549073ffffffffffffffffffffffffffffffffffffffff02191690556000820160146101000a81549060ff02191690556001820160009055600282016000905550507fc41f4ceb2938876c35e61b705e9d2f18a02c4a26ce5e049a6308a943d46851b382604051611c9d9190611ee6565b60405180910390a15050565b60008183611cb79190611f8b565b905092915050565b60008183611ccd9190611fe1565b905092915050565b60008183611ce39190612012565b905092915050565b60008183611cf9919061206c565b905092915050565b600081359050611d1081612266565b92915050565b600081359050611d258161227d565b92915050565b600081359050611d3a81612294565b92915050565b600060208284031215611d5257600080fd5b6000611d6084828501611d01565b91505092915050565b600060208284031215611d7b57600080fd5b6000611d8984828501611d16565b91505092915050565b600060208284031215611da457600080fd5b6000611db284828501611d2b565b91505092915050565b60008060408385031215611dce57600080fd5b6000611ddc85828601611d2b565b9250506020611ded85828601611d2b565b9150509250929050565b611e008161210e565b82525050565b611e0f816120a0565b82525050565b611e1e81612120565b82525050565b611e2d81612132565b82525050565b611e3c81612104565b82525050565b6000602082019050611e576000830184611e06565b92915050565b6000604082019050611e726000830185611df7565b611e7f6020830184611e33565b9392505050565b6000608082019050611e9b6000830187611e06565b611ea86020830186611e15565b611eb56040830185611e33565b611ec26060830184611e33565b95945050505050565b6000602082019050611ee06000830184611e24565b92915050565b6000602082019050611efb6000830184611e33565b92915050565b600060a082019050611f166000830188611e33565b611f236020830187611e06565b611f306040830186611e15565b611f3d6060830185611e33565b611f4a6080830184611e33565b9695505050505050565b6000606082019050611f696000830186611e33565b611f766020830185611e06565b611f836040830184611e33565b949350505050565b6000611f9682612104565b9150611fa183612104565b9250827fffffffffffffffffffffffffffffffffffffffffffffffffffffffffffffffff03821115611fd657611fd56121b1565b5b828201905092915050565b6000611fec82612104565b9150611ff783612104565b925082612007576120066121e0565b5b828204905092915050565b600061201d82612104565b915061202883612104565b9250817fffffffffffffffffffffffffffffffffffffffffffffffffffffffffffffffff0483118215151615612061576120606121b1565b5b828202905092915050565b600061207782612104565b915061208283612104565b925082821015612095576120946121b1565b5b828203905092915050565b60006120ab826120e4565b9050919050565b60008115159050919050565b60008190506120cc8261223e565b919050565b60008190506120df82612252565b919050565b600073ffffffffffffffffffffffffffffffffffffffff82169050919050565b6000819050919050565b600061211982612144565b9050919050565b600061212b826120be565b9050919050565b600061213d826120d1565b9050919050565b600061214f82612156565b9050919050565b6000612161826120e4565b9050919050565b600061217382612104565b91507fffffffffffffffffffffffffffffffffffffffffffffffffffffffffffffffff8214156121a6576121a56121b1565b5b600182019050919050565b7f4e487b7100000000000000000000000000000000000000000000000000000000600052601160045260246000fd5b7f4e487b7100000000000000000000000000000000000000000000000000000000600052601260045260246000fd5b7f4e487b7100000000000000000000000000000000000000000000000000000000600052602160045260246000fd5b6002811061224f5761224e61220f565b5b50565b600381106122635761226261220f565b5b50565b61226f816120a0565b811461227a57600080fd5b50565b612286816120b2565b811461229157600080fd5b50565b61229d81612104565b81146122a857600080fd5b5056fea26469706673582212209bca2ab92824b17b3d7adedf5d30c17b4c0853a1c1c608d2ae00778ba845d44864736f6c63430008030033",
  "immutableReferences": {},
  "source": "//SPDX-License-Identifier: UNLICENSED;\npragma solidity ^0.8.0;\nimport \"@openzeppelin/contracts/utils/math/SafeMath.sol\";\n\ncontract PredictionMarket {\n  using SafeMath for uint256;\n  enum OrderType {Buy, Sell}\n  enum Result {Open, Yes, No}\n\n  struct Order {\n    address user;\n    OrderType orderType;\n    uint256 amount;\n    uint256 price;\n  }\n\n  uint256 public constant TX_FEE_NUMERATOR = 1;\n  uint256 public constant TX_FEE_DENOMINATOR = 500;\n\n  address public owner;\n  Result public result;\n  uint256 public deadLine;\n  uint256 public counter;\n  uint256 public collateral;\n  mapping(uint256 => Order) public orders;\n  mapping(address => uint256) public shares;\n  mapping(address => uint256) public balances;\n\n  event OrderPlaced(uint256 orderId, address user, OrderType orderType, uint256 amount, uint256 price);\n  event TradeMatched(uint256 orderId, address user, uint256 amount);\n  event OrderCanceled(uint256 orderId);\n  event Payout(address user, uint256 amount);\n\n  constructor(uint256 duration) payable {\n    require(msg.value > 0);\n\n    owner = msg.sender;\n    deadLine = SafeMath.add(block.timestamp, duration);\n    shares[msg.sender] = SafeMath.div(msg.value, 100);\n    collateral = msg.value;\n  }\n\n  function orderBuy(uint256 price) public payable {\n    require(block.timestamp < deadLine);\n    require(msg.value > 0);\n    require(price >= 0);\n    require(price <= 100);\n\n    uint256 amount = SafeMath.div(msg.value, price);\n    counter++;\n    orders[counter] = Order(msg.sender, OrderType.Buy, amount, price);\n    emit OrderPlaced(counter, msg.sender, OrderType.Buy, amount, price);\n  }\n\n  function orderSell(uint256 price, uint256 amount) public {\n    require(block.timestamp < deadLine);\n    require(shares[msg.sender] >= amount);\n    require(price > 0);\n    require(price <= 100);\n\n    shares[msg.sender] = SafeMath.sub(shares[msg.sender], amount);\n    counter++;\n    orders[counter] = Order(msg.sender, OrderType.Sell, amount, price);\n    emit OrderPlaced(counter, msg.sender, OrderType.Sell, amount, price);\n  }\n\n  function tradeBuy(uint256 orderId) public payable {\n    Order storage order = orders[orderId];\n\n    require(block.timestamp < deadLine);\n    require(order.user != msg.sender);\n    require(order.orderType == OrderType.Sell);\n    require(order.amount > 0);\n    require(msg.value > 0);\n    require(msg.value <= order.price * order.amount);\n\n    uint256 amount = SafeMath.div(msg.value, order.price);\n    uint256 fee = SafeMath.mul(SafeMath.mul(amount, order.price), SafeMath.div(TX_FEE_NUMERATOR, TX_FEE_DENOMINATOR));\n    uint256 feeShare = SafeMath.mul(amount, SafeMath.div(TX_FEE_NUMERATOR, TX_FEE_DENOMINATOR));\n\n    shares[msg.sender] = SafeMath.add(shares[msg.sender], SafeMath.sub(amount, feeShare));\n    shares[owner] = SafeMath.add(shares[owner], feeShare);\n    balances[order.user] = SafeMath.add(balances[order.user], SafeMath.sub(SafeMath.mul(amount, order.price), fee));\n    balances[owner] = SafeMath.add(balances[owner], fee);\n    order.amount = SafeMath.sub(order.amount, amount);\n    if (order.amount == 0) delete orders[orderId];\n    emit TradeMatched(orderId, msg.sender, amount);\n  }\n\n  function tradeSell(uint256 orderId, uint256 amount) public {\n    Order storage order = orders[orderId];\n\n    require(block.timestamp < deadLine);\n    require(msg.sender != order.user);\n    require(order.orderType == OrderType.Buy);\n    require(order.amount > 0);\n    require(amount <= order.amount);\n    require(shares[msg.sender] >= amount);\n\n    uint256 fee = SafeMath.mul(SafeMath.mul(amount, order.price), SafeMath.div(TX_FEE_NUMERATOR, TX_FEE_DENOMINATOR));\n    uint256 feeShare = SafeMath.mul(amount, SafeMath.div(TX_FEE_NUMERATOR, TX_FEE_DENOMINATOR));\n\n    shares[msg.sender] = SafeMath.sub(shares[msg.sender], amount);\n    shares[order.user] = SafeMath.add(shares[order.user], SafeMath.sub(amount, feeShare));\n    shares[owner] = SafeMath.add(shares[owner], feeShare);\n    balances[msg.sender] = SafeMath.add(balances[msg.sender], SafeMath.sub(SafeMath.mul(amount, order.price), fee));\n    balances[owner] = SafeMath.add(balances[owner], fee);\n    order.amount = SafeMath.sub(order.amount, amount);\n    if (order.amount == 0) delete orders[orderId];\n    emit TradeMatched(orderId, msg.sender, amount);\n  }\n\n  function cancleOrder(uint256 orderId) public {\n    Order storage order = orders[orderId];\n\n    require(order.user == msg.sender);\n\n    if (order.orderType == OrderType.Buy) balances[msg.sender] = SafeMath.add(balances[msg.sender], SafeMath.mul(order.amount, order.price));\n    else shares[msg.sender] = SafeMath.add(shares[msg.sender], order.amount);\n    delete orders[orderId];\n    emit OrderCanceled(orderId);\n  }\n\n  function resolve(bool _result) public {\n    require(block.timestamp > deadLine);\n    require(msg.sender == owner);\n    require(result == Result.Open);\n\n    result = _result ? Result.Yes : Result.No;\n    if (result == Result.No) balances[owner] = SafeMath.add(balances[owner], collateral);\n  }\n\n  function withDraw() public {\n    address payable withdrawer = payable(msg.sender);\n    uint256 payout = balances[withdrawer];\n    balances[withdrawer] = 0;\n\n    if (result == Result.Yes) {\n      payout = SafeMath.add(payout, SafeMath.mul(shares[withdrawer], 100));\n      shares[withdrawer] = 0;\n    }\n    withdrawer.transfer(payout);\n    emit Payout(withdrawer, payout);\n  }\n}\n",
  "sourcePath": "/Users/Devesh/Desktop/Learning/games_blockchain/predictionMarckets/contracts/PredictionMarket.sol",
  "compiler": {
    "name": "solc",
    "version": "0.8.3+commit.8d00100c.Linux.g++"
  },
  "schemaVersion": "3.1.0",
  "updatedAt": "2021-04-18T04:38:23.319Z",
  "devdoc": {
    "kind": "dev",
    "methods": {},
    "version": 1
  },
  "userdoc": {
    "kind": "user",
    "methods": {},
    "version": 1
  }
}