{
  "contractName": "Government",
  "abi": [
    {
      "inputs": [],
      "stateMutability": "payable",
      "type": "constructor",
      "payable": true
    },
    {
      "inputs": [],
      "name": "corruptElite",
      "outputs": [
        {
          "internalType": "address payable",
          "name": "",
          "type": "address"
        }
      ],
      "stateMutability": "view",
      "type": "function",
      "constant": true
    },
    {
      "inputs": [
        {
          "internalType": "uint256",
          "name": "",
          "type": "uint256"
        }
      ],
      "name": "creditorAddresses",
      "outputs": [
        {
          "internalType": "address payable",
          "name": "",
          "type": "address"
        }
      ],
      "stateMutability": "view",
      "type": "function",
      "constant": true
    },
    {
      "inputs": [
        {
          "internalType": "uint256",
          "name": "",
          "type": "uint256"
        }
      ],
      "name": "creditorAmounts",
      "outputs": [
        {
          "internalType": "uint256",
          "name": "",
          "type": "uint256"
        }
      ],
      "stateMutability": "view",
      "type": "function",
      "constant": true
    },
    {
      "inputs": [],
      "name": "lastCreditorPayedOut",
      "outputs": [
        {
          "internalType": "uint32",
          "name": "",
          "type": "uint32"
        }
      ],
      "stateMutability": "view",
      "type": "function",
      "constant": true
    },
    {
      "inputs": [],
      "name": "lastTimeOfNewCredit",
      "outputs": [
        {
          "internalType": "uint256",
          "name": "",
          "type": "uint256"
        }
      ],
      "stateMutability": "view",
      "type": "function",
      "constant": true
    },
    {
      "inputs": [],
      "name": "profitFromCrash",
      "outputs": [
        {
          "internalType": "uint256",
          "name": "",
          "type": "uint256"
        }
      ],
      "stateMutability": "view",
      "type": "function",
      "constant": true
    },
    {
      "inputs": [],
      "name": "round",
      "outputs": [
        {
          "internalType": "uint8",
          "name": "",
          "type": "uint8"
        }
      ],
      "stateMutability": "view",
      "type": "function",
      "constant": true
    },
    {
      "stateMutability": "payable",
      "type": "receive",
      "payable": true
    },
    {
      "inputs": [
        {
          "internalType": "address payable",
          "name": "buddy",
          "type": "address"
        }
      ],
      "name": "lendGovernmentMoney",
      "outputs": [
        {
          "internalType": "bool",
          "name": "",
          "type": "bool"
        }
      ],
      "stateMutability": "payable",
      "type": "function",
      "payable": true
    },
    {
      "inputs": [],
      "name": "totalDebt",
      "outputs": [
        {
          "internalType": "uint256",
          "name": "debt",
          "type": "uint256"
        }
      ],
      "stateMutability": "view",
      "type": "function",
      "constant": true
    },
    {
      "inputs": [],
      "name": "totalPayedOut",
      "outputs": [
        {
          "internalType": "uint256",
          "name": "payout",
          "type": "uint256"
        }
      ],
      "stateMutability": "view",
      "type": "function",
      "constant": true
    },
    {
      "inputs": [],
      "name": "investInTheSystem",
      "outputs": [],
      "stateMutability": "payable",
      "type": "function",
      "payable": true
    },
    {
      "inputs": [
        {
          "internalType": "address payable",
          "name": "nextGeneration",
          "type": "address"
        }
      ],
      "name": "inheritToNextGeneration",
      "outputs": [],
      "stateMutability": "nonpayable",
      "type": "function"
    },
    {
      "inputs": [],
      "name": "getCreditorAddresses",
      "outputs": [
        {
          "internalType": "address[]",
          "name": "creditorAddresses",
          "type": "address[]"
        }
      ],
      "stateMutability": "pure",
      "type": "function",
      "constant": true
    },
    {
      "inputs": [],
      "name": "getCreditorAmounts",
      "outputs": [
        {
          "internalType": "uint256[]",
          "name": "creditorAmounts",
          "type": "uint256[]"
        }
      ],
      "stateMutability": "pure",
      "type": "function",
      "constant": true
    }
  ],
  "bytecode": "0x60806040523460028190555033600560006101000a81548173ffffffffffffffffffffffffffffffffffffffff021916908373ffffffffffffffffffffffffffffffffffffffff16021790555042600181905550610f0b806100626000396000f3fe6080604052600436106100fe576000357c010000000000000000000000000000000000000000000000000000000090048063719874da1161009c578063d3edcb5b11610076578063d3edcb5b14610397578063d95a2d4214610403578063f42d1d301461045f578063fc7b9c18146104ae57610110565b8063719874da1461028557806381064e2d146102b0578063ce43b0c01461031c57610110565b806345941a38116100d857806345941a38146101d45780634a1f0bf6146101ff5780634f013184146102505780636831c1691461025a57610110565b806309f3295714610115578063146ca5311461014c5780633beea6951461017d57610110565b366101105761010d60006104d9565b50005b600080fd5b34801561012157600080fd5b5061012a610b76565b604051808263ffffffff1663ffffffff16815260200191505060405180910390f35b34801561015857600080fd5b50610161610b8b565b604051808260ff1660ff16815260200191505060405180910390f35b34801561018957600080fd5b50610192610b9e565b604051808273ffffffffffffffffffffffffffffffffffffffff1673ffffffffffffffffffffffffffffffffffffffff16815260200191505060405180910390f35b3480156101e057600080fd5b506101e9610bc4565b6040518082815260200191505060405180910390f35b34801561020b57600080fd5b5061024e6004803603602081101561022257600080fd5b81019080803573ffffffffffffffffffffffffffffffffffffffff169060200190929190505050610bca565b005b610258610c65565b005b34801561026657600080fd5b5061026f610c77565b6040518082815260200191505060405180910390f35b34801561029157600080fd5b5061029a610ccb565b6040518082815260200191505060405180910390f35b3480156102bc57600080fd5b506102c5610cd1565b6040518080602001828103825283818151815260200191508051906020019060200280838360005b838110156103085780820151818401526020810190506102ed565b505050509050019250505060405180910390f35b34801561032857600080fd5b506103556004803603602081101561033f57600080fd5b8101908080359060200190929190505050610cd9565b604051808273ffffffffffffffffffffffffffffffffffffffff1673ffffffffffffffffffffffffffffffffffffffff16815260200191505060405180910390f35b3480156103a357600080fd5b506103ac610d15565b6040518080602001828103825283818151815260200191508051906020019060200280838360005b838110156103ef5780820151818401526020810190506103d4565b505050509050019250505060405180910390f35b6104456004803603602081101561041957600080fd5b81019080803573ffffffffffffffffffffffffffffffffffffffff1690602001909291905050506104d9565b604051808215151515815260200191505060405180910390f35b34801561046b57600080fd5b506104986004803603602081101561048257600080fd5b8101908080359060200190929190505050610d1d565b6040518082815260200191505060405180910390f35b3480156104ba57600080fd5b506104c3610d3e565b6040518082815260200191505060405180910390f35b6000803490504261a8c06001540110156106ff573373ffffffffffffffffffffffffffffffffffffffff166108fc829081150290604051600060405180830381858888f193505050505060036001600380549050038154811061053857fe5b9060005260206000200160009054906101000a900473ffffffffffffffffffffffffffffffffffffffff1673ffffffffffffffffffffffffffffffffffffffff166108fc6002549081150290604051600060405180830381858888f1935050505050600560009054906101000a900473ffffffffffffffffffffffffffffffffffffffff1673ffffffffffffffffffffffffffffffffffffffff166108fc3073ffffffffffffffffffffffffffffffffffffffff16319081150290604051600060405180830381858888f193505050505060008060006101000a81548163ffffffff021916908363ffffffff16021790555042600181905550600060028190555060006040519080825280602002602001820160405280156106695781602001602082028036833780820191505090505b506003908051906020019061067f929190610d96565b5060006040519080825280602002602001820160405280156106b05781602001602082028036833780820191505090505b50600490805190602001906106c6929190610e20565b506001600760008282829054906101000a900460ff160192506101000a81548160ff021916908360ff1602179055506000915050610b71565b670de0b6b3a76400008110610b3557426001819055506003339080600181540180825580915050600190039060005260206000200160009091909190916101000a81548173ffffffffffffffffffffffffffffffffffffffff021916908373ffffffffffffffffffffffffffffffffffffffff1602179055506004600a600b83028161078757fe5b049080600181540180825580915050600190039060005260206000200160009091909190915055600560009054906101000a900473ffffffffffffffffffffffffffffffffffffffff1673ffffffffffffffffffffffffffffffffffffffff166108fc606460058402816107f757fe5b049081150290604051600060405180830381858888f193505050505069021e19e0c9bab24000006002541015610845576064600582028161083457fe5b046002600082825401925050819055505b80600660008573ffffffffffffffffffffffffffffffffffffffff1673ffffffffffffffffffffffffffffffffffffffff16815260200190815260200160002054106108cf578273ffffffffffffffffffffffffffffffffffffffff166108fc606460058402816108b257fe5b049081150290604051600060405180830381858888f19350505050505b6064606e8202816108dc57fe5b04600660003373ffffffffffffffffffffffffffffffffffffffff1673ffffffffffffffffffffffffffffffffffffffff168152602001908152602001600020600082825401925050819055506002543073ffffffffffffffffffffffffffffffffffffffff16310360046000809054906101000a900463ffffffff1663ffffffff168154811061096957fe5b906000526020600020015411610b2b5760036000809054906101000a900463ffffffff1663ffffffff168154811061099d57fe5b9060005260206000200160009054906101000a900473ffffffffffffffffffffffffffffffffffffffff1673ffffffffffffffffffffffffffffffffffffffff166108fc60046000809054906101000a900463ffffffff1663ffffffff1681548110610a0557fe5b90600052602060002001549081150290604051600060405180830381858888f193505050505060046000809054906101000a900463ffffffff1663ffffffff1681548110610a4f57fe5b90600052602060002001546006600060036000809054906101000a900463ffffffff1663ffffffff1681548110610a8257fe5b9060005260206000200160009054906101000a900473ffffffffffffffffffffffffffffffffffffffff1673ffffffffffffffffffffffffffffffffffffffff1673ffffffffffffffffffffffffffffffffffffffff1681526020019081526020016000206000828254039250508190555060016000808282829054906101000a900463ffffffff160192506101000a81548163ffffffff021916908363ffffffff1602179055505b6001915050610b71565b3373ffffffffffffffffffffffffffffffffffffffff166108fc829081150290604051600060405180830381858888f193505050505060009150505b919050565b6000809054906101000a900463ffffffff1681565b600760009054906101000a900460ff1681565b600560009054906101000a900473ffffffffffffffffffffffffffffffffffffffff1681565b60015481565b600560009054906101000a900473ffffffffffffffffffffffffffffffffffffffff1673ffffffffffffffffffffffffffffffffffffffff163373ffffffffffffffffffffffffffffffffffffffff161415610c625780600560006101000a81548173ffffffffffffffffffffffffffffffffffffffff021916908373ffffffffffffffffffffffffffffffffffffffff1602179055505b50565b34600260008282540192505081905550565b600080600090505b6000809054906101000a900463ffffffff1663ffffffff16811015610cc75760048181548110610cab57fe5b9060005260206000200154820191508080600101915050610c7f565b5090565b60025481565b606080905090565b60038181548110610ce657fe5b906000526020600020016000915054906101000a900473ffffffffffffffffffffffffffffffffffffffff1681565b606080905090565b60048181548110610d2a57fe5b906000526020600020016000915090505481565b6000806000809054906101000a900463ffffffff1663ffffffff1690505b600480549050811015610d925760048181548110610d7657fe5b9060005260206000200154820191508080600101915050610d5c565b5090565b828054828255906000526020600020908101928215610e0f579160200282015b82811115610e0e5782518260006101000a81548173ffffffffffffffffffffffffffffffffffffffff021916908373ffffffffffffffffffffffffffffffffffffffff16021790555091602001919060010190610db6565b5b509050610e1c9190610e6d565b5090565b828054828255906000526020600020908101928215610e5c579160200282015b82811115610e5b578251825591602001919060010190610e40565b5b509050610e699190610eb0565b5090565b610ead91905b80821115610ea957600081816101000a81549073ffffffffffffffffffffffffffffffffffffffff021916905550600101610e73565b5090565b90565b610ed291905b80821115610ece576000816000905550600101610eb6565b5090565b9056fea2646970667358221220e535a69fb095b12ae0e926f320bdda7de01f9df840cb6839c375d4182646d49d64736f6c63430006030033",
  "source": "pragma solidity ^0.6.1;\n\ncontract Government{\n    // Global Variables\n    uint32 public lastCreditorPayedOut;\n    uint  public lastTimeOfNewCredit;\n    uint public profitFromCrash;\n    address payable [] public creditorAddresses;\n    uint[] public creditorAmounts;\n    address payable public corruptElite;\n    mapping ( address => uint) buddies;\n    uint constant TWELVE_HOURS = 43200;\n    uint8 public round;\n\n    constructor() public payable {\n        //setup of elites promise by amount\n        profitFromCrash = msg.value;\n        //sets the initiator as a corruptElite\n        corruptElite = msg.sender;\n        //sets lastTimeOfNewCredit\n        lastTimeOfNewCredit = block.timestamp;\n    }\n\n    function lendGovernmentMoney(address payable buddy) public  payable returns(bool)  {\n        uint amount = msg.value;\n        /* \n        check if the system already broke down. If for 12h no \n        new creditor gives new credit to the system it will brake down\n        */\n        if(lastTimeOfNewCredit + TWELVE_HOURS < block.timestamp){\n            // Return money to sender\n            msg.sender.send(amount);\n            creditorAddresses[creditorAddresses.length - 1].send(profitFromCrash);\n            corruptElite.send(address(this).balance);\n\n            //Reset contract state\n            lastCreditorPayedOut =0;\n            lastTimeOfNewCredit = block.timestamp;\n            profitFromCrash =0;\n            creditorAddresses = new address payable[](0);\n            creditorAmounts = new uint[](0);\n            round +=1;\n            return false;\n        }else{\n            /* \n             the system needs to collect at least 1% of the profit // from a crash to stay alive \n            */\n            if(amount >= 10**18){\n                // the System has received fresh money, it will survive at least 12h more\n                lastTimeOfNewCredit = block.timestamp;\n                // register the new creditor and his amount with 10% interest rate\n                creditorAddresses.push(msg.sender);\n                creditorAmounts.push(amount * 11/10);\n                // now the money is distributed first the corrupt elite grabs 5% - thieves!\n                corruptElite.send(amount * 5/100);\n                // 5% are going into the economy (they will increase the value for the person seeing the crash coming)\n                //check weather profitfromCrash < 10000 ether \n                if (profitFromCrash < 10000 * 10**18) {\n                    profitFromCrash += amount * 5/100;\n                }\n                // if you have a buddy in the government (and he is in the creditor list) he can get 5% of your credits.\n                // Make a deal with him.\n                if(buddies[buddy] >= amount) {\n                    \n                    buddy.send(amount * 5/100);\n                }\n                buddies[msg.sender] += amount * 110 / 100;\n                // 90% of the money will be used to pay out old creditors\n                if (creditorAmounts[lastCreditorPayedOut] <=address(this).balance - profitFromCrash){\n                    creditorAddresses[lastCreditorPayedOut].send( creditorAmounts[lastCreditorPayedOut]);\n                    buddies[creditorAddresses[lastCreditorPayedOut]] -= creditorAmounts[lastCreditorPayedOut];\n                    lastCreditorPayedOut += 1;\n                }\n                return true;\n            }else {\n                msg.sender.send(amount);\n                return false;\n            }\n        }\n\n    }\n\n    receive() external payable {\n        lendGovernmentMoney(address(0));\n    }\n    \n    function totalDebt() public view returns( uint debt){\n        for (uint256 i = lastCreditorPayedOut; i < creditorAmounts.length; i++) {\n            debt += creditorAmounts[i];\n        }\n    }\n\n    function totalPayedOut() public view returns (uint payout) {\n        for(uint i=0; i<lastCreditorPayedOut; i++){\n            payout += creditorAmounts[i];\n        }\n    }\n\n    function investInTheSystem() public payable{\n        profitFromCrash += msg.value;\n    }\n\n\n    //corruptElite transfers to next address \n    function inheritToNextGeneration(address payable nextGeneration) public{\n        if (msg.sender == corruptElite) {\n            corruptElite = nextGeneration;\n        } \n    }\n\n    function getCreditorAddresses() public pure returns ( address[] memory creditorAddresses ) {\n        return creditorAddresses;\n    }\n\n    function getCreditorAmounts() public pure returns ( uint[] memory creditorAmounts ) {\n        return creditorAmounts;\n    }\n\n}",
  "sourcePath": "/Users/Devesh/Desktop/Learning/games_blockchain/ponzis_pyramids/contracts/Government.sol",
  "compiler": {
    "name": "solc",
    "version": "0.6.3+commit.8dda9521.Linux.g++"
  },
  "schemaVersion": "3.3.4",
  "updatedAt": "2021-04-14T08:19:25.202Z",
  "networkType": "ethereum",
  "devdoc": {
    "methods": {}
  },
  "userdoc": {
    "methods": {}
  }
}