{
  "contractName": "Government",
  "abi": [
    {
      "inputs": [],
      "stateMutability": "payable",
      "type": "constructor"
    },
    {
      "inputs": [],
      "name": "corruptElite",
      "outputs": [
        {
          "internalType": "address payable",
          "name": "",
          "type": "address"
        }
      ],
      "stateMutability": "view",
      "type": "function"
    },
    {
      "inputs": [
        {
          "internalType": "uint256",
          "name": "",
          "type": "uint256"
        }
      ],
      "name": "creditorAddresses",
      "outputs": [
        {
          "internalType": "address payable",
          "name": "",
          "type": "address"
        }
      ],
      "stateMutability": "view",
      "type": "function"
    },
    {
      "inputs": [
        {
          "internalType": "uint256",
          "name": "",
          "type": "uint256"
        }
      ],
      "name": "creditorAmounts",
      "outputs": [
        {
          "internalType": "uint256",
          "name": "",
          "type": "uint256"
        }
      ],
      "stateMutability": "view",
      "type": "function"
    },
    {
      "inputs": [],
      "name": "lastCreditorPayedOut",
      "outputs": [
        {
          "internalType": "uint32",
          "name": "",
          "type": "uint32"
        }
      ],
      "stateMutability": "view",
      "type": "function"
    },
    {
      "inputs": [],
      "name": "lastTimeOfNewCredit",
      "outputs": [
        {
          "internalType": "uint256",
          "name": "",
          "type": "uint256"
        }
      ],
      "stateMutability": "view",
      "type": "function"
    },
    {
      "inputs": [],
      "name": "profitFromCrash",
      "outputs": [
        {
          "internalType": "uint256",
          "name": "",
          "type": "uint256"
        }
      ],
      "stateMutability": "view",
      "type": "function"
    },
    {
      "inputs": [],
      "name": "round",
      "outputs": [
        {
          "internalType": "uint8",
          "name": "",
          "type": "uint8"
        }
      ],
      "stateMutability": "view",
      "type": "function"
    },
    {
      "stateMutability": "payable",
      "type": "receive"
    },
    {
      "inputs": [
        {
          "internalType": "address payable",
          "name": "buddy",
          "type": "address"
        }
      ],
      "name": "lendGovernmentMoney",
      "outputs": [
        {
          "internalType": "bool",
          "name": "",
          "type": "bool"
        }
      ],
      "stateMutability": "payable",
      "type": "function"
    },
    {
      "inputs": [],
      "name": "totalDebt",
      "outputs": [
        {
          "internalType": "uint256",
          "name": "debt",
          "type": "uint256"
        }
      ],
      "stateMutability": "view",
      "type": "function"
    },
    {
      "inputs": [],
      "name": "totalPayedOut",
      "outputs": [
        {
          "internalType": "uint256",
          "name": "payout",
          "type": "uint256"
        }
      ],
      "stateMutability": "view",
      "type": "function"
    },
    {
      "inputs": [],
      "name": "investInTheSystem",
      "outputs": [],
      "stateMutability": "payable",
      "type": "function"
    },
    {
      "inputs": [
        {
          "internalType": "address payable",
          "name": "nextGeneration",
          "type": "address"
        }
      ],
      "name": "inheritToNextGeneration",
      "outputs": [],
      "stateMutability": "nonpayable",
      "type": "function"
    },
    {
      "inputs": [],
      "name": "getCreditorAddresses",
      "outputs": [
        {
          "internalType": "address[]",
          "name": "creditorAddresses",
          "type": "address[]"
        }
      ],
      "stateMutability": "pure",
      "type": "function"
    },
    {
      "inputs": [],
      "name": "getCreditorAmounts",
      "outputs": [
        {
          "internalType": "uint256[]",
          "name": "creditorAmounts",
          "type": "uint256[]"
        }
      ],
      "stateMutability": "pure",
      "type": "function"
    }
  ],
  "bytecode": "0x60806040523460028190555033600560006101000a81548173ffffffffffffffffffffffffffffffffffffffff021916908373ffffffffffffffffffffffffffffffffffffffff16021790555042600181905550611637806100626000396000f3fe6080604052600436106100fe576000357c010000000000000000000000000000000000000000000000000000000090048063719874da1161009c578063d3edcb5b11610076578063d3edcb5b146102b2578063d95a2d42146102dd578063f42d1d301461030d578063fc7b9c181461034a57610110565b8063719874da1461021f57806381064e2d1461024a578063ce43b0c01461027557610110565b806345941a38116100d857806345941a38146101965780634a1f0bf6146101c15780634f013184146101ea5780636831c169146101f457610110565b806309f3295714610115578063146ca531146101405780633beea6951461016b57610110565b366101105761010d6000610375565b50005b600080fd5b34801561012157600080fd5b5061012a610c8f565b6040516101379190611287565b60405180910390f35b34801561014c57600080fd5b50610155610ca3565b60405161016291906112a2565b60405180910390f35b34801561017757600080fd5b50610180610cb6565b60405161018d91906111f2565b60405180910390f35b3480156101a257600080fd5b506101ab610cdc565b6040516101b8919061126c565b60405180910390f35b3480156101cd57600080fd5b506101e860048036038101906101e3919061104b565b610ce2565b005b6101f2610d7d565b005b34801561020057600080fd5b50610209610d98565b604051610216919061126c565b60405180910390f35b34801561022b57600080fd5b50610234610e27565b604051610241919061126c565b60405180910390f35b34801561025657600080fd5b5061025f610e2d565b60405161026c919061122f565b60405180910390f35b34801561028157600080fd5b5061029c60048036038101906102979190611074565b610e32565b6040516102a991906111f2565b60405180910390f35b3480156102be57600080fd5b506102c7610e71565b6040516102d4919061120d565b60405180910390f35b6102f760048036038101906102f2919061104b565b610375565b6040516103049190611251565b60405180910390f35b34801561031957600080fd5b50610334600480360381019061032f9190611074565b610e76565b604051610341919061126c565b60405180910390f35b34801561035657600080fd5b5061035f610e9a565b60405161036c919061126c565b60405180910390f35b6000803490504261a8c060015461038c919061132f565b1015610694573373ffffffffffffffffffffffffffffffffffffffff166108fc829081150290604051600060405180830381858888f193505050501580156103d8573d6000803e3d6000fd5b50600360016003805490506103ed9190611481565b81548110610424577f4e487b7100000000000000000000000000000000000000000000000000000000600052603260045260246000fd5b9060005260206000200160009054906101000a900473ffffffffffffffffffffffffffffffffffffffff1673ffffffffffffffffffffffffffffffffffffffff166108fc6002549081150290604051600060405180830381858888f19350505050158015610496573d6000803e3d6000fd5b50600560009054906101000a900473ffffffffffffffffffffffffffffffffffffffff1673ffffffffffffffffffffffffffffffffffffffff166108fc3073ffffffffffffffffffffffffffffffffffffffff16319081150290604051600060405180830381858888f19350505050158015610516573d6000803e3d6000fd5b5060008060006101000a81548163ffffffff021916908363ffffffff160217905550426001819055506000600281905550600067ffffffffffffffff811115610588577f4e487b7100000000000000000000000000000000000000000000000000000000600052604160045260246000fd5b6040519080825280602002602001820160405280156105b65781602001602082028036833780820191505090505b50600390805190602001906105cc929190610f2d565b50600067ffffffffffffffff81111561060e577f4e487b7100000000000000000000000000000000000000000000000000000000600052604160045260246000fd5b60405190808252806020026020018201604052801561063c5781602001602082028036833780820191505090505b5060049080519060200190610652929190610fb7565b506001600760008282829054906101000a900460ff1661067291906113bf565b92506101000a81548160ff021916908360ff1602179055506000915050610c8a565b670de0b6b3a76400008110610c3d57426001819055506003339080600181540180825580915050600190039060005260206000200160009091909190916101000a81548173ffffffffffffffffffffffffffffffffffffffff021916908373ffffffffffffffffffffffffffffffffffffffff1602179055506004600a600b8361071e9190611427565b61072891906113f6565b9080600181540180825580915050600190039060005260206000200160009091909190915055600560009054906101000a900473ffffffffffffffffffffffffffffffffffffffff1673ffffffffffffffffffffffffffffffffffffffff166108fc60646005846107999190611427565b6107a391906113f6565b9081150290604051600060405180830381858888f193505050501580156107ce573d6000803e3d6000fd5b5069021e19e0c9bab240000060025410156108155760646005826107f29190611427565b6107fc91906113f6565b6002600082825461080d919061132f565b925050819055505b80600660008573ffffffffffffffffffffffffffffffffffffffff1673ffffffffffffffffffffffffffffffffffffffff16815260200190815260200160002054106108bb578273ffffffffffffffffffffffffffffffffffffffff166108fc60646005846108849190611427565b61088e91906113f6565b9081150290604051600060405180830381858888f193505050501580156108b9573d6000803e3d6000fd5b505b6064606e826108ca9190611427565b6108d491906113f6565b600660003373ffffffffffffffffffffffffffffffffffffffff1673ffffffffffffffffffffffffffffffffffffffff1681526020019081526020016000206000828254610922919061132f565b925050819055506002543073ffffffffffffffffffffffffffffffffffffffff163161094e9190611481565b600460008054906101000a900463ffffffff1663ffffffff168154811061099e577f4e487b7100000000000000000000000000000000000000000000000000000000600052603260045260246000fd5b906000526020600020015411610c3357600360008054906101000a900463ffffffff1663ffffffff16815481106109fe577f4e487b7100000000000000000000000000000000000000000000000000000000600052603260045260246000fd5b9060005260206000200160009054906101000a900473ffffffffffffffffffffffffffffffffffffffff1673ffffffffffffffffffffffffffffffffffffffff166108fc600460008054906101000a900463ffffffff1663ffffffff1681548110610a92577f4e487b7100000000000000000000000000000000000000000000000000000000600052603260045260246000fd5b90600052602060002001549081150290604051600060405180830381858888f19350505050158015610ac8573d6000803e3d6000fd5b50600460008054906101000a900463ffffffff1663ffffffff1681548110610b19577f4e487b7100000000000000000000000000000000000000000000000000000000600052603260045260246000fd5b906000526020600020015460066000600360008054906101000a900463ffffffff1663ffffffff1681548110610b78577f4e487b7100000000000000000000000000000000000000000000000000000000600052603260045260246000fd5b9060005260206000200160009054906101000a900473ffffffffffffffffffffffffffffffffffffffff1673ffffffffffffffffffffffffffffffffffffffff1673ffffffffffffffffffffffffffffffffffffffff1681526020019081526020016000206000828254610bec9190611481565b9250508190555060016000808282829054906101000a900463ffffffff16610c149190611385565b92506101000a81548163ffffffff021916908363ffffffff1602179055505b6001915050610c8a565b3373ffffffffffffffffffffffffffffffffffffffff166108fc829081150290604051600060405180830381858888f19350505050158015610c83573d6000803e3d6000fd5b5060009150505b919050565b60008054906101000a900463ffffffff1681565b600760009054906101000a900460ff1681565b600560009054906101000a900473ffffffffffffffffffffffffffffffffffffffff1681565b60015481565b600560009054906101000a900473ffffffffffffffffffffffffffffffffffffffff1673ffffffffffffffffffffffffffffffffffffffff163373ffffffffffffffffffffffffffffffffffffffff161415610d7a5780600560006101000a81548173ffffffffffffffffffffffffffffffffffffffff021916908373ffffffffffffffffffffffffffffffffffffffff1602179055505b50565b3460026000828254610d8f919061132f565b92505081905550565b600080600090505b60008054906101000a900463ffffffff1663ffffffff16811015610e235760048181548110610df8577f4e487b7100000000000000000000000000000000000000000000000000000000600052603260045260246000fd5b906000526020600020015482610e0e919061132f565b91508080610e1b9061152c565b915050610da0565b5090565b60025481565b606090565b60038181548110610e4257600080fd5b906000526020600020016000915054906101000a900473ffffffffffffffffffffffffffffffffffffffff1681565b606090565b60048181548110610e8657600080fd5b906000526020600020016000915090505481565b60008060008054906101000a900463ffffffff1663ffffffff1690505b600480549050811015610f295760048181548110610efe577f4e487b7100000000000000000000000000000000000000000000000000000000600052603260045260246000fd5b906000526020600020015482610f14919061132f565b91508080610f219061152c565b915050610eb7565b5090565b828054828255906000526020600020908101928215610fa6579160200282015b82811115610fa55782518260006101000a81548173ffffffffffffffffffffffffffffffffffffffff021916908373ffffffffffffffffffffffffffffffffffffffff16021790555091602001919060010190610f4d565b5b509050610fb39190611004565b5090565b828054828255906000526020600020908101928215610ff3579160200282015b82811115610ff2578251825591602001919060010190610fd7565b5b5090506110009190611004565b5090565b5b8082111561101d576000816000905550600101611005565b5090565b600081359050611030816115d3565b92915050565b600081359050611045816115ea565b92915050565b60006020828403121561105d57600080fd5b600061106b84828501611021565b91505092915050565b60006020828403121561108657600080fd5b600061109484828501611036565b91505092915050565b60006110a983836110dc565b60208301905092915050565b60006110c183836111b6565b60208301905092915050565b6110d6816114c7565b82525050565b6110e5816114b5565b82525050565b60006110f6826112dd565b611100818561130d565b935061110b836112bd565b8060005b8381101561113c578151611123888261109d565b975061112e836112f3565b92505060018101905061110f565b5085935050505092915050565b6000611154826112e8565b61115e818561131e565b9350611169836112cd565b8060005b8381101561119a57815161118188826110b5565b975061118c83611300565b92505060018101905061116d565b5085935050505092915050565b6111b0816114d9565b82525050565b6111bf81611505565b82525050565b6111ce81611505565b82525050565b6111dd8161150f565b82525050565b6111ec8161151f565b82525050565b600060208201905061120760008301846110cd565b92915050565b6000602082019050818103600083015261122781846110eb565b905092915050565b600060208201905081810360008301526112498184611149565b905092915050565b600060208201905061126660008301846111a7565b92915050565b600060208201905061128160008301846111c5565b92915050565b600060208201905061129c60008301846111d4565b92915050565b60006020820190506112b760008301846111e3565b92915050565b6000819050602082019050919050565b6000819050602082019050919050565b600081519050919050565b600081519050919050565b6000602082019050919050565b6000602082019050919050565b600082825260208201905092915050565b600082825260208201905092915050565b600061133a82611505565b915061134583611505565b9250827fffffffffffffffffffffffffffffffffffffffffffffffffffffffffffffffff0382111561137a57611379611575565b5b828201905092915050565b60006113908261150f565b915061139b8361150f565b92508263ffffffff038211156113b4576113b3611575565b5b828201905092915050565b60006113ca8261151f565b91506113d58361151f565b92508260ff038211156113eb576113ea611575565b5b828201905092915050565b600061140182611505565b915061140c83611505565b92508261141c5761141b6115a4565b5b828204905092915050565b600061143282611505565b915061143d83611505565b9250817fffffffffffffffffffffffffffffffffffffffffffffffffffffffffffffffff048311821515161561147657611475611575565b5b828202905092915050565b600061148c82611505565b915061149783611505565b9250828210156114aa576114a9611575565b5b828203905092915050565b60006114c0826114e5565b9050919050565b60006114d2826114e5565b9050919050565b60008115159050919050565b600073ffffffffffffffffffffffffffffffffffffffff82169050919050565b6000819050919050565b600063ffffffff82169050919050565b600060ff82169050919050565b600061153782611505565b91507fffffffffffffffffffffffffffffffffffffffffffffffffffffffffffffffff82141561156a57611569611575565b5b600182019050919050565b7f4e487b7100000000000000000000000000000000000000000000000000000000600052601160045260246000fd5b7f4e487b7100000000000000000000000000000000000000000000000000000000600052601260045260246000fd5b6115dc816114c7565b81146115e757600080fd5b50565b6115f381611505565b81146115fe57600080fd5b5056fea2646970667358221220fa8b88306fa69dec1b88d509423f62dedb15c3868ec6cd49efd98ac431f5363a64736f6c63430008030033",
  "immutableReferences": {},
  "source": "// SPDX-License-Identifier: MIT\npragma solidity ^0.8.1;\n\ncontract Government {\n    // Global Variables\n    uint32 public lastCreditorPayedOut;\n    uint256 public lastTimeOfNewCredit;\n    uint256 public profitFromCrash;\n    address payable[] public creditorAddresses;\n    uint256[] public creditorAmounts;\n    address payable public corruptElite;\n    mapping(address => uint256) buddies;\n    uint256 constant TWELVE_HOURS = 43200;\n    uint8 public round;\n\n    constructor() payable {\n        //setup of elites promise by amount\n        profitFromCrash = msg.value;\n        //sets the initiator as a corruptElite\n        corruptElite = payable(msg.sender);\n        //sets lastTimeOfNewCredit\n        lastTimeOfNewCredit = block.timestamp;\n    }\n\n    function lendGovernmentMoney(address payable buddy)\n        public\n        payable\n        returns (bool)\n    {\n        uint256 amount = msg.value;\n        /* \n        check if the system already broke down. If for 12h no \n        new creditor gives new credit to the system it will brake down\n        */\n        if (lastTimeOfNewCredit + TWELVE_HOURS < block.timestamp) {\n            // Return money to sender\n            payable(msg.sender).transfer(amount);\n            creditorAddresses[creditorAddresses.length - 1].transfer(\n                profitFromCrash\n            );\n            corruptElite.transfer(address(this).balance);\n\n            //Reset contract state\n            lastCreditorPayedOut = 0;\n            lastTimeOfNewCredit = block.timestamp;\n            profitFromCrash = 0;\n            creditorAddresses = new address payable[](0);\n            creditorAmounts = new uint256[](0);\n            round += 1;\n            return false;\n        } else {\n            /* \n             the system needs to collect at least 1% of the profit // from a crash to stay alive \n            */\n            if (amount >= 10**18) {\n                // the System has received fresh money, it will survive at least 12h more\n                lastTimeOfNewCredit = block.timestamp;\n                // register the new creditor and his amount with 10% interest rate\n                creditorAddresses.push(payable(msg.sender));\n                creditorAmounts.push((amount * 11) / 10);\n                // now the money is distributed first the corrupt elite grabs 5% - thieves!\n                corruptElite.transfer((amount * 5) / 100);\n                // 5% are going into the economy (they will increase the value for the person seeing the crash coming)\n                //check weather profitfromCrash < 10000 ether\n                if (profitFromCrash < 10000 * 10**18) {\n                    profitFromCrash += (amount * 5) / 100;\n                }\n                // if you have a buddy in the government (and he is in the creditor list) he can get 5% of your credits.\n                // Make a deal with him.\n                if (buddies[buddy] >= amount) {\n                    buddy.transfer((amount * 5) / 100);\n                }\n                buddies[msg.sender] += (amount * 110) / 100;\n                // 90% of the money will be used to pay out old creditors\n                if (\n                    creditorAmounts[lastCreditorPayedOut] <=\n                    address(this).balance - profitFromCrash\n                ) {\n                    creditorAddresses[lastCreditorPayedOut].transfer(\n                        creditorAmounts[lastCreditorPayedOut]\n                    );\n                    buddies[\n                        creditorAddresses[lastCreditorPayedOut]\n                    ] -= creditorAmounts[lastCreditorPayedOut];\n                    lastCreditorPayedOut += 1;\n                }\n                return true;\n            } else {\n                payable(msg.sender).transfer(amount);\n                return false;\n            }\n        }\n    }\n\n    receive() external payable {\n        lendGovernmentMoney(payable(address(0)));\n    }\n\n    function totalDebt() public view returns (uint256 debt) {\n        for (\n            uint256 i = lastCreditorPayedOut;\n            i < creditorAmounts.length;\n            i++\n        ) {\n            debt += creditorAmounts[i];\n        }\n    }\n\n    function totalPayedOut() public view returns (uint256 payout) {\n        for (uint256 i = 0; i < lastCreditorPayedOut; i++) {\n            payout += creditorAmounts[i];\n        }\n    }\n\n    function investInTheSystem() public payable {\n        profitFromCrash += msg.value;\n    }\n\n    //corruptElite transfers to next address\n    function inheritToNextGeneration(address payable nextGeneration) public {\n        if (msg.sender == corruptElite) {\n            corruptElite = nextGeneration;\n        }\n    }\n\n    function getCreditorAddresses()\n        public\n        pure\n        returns (address[] memory creditorAddresses)\n    {\n        return creditorAddresses;\n    }\n\n    function getCreditorAmounts()\n        public\n        pure\n        returns (uint256[] memory creditorAmounts)\n    {\n        return creditorAmounts;\n    }\n}\n",
  "sourcePath": "/Users/deveshrawat/Desktop/MyApps/learn_solidity/solidity_contracts/ponzis_pyramids/contracts/Government.sol",
  "compiler": {
    "name": "solc",
    "version": "0.8.3+commit.8d00100c.Linux.g++"
  },
  "schemaVersion": "3.4.5",
  "updatedAt": "2022-02-21T14:04:38.277Z",
  "devdoc": {
    "kind": "dev",
    "methods": {},
    "version": 1
  },
  "userdoc": {
    "kind": "user",
    "methods": {},
    "version": 1
  }
}