{
  "contractName": "GradualPonzi",
  "abi": [
    {
      "inputs": [],
      "stateMutability": "nonpayable",
      "type": "constructor"
    },
    {
      "inputs": [],
      "name": "MINIMUM_INVESTMENT",
      "outputs": [
        {
          "internalType": "uint256",
          "name": "",
          "type": "uint256"
        }
      ],
      "stateMutability": "view",
      "type": "function",
      "constant": true
    },
    {
      "inputs": [
        {
          "internalType": "address",
          "name": "",
          "type": "address"
        }
      ],
      "name": "balances",
      "outputs": [
        {
          "internalType": "uint256",
          "name": "",
          "type": "uint256"
        }
      ],
      "stateMutability": "view",
      "type": "function",
      "constant": true
    },
    {
      "inputs": [
        {
          "internalType": "uint256",
          "name": "",
          "type": "uint256"
        }
      ],
      "name": "investors",
      "outputs": [
        {
          "internalType": "address payable",
          "name": "",
          "type": "address"
        }
      ],
      "stateMutability": "view",
      "type": "function",
      "constant": true
    },
    {
      "stateMutability": "payable",
      "type": "receive",
      "payable": true
    },
    {
      "inputs": [],
      "name": "withdraw",
      "outputs": [],
      "stateMutability": "nonpayable",
      "type": "function"
    }
  ],
  "bytecode": "0x608060405234801561001057600080fd5b506000339080600181540180825580915050600190039060005260206000200160009091909190916101000a81548173ffffffffffffffffffffffffffffffffffffffff021916908373ffffffffffffffffffffffffffffffffffffffff160217905550610489806100836000396000f3fe608060405260043610610060576000357c01000000000000000000000000000000000000000000000000000000009004806327e235e3146101e15780633ccfd60b146102465780633feb5f2b1461025d5780638a4660fe146102d8576101dc565b366101dc57620186a034116100c0576040517f08c379a00000000000000000000000000000000000000000000000000000000081526004018080602001828103825260228152602001806104326022913960400191505060405180910390fd5b6000808054905034816100cf57fe5b04905060008090505b6000805490508110156101755781600160008084815481106100f657fe5b9060005260206000200160009054906101000a900473ffffffffffffffffffffffffffffffffffffffff1673ffffffffffffffffffffffffffffffffffffffff1673ffffffffffffffffffffffffffffffffffffffff1681526020019081526020016000206000828254019250508190555080806001019150506100d8565b506000339080600181540180825580915050600190039060005260206000200160009091909190916101000a81548173ffffffffffffffffffffffffffffffffffffffff021916908373ffffffffffffffffffffffffffffffffffffffff16021790555050005b600080fd5b3480156101ed57600080fd5b506102306004803603602081101561020457600080fd5b81019080803573ffffffffffffffffffffffffffffffffffffffff169060200190929190505050610303565b6040518082815260200191505060405180910390f35b34801561025257600080fd5b5061025b61031b565b005b34801561026957600080fd5b506102966004803603602081101561028057600080fd5b81019080803590602001909291905050506103ee565b604051808273ffffffffffffffffffffffffffffffffffffffff1673ffffffffffffffffffffffffffffffffffffffff16815260200191505060405180910390f35b3480156102e457600080fd5b506102ed61042a565b6040518082815260200191505060405180910390f35b60016020528060005260406000206000915090505481565b6000600160003373ffffffffffffffffffffffffffffffffffffffff1673ffffffffffffffffffffffffffffffffffffffff1681526020019081526020016000205490506000600160003373ffffffffffffffffffffffffffffffffffffffff1673ffffffffffffffffffffffffffffffffffffffff168152602001908152602001600020819055503373ffffffffffffffffffffffffffffffffffffffff166108fc829081150290604051600060405180830381858888f193505050501580156103ea573d6000803e3d6000fd5b5050565b600081815481106103fb57fe5b906000526020600020016000915054906101000a900473ffffffffffffffffffffffffffffffffffffffff1681565b620186a08156fe4f6e6c79206f776e65722063616e2063616c6c20746869732066756e6374696f6e2ea26469706673582212206978225ef1beaad4d979a87af4d8982d3b757ac67d921d2f96df99ef4d654d9764736f6c63430006030033",
  "source": "pragma solidity ^0.6.1;\n\ncontract GradualPonzi {\n    address payable [] public investors;\n    mapping (address => uint) public balances;\n    uint public constant MINIMUM_INVESTMENT = 1e5;\n\n    constructor() public {\n        investors.push(msg.sender);\n    }\n\n     function withdraw () public {\n        uint payout = balances[msg.sender];\n        balances[msg.sender] =0;\n        msg.sender.transfer(payout);\n    }\n\n    receive() external payable {\n        require(msg.value > MINIMUM_INVESTMENT,\"Only owner can call this function.\");\n        uint eachInvetorGets = msg.value/investors.length;\n        for (uint index = 0; index < investors.length; index++) {\n            balances[investors[index]] += eachInvetorGets;\n        }   \n        investors.push(msg.sender);\n    }\n}\n\n// web3.eth.sendTransaction({ from: accounts[1], to:ponzi.address, value: 1e15, gas: 200e3 })\n\n// web3.eth.sendTransaction({from: '0x6aFdb8B57f9e44A4e2EC4fCED98E4A9b52b68d23',to:'0x208B2EA2f89760151D2c3c07498eE2fc3cd47779' ,value: '1000000000000000000'})\n\n\n\n//   '0x6aFdb8B57f9e44A4e2EC4fCED98E4A9b52b68d23',\n//   '0x59a20A47Aff69ba7bB3cec71232D79ec27CE3fd8',\n//   '0x8412F373b75e0fafB5036c5DAFDc4d4382524897',\n//   '0xA9E2080bA758d0B5148BeD6E55A6fC66515beACe',\n//   '0x9b62c5AbE0d920f7b254E1fA85c33Ce946a87903',\n//   '0xa235564571f78FF04BBbe534CA246B27eac79218',\n//   '0x6AA38792d33404fefE50070fe349bECe2A0E4FA4',\n//   '0x701cF55dD2959dA887E66b7e5E627411979a26AB',\n//   '0x6e4eDecf00aEC6a048Ec3A27469CB22A8f3Bcd97',\n//   '0x228F7899f38bf9e1E33F5F72Eb9E87e0FFF6EA12',\n//   '0x0079c49e05538CB17228Dc1753a193dbc605D725',\n//   '0x559BEbee560B7a1027ff973f1bAF7E433EA399d7',\n//   '0x0EFE0F993F740b682B6f7DBd391f06F1A32083CB',\n//   '0xD4bae5C269a67033623dd330CEAe7C3636b8cD3e',\n//   '0xDF37942DF6f9097a59047BafdbB2aa9B896a5547',\n//   '0xBdBAa2d85065a2B85d2e7cfbddB1F490f6a6037F'",
  "sourcePath": "/Users/Devesh/Desktop/Learning/games_blockchain/ponzis_pyramids/contracts/GradualPonzi.sol",
  "compiler": {
    "name": "solc",
    "version": "0.6.3+commit.8dda9521.Linux.g++"
  },
  "schemaVersion": "3.3.4",
  "updatedAt": "2021-04-14T08:19:25.194Z",
  "networkType": "ethereum",
  "devdoc": {
    "methods": {}
  },
  "userdoc": {
    "methods": {}
  }
}