{
  "contractName": "GradualPonzi",
  "abi": [
    {
      "inputs": [],
      "stateMutability": "nonpayable",
      "type": "constructor"
    },
    {
      "inputs": [],
      "name": "MINIMUM_INVESTMENT",
      "outputs": [
        {
          "internalType": "uint256",
          "name": "",
          "type": "uint256"
        }
      ],
      "stateMutability": "view",
      "type": "function"
    },
    {
      "inputs": [
        {
          "internalType": "address",
          "name": "",
          "type": "address"
        }
      ],
      "name": "balances",
      "outputs": [
        {
          "internalType": "uint256",
          "name": "",
          "type": "uint256"
        }
      ],
      "stateMutability": "view",
      "type": "function"
    },
    {
      "inputs": [
        {
          "internalType": "uint256",
          "name": "",
          "type": "uint256"
        }
      ],
      "name": "investors",
      "outputs": [
        {
          "internalType": "address payable",
          "name": "",
          "type": "address"
        }
      ],
      "stateMutability": "view",
      "type": "function"
    },
    {
      "stateMutability": "payable",
      "type": "receive"
    },
    {
      "inputs": [],
      "name": "withdraw",
      "outputs": [],
      "stateMutability": "nonpayable",
      "type": "function"
    }
  ],
  "bytecode": "0x608060405234801561001057600080fd5b506000339080600181540180825580915050600190039060005260206000200160009091909190916101000a81548173ffffffffffffffffffffffffffffffffffffffff021916908373ffffffffffffffffffffffffffffffffffffffff160217905550610746806100836000396000f3fe608060405260043610610060576000357c01000000000000000000000000000000000000000000000000000000009004806327e235e3146102065780633ccfd60b146102435780633feb5f2b1461025a5780638a4660fe1461029757610201565b3661020157620186a034116100aa576040517f08c379a00000000000000000000000000000000000000000000000000000000081526004016100a1906104cb565b60405180910390fd5b60008080549050346100bc919061056d565b905060005b60008054905081101561019a57816001600080848154811061010c577f4e487b7100000000000000000000000000000000000000000000000000000000600052603260045260246000fd5b9060005260206000200160009054906101000a900473ffffffffffffffffffffffffffffffffffffffff1673ffffffffffffffffffffffffffffffffffffffff1673ffffffffffffffffffffffffffffffffffffffff16815260200190815260200160002060008282546101809190610517565b925050819055508080610192906105ec565b9150506100c1565b506000339080600181540180825580915050600190039060005260206000200160009091909190916101000a81548173ffffffffffffffffffffffffffffffffffffffff021916908373ffffffffffffffffffffffffffffffffffffffff16021790555050005b600080fd5b34801561021257600080fd5b5061022d6004803603810190610228919061041d565b6102c2565b60405161023a91906104eb565b60405180910390f35b34801561024f57600080fd5b506102586102da565b005b34801561026657600080fd5b50610281600480360381019061027c9190610446565b6103ad565b60405161028e91906104b0565b60405180910390f35b3480156102a357600080fd5b506102ac6103ec565b6040516102b991906104eb565b60405180910390f35b60016020528060005260406000206000915090505481565b6000600160003373ffffffffffffffffffffffffffffffffffffffff1673ffffffffffffffffffffffffffffffffffffffff1681526020019081526020016000205490506000600160003373ffffffffffffffffffffffffffffffffffffffff1673ffffffffffffffffffffffffffffffffffffffff168152602001908152602001600020819055503373ffffffffffffffffffffffffffffffffffffffff166108fc829081150290604051600060405180830381858888f193505050501580156103a9573d6000803e3d6000fd5b5050565b600081815481106103bd57600080fd5b906000526020600020016000915054906101000a900473ffffffffffffffffffffffffffffffffffffffff1681565b620186a081565b600081359050610402816106e2565b92915050565b600081359050610417816106f9565b92915050565b60006020828403121561042f57600080fd5b600061043d848285016103f3565b91505092915050565b60006020828403121561045857600080fd5b600061046684828501610408565b91505092915050565b610478816105b0565b82525050565b600061048b602283610506565b915061049682610693565b604082019050919050565b6104aa816105e2565b82525050565b60006020820190506104c5600083018461046f565b92915050565b600060208201905081810360008301526104e48161047e565b9050919050565b600060208201905061050060008301846104a1565b92915050565b600082825260208201905092915050565b6000610522826105e2565b915061052d836105e2565b9250827fffffffffffffffffffffffffffffffffffffffffffffffffffffffffffffffff0382111561056257610561610635565b5b828201905092915050565b6000610578826105e2565b9150610583836105e2565b92508261059357610592610664565b5b828204905092915050565b60006105a9826105c2565b9050919050565b60006105bb826105c2565b9050919050565b600073ffffffffffffffffffffffffffffffffffffffff82169050919050565b6000819050919050565b60006105f7826105e2565b91507fffffffffffffffffffffffffffffffffffffffffffffffffffffffffffffffff82141561062a57610629610635565b5b600182019050919050565b7f4e487b7100000000000000000000000000000000000000000000000000000000600052601160045260246000fd5b7f4e487b7100000000000000000000000000000000000000000000000000000000600052601260045260246000fd5b7f4f6e6c79206f776e65722063616e2063616c6c20746869732066756e6374696f60008201527f6e2e000000000000000000000000000000000000000000000000000000000000602082015250565b6106eb8161059e565b81146106f657600080fd5b50565b610702816105e2565b811461070d57600080fd5b5056fea2646970667358221220611416f51974854782a5393f25862cf880a7dc2aa445de3bcbf76b181c06ef5d64736f6c63430008030033",
  "immutableReferences": {},
  "source": "// SPDX-License-Identifier: MIT\npragma solidity ^0.8.1;\n\ncontract GradualPonzi {\n    address payable[] public investors;\n    mapping(address => uint256) public balances;\n    uint256 public constant MINIMUM_INVESTMENT = 1e5;\n\n    constructor() {\n        investors.push(payable(msg.sender));\n    }\n\n    function withdraw() public {\n        uint256 payout = balances[msg.sender];\n        balances[msg.sender] = 0;\n        payable(msg.sender).transfer(payout);\n    }\n\n    receive() external payable {\n        require(\n            msg.value > MINIMUM_INVESTMENT,\n            \"Only owner can call this function.\"\n        );\n        uint256 eachInvetorGets = msg.value / investors.length;\n        for (uint256 index = 0; index < investors.length; index++) {\n            balances[investors[index]] += eachInvetorGets;\n        }\n        investors.push(payable(msg.sender));\n    }\n}\n",
  "sourcePath": "/Users/deveshrawat/Desktop/MyApps/learn_solidity/solidity_contracts/ponzis_pyramids/contracts/GradualPonzi.sol",
  "compiler": {
    "name": "solc",
    "version": "0.8.3+commit.8d00100c.Linux.g++"
  },
  "schemaVersion": "3.4.5",
  "updatedAt": "2022-02-21T14:04:38.284Z",
  "devdoc": {
    "kind": "dev",
    "methods": {},
    "version": 1
  },
  "userdoc": {
    "kind": "user",
    "methods": {},
    "version": 1
  }
}