{
  "contractName": "SimplePyramid",
  "abi": [
    {
      "inputs": [],
      "stateMutability": "payable",
      "type": "constructor",
      "payable": true
    },
    {
      "inputs": [],
      "name": "MINIMUM_INVESTMENT",
      "outputs": [
        {
          "internalType": "uint256",
          "name": "",
          "type": "uint256"
        }
      ],
      "stateMutability": "view",
      "type": "function",
      "constant": true
    },
    {
      "inputs": [
        {
          "internalType": "address",
          "name": "",
          "type": "address"
        }
      ],
      "name": "balances",
      "outputs": [
        {
          "internalType": "uint256",
          "name": "",
          "type": "uint256"
        }
      ],
      "stateMutability": "view",
      "type": "function",
      "constant": true
    },
    {
      "inputs": [],
      "name": "depth",
      "outputs": [
        {
          "internalType": "uint256",
          "name": "",
          "type": "uint256"
        }
      ],
      "stateMutability": "view",
      "type": "function",
      "constant": true
    },
    {
      "inputs": [
        {
          "internalType": "uint256",
          "name": "",
          "type": "uint256"
        }
      ],
      "name": "investors",
      "outputs": [
        {
          "internalType": "address",
          "name": "",
          "type": "address"
        }
      ],
      "stateMutability": "view",
      "type": "function",
      "constant": true
    },
    {
      "inputs": [],
      "name": "numInvestors",
      "outputs": [
        {
          "internalType": "uint256",
          "name": "",
          "type": "uint256"
        }
      ],
      "stateMutability": "view",
      "type": "function",
      "constant": true
    },
    {
      "inputs": [],
      "name": "pyramidLevel",
      "outputs": [
        {
          "internalType": "uint256",
          "name": "",
          "type": "uint256"
        }
      ],
      "stateMutability": "view",
      "type": "function",
      "constant": true
    },
    {
      "stateMutability": "payable",
      "type": "receive",
      "payable": true
    },
    {
      "inputs": [],
      "name": "withdraw",
      "outputs": [],
      "stateMutability": "nonpayable",
      "type": "function"
    }
  ],
  "bytecode": "0x608060405260008055600060015566038d7ea4c6800034101561006d576040517f08c379a00000000000000000000000000000000000000000000000000000000081526004018080602001828103825260218152602001806108166021913960400191505060405180910390fd5b600380819055506002339080600181540180825580915050600190039060005260206000200160009091909190916101000a81548173ffffffffffffffffffffffffffffffffffffffff021916908373ffffffffffffffffffffffffffffffffffffffff16021790555060016000819055506001808190555034600460003073ffffffffffffffffffffffffffffffffffffffff1673ffffffffffffffffffffffffffffffffffffffff168152602001908152602001600020819055506106dd806101396000396000f3fe608060405260043610610091576000357c0100000000000000000000000000000000000000000000000000000000900480633feb5f2b1161006b5780633feb5f2b14610446578063631c56ef146104c15780638a4660fe146104ec578063935ba542146105175761039a565b8063132ae5e91461039f57806327e235e3146103ca5780633ccfd60b1461042f5761039a565b3661039a5766038d7ea4c680003410156100f6576040517f08c379a00000000000000000000000000000000000000000000000000000000081526004018080602001828103825260218152602001806106876021913960400191505060405180910390fd5b34600460003073ffffffffffffffffffffffffffffffffffffffff1673ffffffffffffffffffffffffffffffffffffffff1681526020019081526020016000206000828254019250508190555060016000808282540192505081905550600354600054141561039857600060015460020a6000540390506000600180540360020a8203905060008190505b828110156102215766038d7ea4c6800060046000600284815481106101a257fe5b9060005260206000200160009054906101000a900473ffffffffffffffffffffffffffffffffffffffff1673ffffffffffffffffffffffffffffffffffffffff1673ffffffffffffffffffffffffffffffffffffffff168152602001908152602001600020600082825401925050819055508080600101915050610181565b506000600180540360020a66038d7ea4c680000290506000805482600460003073ffffffffffffffffffffffffffffffffffffffff1673ffffffffffffffffffffffffffffffffffffffff16815260200190815260200160002054038161028457fe5b04905060008090505b600054811015610328578160046000600284815481106102a957fe5b9060005260206000200160009054906101000a900473ffffffffffffffffffffffffffffffffffffffff1673ffffffffffffffffffffffffffffffffffffffff1673ffffffffffffffffffffffffffffffffffffffff16815260200190815260200160002060008282540192505081905550808060010191505061028d565b506000600460003073ffffffffffffffffffffffffffffffffffffffff1673ffffffffffffffffffffffffffffffffffffffff168152602001908152602001600020819055506001806000828254019250508190555060015460020a600360008282540192505081905550505050505b005b600080fd5b3480156103ab57600080fd5b506103b4610542565b6040518082815260200191505060405180910390f35b3480156103d657600080fd5b50610419600480360360208110156103ed57600080fd5b81019080803573ffffffffffffffffffffffffffffffffffffffff169060200190929190505050610548565b6040518082815260200191505060405180910390f35b34801561043b57600080fd5b50610444610560565b005b34801561045257600080fd5b5061047f6004803603602081101561046957600080fd5b8101908080359060200190929190505050610633565b604051808273ffffffffffffffffffffffffffffffffffffffff1673ffffffffffffffffffffffffffffffffffffffff16815260200191505060405180910390f35b3480156104cd57600080fd5b506104d661066f565b6040518082815260200191505060405180910390f35b3480156104f857600080fd5b50610501610675565b6040518082815260200191505060405180910390f35b34801561052357600080fd5b5061052c610680565b6040518082815260200191505060405180910390f35b60005481565b60046020528060005260406000206000915090505481565b6000600460003373ffffffffffffffffffffffffffffffffffffffff1673ffffffffffffffffffffffffffffffffffffffff1681526020019081526020016000205490506000600460003373ffffffffffffffffffffffffffffffffffffffff1673ffffffffffffffffffffffffffffffffffffffff168152602001908152602001600020819055503373ffffffffffffffffffffffffffffffffffffffff166108fc829081150290604051600060405180830381858888f1935050505015801561062f573d6000803e3d6000fd5b5050565b6002818154811061064057fe5b906000526020600020016000915054906101000a900473ffffffffffffffffffffffffffffffffffffffff1681565b60015481565b66038d7ea4c6800081565b6003548156fe56616c756573206d757374206d652067726561746572746865656e20316531352ea264697066735822122062814e5f12970e0d07071ecce3e835d33af7faa4ba0715d91390e2c2ee6b5dba64736f6c6343000603003356616c756573206d757374206d652067726561746572207468656e20316531352e",
  "source": "pragma solidity ^0.6.1;\n\ncontract SimplePyramid {\n    uint public constant MINIMUM_INVESTMENT = 1e15;\n    uint public numInvestors = 0;\n    uint public depth = 0;\n    address[] public investors;\n    uint public pyramidLevel;\n    mapping(address => uint) public balances;\n\n    constructor() public payable{\n        require(msg.value >= MINIMUM_INVESTMENT,'Values must me greater then 1e15.');\n        pyramidLevel =3;\n        investors.push(msg.sender);\n        numInvestors = 1;\n        depth = 1;\n        balances[address(this)] = msg.value;\n    }\n\n    receive() external payable {\n        require(msg.value >= MINIMUM_INVESTMENT,'Values must me greatertheen 1e15.');\n        balances[address(this)] += msg.value;\n        numInvestors += 1;\n        if(numInvestors == pyramidLevel){\n            uint endIndex = numInvestors - 2**depth;\n            uint startIndex = endIndex - 2**(depth-1);\n            for (uint index = startIndex; index < endIndex; index++) {\n                balances[investors[index]] += MINIMUM_INVESTMENT;\n            }\n            uint paid = MINIMUM_INVESTMENT * 2**(depth-1);\n            uint eachInvestorGets = (balances[address(this)]- paid) / numInvestors;\n\n            for(uint i = 0; i < numInvestors; i++){\n                balances[investors[i]] += eachInvestorGets;\n            }\n            balances[address(this)] = 0;\n            depth += 1;\n            pyramidLevel += 2**depth;\n        }\n    }\n\n    function withdraw () public {\n        uint payout = balances[msg.sender];\n        balances[msg.sender] = 0;\n        msg.sender.transfer(payout);\n    }\n} ",
  "sourcePath": "/Users/Devesh/Desktop/Learning/games_blockchain/ponzis_pyramids/contracts/SimplePyramid.sol",
  "compiler": {
    "name": "solc",
    "version": "0.6.3+commit.8dda9521.Linux.g++"
  },
  "schemaVersion": "3.3.4",
  "updatedAt": "2021-04-14T08:19:25.197Z",
  "networkType": "ethereum",
  "devdoc": {
    "methods": {}
  },
  "userdoc": {
    "methods": {}
  }
}