{
  "contractName": "SimplePonzi",
  "abi": [
    {
      "inputs": [],
      "name": "currentInvestment",
      "outputs": [
        {
          "internalType": "uint256",
          "name": "",
          "type": "uint256"
        }
      ],
      "stateMutability": "view",
      "type": "function"
    },
    {
      "inputs": [],
      "name": "currentInvestor",
      "outputs": [
        {
          "internalType": "address payable",
          "name": "",
          "type": "address"
        }
      ],
      "stateMutability": "view",
      "type": "function"
    },
    {
      "stateMutability": "payable",
      "type": "receive"
    }
  ],
  "bytecode": "0x6080604052600060015534801561001557600080fd5b50610366806100256000396000f3fe60806040526004361061004a576000357c010000000000000000000000000000000000000000000000000000000090048063523e27d414610137578063b2667cd01461016257610132565b36610132576000600a600b600154610062919061023c565b61006c919061020b565b905080341161007a57600080fd5b60008060009054906101000a900473ffffffffffffffffffffffffffffffffffffffff169050336000806101000a81548173ffffffffffffffffffffffffffffffffffffffff021916908373ffffffffffffffffffffffffffffffffffffffff160217905550346001819055508073ffffffffffffffffffffffffffffffffffffffff166108fc349081150290604051600060405180830381858888f1935050505015801561012d573d6000803e3d6000fd5b505050005b600080fd5b34801561014357600080fd5b5061014c61018d565b60405161015991906101d5565b60405180910390f35b34801561016e57600080fd5b506101776101b1565b60405161018491906101f0565b60405180910390f35b60008054906101000a900473ffffffffffffffffffffffffffffffffffffffff1681565b60015481565b6101c081610296565b82525050565b6101cf816102c8565b82525050565b60006020820190506101ea60008301846101b7565b92915050565b600060208201905061020560008301846101c6565b92915050565b6000610216826102c8565b9150610221836102c8565b92508261023157610230610301565b5b828204905092915050565b6000610247826102c8565b9150610252836102c8565b9250817fffffffffffffffffffffffffffffffffffffffffffffffffffffffffffffffff048311821515161561028b5761028a6102d2565b5b828202905092915050565b60006102a1826102a8565b9050919050565b600073ffffffffffffffffffffffffffffffffffffffff82169050919050565b6000819050919050565b7f4e487b7100000000000000000000000000000000000000000000000000000000600052601160045260246000fd5b7f4e487b7100000000000000000000000000000000000000000000000000000000600052601260045260246000fdfea2646970667358221220b29deb7db811697f291026f2970e5e4400eed85f2964e26cdbb143abd194a68a64736f6c63430008030033",
  "immutableReferences": {},
  "source": "// SPDX-License-Identifier: MIT\npragma solidity ^0.8.1;\n\ncontract SimplePonzi {\n    address payable public currentInvestor;\n    uint256 public currentInvestment = 0;\n\n    receive() external payable {\n        uint256 minimumInsvestment = (currentInvestment * 11) / 10;\n        require(msg.value > minimumInsvestment);\n\n        address payable previousInvestor = currentInvestor;\n        currentInvestor = payable(msg.sender);\n        currentInvestment = msg.value;\n\n        previousInvestor.transfer(msg.value);\n    }\n}\n",
  "sourcePath": "/Users/deveshrawat/Desktop/MyApps/learn_solidity/solidity_contracts/ponzis_pyramids/contracts/SimplePonzi.sol",
  "compiler": {
    "name": "solc",
    "version": "0.8.3+commit.8d00100c.Linux.g++"
  },
  "schemaVersion": "3.4.5",
  "updatedAt": "2022-02-21T14:04:38.286Z",
  "devdoc": {
    "kind": "dev",
    "methods": {},
    "version": 1
  },
  "userdoc": {
    "kind": "user",
    "methods": {},
    "version": 1
  }
}