{
  "contractName": "SimplePyramid",
  "abi": [
    {
      "inputs": [],
      "stateMutability": "payable",
      "type": "constructor"
    },
    {
      "inputs": [],
      "name": "MINIMUM_INVESTMENT",
      "outputs": [
        {
          "internalType": "uint256",
          "name": "",
          "type": "uint256"
        }
      ],
      "stateMutability": "view",
      "type": "function"
    },
    {
      "inputs": [
        {
          "internalType": "address",
          "name": "",
          "type": "address"
        }
      ],
      "name": "balances",
      "outputs": [
        {
          "internalType": "uint256",
          "name": "",
          "type": "uint256"
        }
      ],
      "stateMutability": "view",
      "type": "function"
    },
    {
      "inputs": [],
      "name": "depth",
      "outputs": [
        {
          "internalType": "uint256",
          "name": "",
          "type": "uint256"
        }
      ],
      "stateMutability": "view",
      "type": "function"
    },
    {
      "inputs": [
        {
          "internalType": "uint256",
          "name": "",
          "type": "uint256"
        }
      ],
      "name": "investors",
      "outputs": [
        {
          "internalType": "address",
          "name": "",
          "type": "address"
        }
      ],
      "stateMutability": "view",
      "type": "function"
    },
    {
      "inputs": [],
      "name": "numInvestors",
      "outputs": [
        {
          "internalType": "uint256",
          "name": "",
          "type": "uint256"
        }
      ],
      "stateMutability": "view",
      "type": "function"
    },
    {
      "inputs": [],
      "name": "pyramidLevel",
      "outputs": [
        {
          "internalType": "uint256",
          "name": "",
          "type": "uint256"
        }
      ],
      "stateMutability": "view",
      "type": "function"
    },
    {
      "stateMutability": "payable",
      "type": "receive"
    },
    {
      "inputs": [],
      "name": "withdraw",
      "outputs": [],
      "stateMutability": "nonpayable",
      "type": "function"
    }
  ],
  "bytecode": "0x608060405260008055600060015566038d7ea4c68000341015610057576040517f08c379a000000000000000000000000000000000000000000000000000000000815260040161004e9061013c565b60405180910390fd5b600380819055506002339080600181540180825580915050600190039060005260206000200160009091909190916101000a81548173ffffffffffffffffffffffffffffffffffffffff021916908373ffffffffffffffffffffffffffffffffffffffff16021790555060016000819055506001808190555034600460003073ffffffffffffffffffffffffffffffffffffffff1673ffffffffffffffffffffffffffffffffffffffff168152602001908152602001600020819055506101bc565b600061012660218361015c565b91506101318261016d565b604082019050919050565b6000602082019050818103600083015261015581610119565b9050919050565b600082825260208201905092915050565b7f56616c756573206d757374206d652067726561746572207468656e203165313560008201527f2e00000000000000000000000000000000000000000000000000000000000000602082015250565b610c4f806101cb6000396000f3fe608060405260043610610091576000357c0100000000000000000000000000000000000000000000000000000000900480633feb5f2b1161006b5780633feb5f2b146104fd578063631c56ef1461053a5780638a4660fe14610565578063935ba5421461059057610479565b8063132ae5e91461047e57806327e235e3146104a95780633ccfd60b146104e657610479565b366104795766038d7ea4c680003410156100e0576040517f08c379a00000000000000000000000000000000000000000000000000000000081526004016100d7906107da565b60405180910390fd5b34600460003073ffffffffffffffffffffffffffffffffffffffff1673ffffffffffffffffffffffffffffffffffffffff168152602001908152602001600020600082825461012f9190610826565b9250508190555060016000808282546101489190610826565b925050819055506003546000541415610477576000600154600261016c9190610900565b6000546101799190610a78565b905060006001805461018b9190610a78565b60026101979190610900565b826101a29190610a78565b905060008190505b828110156102865766038d7ea4c6800060046000600284815481106101f8577f4e487b7100000000000000000000000000000000000000000000000000000000600052603260045260246000fd5b9060005260206000200160009054906101000a900473ffffffffffffffffffffffffffffffffffffffff1673ffffffffffffffffffffffffffffffffffffffff1673ffffffffffffffffffffffffffffffffffffffff168152602001908152602001600020600082825461026c9190610826565b92505081905550808061027e90610ae8565b9150506101aa565b506000600180546102979190610a78565b60026102a39190610900565b66038d7ea4c680006102b59190610a1e565b90506000805482600460003073ffffffffffffffffffffffffffffffffffffffff1673ffffffffffffffffffffffffffffffffffffffff168152602001908152602001600020546103069190610a78565b610310919061087c565b905060005b6000548110156103ec5781600460006002848154811061035e577f4e487b7100000000000000000000000000000000000000000000000000000000600052603260045260246000fd5b9060005260206000200160009054906101000a900473ffffffffffffffffffffffffffffffffffffffff1673ffffffffffffffffffffffffffffffffffffffff1673ffffffffffffffffffffffffffffffffffffffff16815260200190815260200160002060008282546103d29190610826565b9250508190555080806103e490610ae8565b915050610315565b506000600460003073ffffffffffffffffffffffffffffffffffffffff1673ffffffffffffffffffffffffffffffffffffffff1681526020019081526020016000208190555060018060008282546104449190610826565b92505081905550600154600261045a9190610900565b6003600082825461046b9190610826565b92505081905550505050505b005b600080fd5b34801561048a57600080fd5b506104936105bb565b6040516104a091906107fa565b60405180910390f35b3480156104b557600080fd5b506104d060048036038101906104cb919061072c565b6105c1565b6040516104dd91906107fa565b60405180910390f35b3480156104f257600080fd5b506104fb6105d9565b005b34801561050957600080fd5b50610524600480360381019061051f9190610755565b6106ac565b60405161053191906107bf565b60405180910390f35b34801561054657600080fd5b5061054f6106eb565b60405161055c91906107fa565b60405180910390f35b34801561057157600080fd5b5061057a6106f1565b60405161058791906107fa565b60405180910390f35b34801561059c57600080fd5b506105a56106fc565b6040516105b291906107fa565b60405180910390f35b60005481565b60046020528060005260406000206000915090505481565b6000600460003373ffffffffffffffffffffffffffffffffffffffff1673ffffffffffffffffffffffffffffffffffffffff1681526020019081526020016000205490506000600460003373ffffffffffffffffffffffffffffffffffffffff1673ffffffffffffffffffffffffffffffffffffffff168152602001908152602001600020819055503373ffffffffffffffffffffffffffffffffffffffff166108fc829081150290604051600060405180830381858888f193505050501580156106a8573d6000803e3d6000fd5b5050565b600281815481106106bc57600080fd5b906000526020600020016000915054906101000a900473ffffffffffffffffffffffffffffffffffffffff1681565b60015481565b66038d7ea4c6800081565b60035481565b60008135905061071181610beb565b92915050565b60008135905061072681610c02565b92915050565b60006020828403121561073e57600080fd5b600061074c84828501610702565b91505092915050565b60006020828403121561076757600080fd5b600061077584828501610717565b91505092915050565b61078781610aac565b82525050565b600061079a602183610815565b91506107a582610b9c565b604082019050919050565b6107b981610ade565b82525050565b60006020820190506107d4600083018461077e565b92915050565b600060208201905081810360008301526107f38161078d565b9050919050565b600060208201905061080f60008301846107b0565b92915050565b600082825260208201905092915050565b600061083182610ade565b915061083c83610ade565b9250827fffffffffffffffffffffffffffffffffffffffffffffffffffffffffffffffff0382111561087157610870610b31565b5b828201905092915050565b600061088782610ade565b915061089283610ade565b9250826108a2576108a1610b60565b5b828204905092915050565b6000808291508390505b60018511156108f7578086048111156108d3576108d2610b31565b5b60018516156108e25780820291505b80810290506108f085610b8f565b94506108b7565b94509492505050565b600061090b82610ade565b915061091683610ade565b92506109437fffffffffffffffffffffffffffffffffffffffffffffffffffffffffffffffff848461094b565b905092915050565b60008261095b5760019050610a17565b816109695760009050610a17565b816001811461097f5760028114610989576109b8565b6001915050610a17565b60ff84111561099b5761099a610b31565b5b8360020a9150848211156109b2576109b1610b31565b5b50610a17565b5060208310610133831016604e8410600b84101617156109ed5782820a9050838111156109e8576109e7610b31565b5b610a17565b6109fa84848460016108ad565b92509050818404811115610a1157610a10610b31565b5b81810290505b9392505050565b6000610a2982610ade565b9150610a3483610ade565b9250817fffffffffffffffffffffffffffffffffffffffffffffffffffffffffffffffff0483118215151615610a6d57610a6c610b31565b5b828202905092915050565b6000610a8382610ade565b9150610a8e83610ade565b925082821015610aa157610aa0610b31565b5b828203905092915050565b6000610ab782610abe565b9050919050565b600073ffffffffffffffffffffffffffffffffffffffff82169050919050565b6000819050919050565b6000610af382610ade565b91507fffffffffffffffffffffffffffffffffffffffffffffffffffffffffffffffff821415610b2657610b25610b31565b5b600182019050919050565b7f4e487b7100000000000000000000000000000000000000000000000000000000600052601160045260246000fd5b7f4e487b7100000000000000000000000000000000000000000000000000000000600052601260045260246000fd5b6000600282049050919050565b7f56616c756573206d757374206d652067726561746572746865656e203165313560008201527f2e00000000000000000000000000000000000000000000000000000000000000602082015250565b610bf481610aac565b8114610bff57600080fd5b50565b610c0b81610ade565b8114610c1657600080fd5b5056fea2646970667358221220a5142807cd49dfb6ce375dec25f6a2246dd74b1db618eeca4bd936acb6bba8af64736f6c63430008030033",
  "immutableReferences": {},
  "source": "pragma solidity ^0.8.1;\n\ncontract SimplePyramid {\n    uint256 public constant MINIMUM_INVESTMENT = 1e15;\n    uint256 public numInvestors = 0;\n    uint256 public depth = 0;\n    address[] public investors;\n    uint256 public pyramidLevel;\n    mapping(address => uint256) public balances;\n\n    constructor() payable {\n        require(\n            msg.value >= MINIMUM_INVESTMENT,\n            \"Values must me greater then 1e15.\"\n        );\n        pyramidLevel = 3;\n        investors.push(msg.sender);\n        numInvestors = 1;\n        depth = 1;\n        balances[address(this)] = msg.value;\n    }\n\n    receive() external payable {\n        require(\n            msg.value >= MINIMUM_INVESTMENT,\n            \"Values must me greatertheen 1e15.\"\n        );\n        balances[address(this)] += msg.value;\n        numInvestors += 1;\n        if (numInvestors == pyramidLevel) {\n            uint256 endIndex = numInvestors - 2**depth;\n            uint256 startIndex = endIndex - 2**(depth - 1);\n            for (uint256 index = startIndex; index < endIndex; index++) {\n                balances[investors[index]] += MINIMUM_INVESTMENT;\n            }\n            uint256 paid = MINIMUM_INVESTMENT * 2**(depth - 1);\n            uint256 eachInvestorGets = (balances[address(this)] - paid) /\n                numInvestors;\n\n            for (uint256 i = 0; i < numInvestors; i++) {\n                balances[investors[i]] += eachInvestorGets;\n            }\n            balances[address(this)] = 0;\n            depth += 1;\n            pyramidLevel += 2**depth;\n        }\n    }\n\n    function withdraw() public {\n        uint256 payout = balances[msg.sender];\n        balances[msg.sender] = 0;\n        payable(msg.sender).transfer(payout);\n    }\n}\n",
  "sourcePath": "/Users/deveshrawat/Desktop/MyApps/learn_solidity/solidity_contracts/ponzis_pyramids/contracts/SimplePyramid.sol",
  "compiler": {
    "name": "solc",
    "version": "0.8.3+commit.8d00100c.Linux.g++"
  },
  "schemaVersion": "3.4.5",
  "updatedAt": "2022-02-21T14:04:38.289Z",
  "devdoc": {
    "kind": "dev",
    "methods": {},
    "version": 1
  },
  "userdoc": {
    "kind": "user",
    "methods": {},
    "version": 1
  }
}