{
  "contractName": "SimplePonzi",
  "abi": [
    {
      "stateMutability": "payable",
      "type": "fallback",
      "payable": true
    },
    {
      "inputs": [],
      "name": "currentInvestment",
      "outputs": [
        {
          "internalType": "uint256",
          "name": "",
          "type": "uint256"
        }
      ],
      "stateMutability": "view",
      "type": "function",
      "constant": true
    },
    {
      "inputs": [],
      "name": "currentInvestor",
      "outputs": [
        {
          "internalType": "address payable",
          "name": "",
          "type": "address"
        }
      ],
      "stateMutability": "view",
      "type": "function",
      "constant": true
    }
  ],
  "bytecode": "0x6080604052600060015534801561001557600080fd5b506101f5806100256000396000f3fe60806040526004361061004a576000357c010000000000000000000000000000000000000000000000000000000090048063523e27d414610112578063b2667cd0146101695761004b565b5b6000600a600b600154028161005c57fe5b04905080341161006b57600080fd5b60008060009054906101000a900473ffffffffffffffffffffffffffffffffffffffff169050336000806101000a81548173ffffffffffffffffffffffffffffffffffffffff021916908373ffffffffffffffffffffffffffffffffffffffff160217905550346001819055508073ffffffffffffffffffffffffffffffffffffffff166108fc349081150290604051600060405180830381858888f19350505050505050005b34801561011e57600080fd5b50610127610194565b604051808273ffffffffffffffffffffffffffffffffffffffff1673ffffffffffffffffffffffffffffffffffffffff16815260200191505060405180910390f35b34801561017557600080fd5b5061017e6101b9565b6040518082815260200191505060405180910390f35b6000809054906101000a900473ffffffffffffffffffffffffffffffffffffffff1681565b6001548156fea26469706673582212201d784a456fcb2d5d8a415a0866f01821356c643c82efdcbbb6a41852aec3d8c464736f6c63430006030033",
  "source": "pragma solidity ^0.6.1;\n\ncontract SimplePonzi {\n    address payable public currentInvestor;\n    uint public currentInvestment =0;\n\n   fallback() external payable  {\n        uint minimumInsvestment = currentInvestment * 11/10;\n        require(msg.value > minimumInsvestment);\n        \n        address payable previousInvestor = currentInvestor;\n        currentInvestor = msg.sender;\n        currentInvestment = msg.value;\n\n        previousInvestor.send(msg.value);\n    }\n}\n\n// 0xF4637cf4c8F2620622575672C805ce3b6ad6a302",
  "sourcePath": "/Users/Devesh/Desktop/Learning/games_blockchain/ponzis_pyramids/contracts/SimplePonzi.sol",
  "compiler": {
    "name": "solc",
    "version": "0.6.3+commit.8dda9521.Linux.g++"
  },
  "schemaVersion": "3.3.4",
  "updatedAt": "2021-04-14T08:19:25.182Z",
  "networkType": "ethereum",
  "devdoc": {
    "methods": {}
  },
  "userdoc": {
    "methods": {}
  }
}