{
  "contractName": "Powerball",
  "abi": [
    {
      "inputs": [],
      "stateMutability": "nonpayable",
      "type": "constructor"
    },
    {
      "inputs": [],
      "name": "MAX_NUMBER",
      "outputs": [
        {
          "internalType": "uint256",
          "name": "",
          "type": "uint256"
        }
      ],
      "stateMutability": "view",
      "type": "function"
    },
    {
      "inputs": [],
      "name": "MAX_POWERBALL_NUMBER",
      "outputs": [
        {
          "internalType": "uint256",
          "name": "",
          "type": "uint256"
        }
      ],
      "stateMutability": "view",
      "type": "function"
    },
    {
      "inputs": [],
      "name": "ROUND_LENGTH",
      "outputs": [
        {
          "internalType": "uint256",
          "name": "",
          "type": "uint256"
        }
      ],
      "stateMutability": "view",
      "type": "function"
    },
    {
      "inputs": [],
      "name": "TICKET_PRICE",
      "outputs": [
        {
          "internalType": "uint256",
          "name": "",
          "type": "uint256"
        }
      ],
      "stateMutability": "view",
      "type": "function"
    },
    {
      "inputs": [],
      "name": "round",
      "outputs": [
        {
          "internalType": "uint256",
          "name": "",
          "type": "uint256"
        }
      ],
      "stateMutability": "view",
      "type": "function"
    },
    {
      "inputs": [
        {
          "internalType": "uint256",
          "name": "",
          "type": "uint256"
        }
      ],
      "name": "rounds",
      "outputs": [
        {
          "internalType": "uint256",
          "name": "endTime",
          "type": "uint256"
        },
        {
          "internalType": "uint256",
          "name": "drawBlock",
          "type": "uint256"
        }
      ],
      "stateMutability": "view",
      "type": "function"
    },
    {
      "inputs": [
        {
          "internalType": "uint256[6][]",
          "name": "numbers",
          "type": "uint256[6][]"
        }
      ],
      "name": "buy",
      "outputs": [],
      "stateMutability": "payable",
      "type": "function"
    },
    {
      "inputs": [
        {
          "internalType": "uint256",
          "name": "_round",
          "type": "uint256"
        }
      ],
      "name": "drawNumbers",
      "outputs": [],
      "stateMutability": "nonpayable",
      "type": "function"
    },
    {
      "inputs": [
        {
          "internalType": "uint256",
          "name": "_round",
          "type": "uint256"
        }
      ],
      "name": "claim",
      "outputs": [],
      "stateMutability": "nonpayable",
      "type": "function"
    },
    {
      "inputs": [
        {
          "internalType": "uint256",
          "name": "_round",
          "type": "uint256"
        },
        {
          "internalType": "address",
          "name": "user",
          "type": "address"
        }
      ],
      "name": "ticketsFor",
      "outputs": [
        {
          "internalType": "uint256[6][]",
          "name": "tickets",
          "type": "uint256[6][]"
        }
      ],
      "stateMutability": "view",
      "type": "function"
    },
    {
      "inputs": [
        {
          "internalType": "uint256",
          "name": "_round",
          "type": "uint256"
        }
      ],
      "name": "winningNumbersFor",
      "outputs": [
        {
          "internalType": "uint256[6]",
          "name": "winningNumbers",
          "type": "uint256[6]"
        }
      ],
      "stateMutability": "view",
      "type": "function"
    }
  ],
  "bytecode": "0x60806040523480156200001157600080fd5b5060016000819055506203f480426200002b91906200004c565b600160008054815260200190815260200160002060000181905550620000e2565b60006200005982620000a9565b91506200006683620000a9565b9250827fffffffffffffffffffffffffffffffffffffffffffffffffffffffffffffffff038211156200009e576200009d620000b3565b5b828201905092915050565b6000819050919050565b7f4e487b7100000000000000000000000000000000000000000000000000000000600052601160045260246000fd5b6117be80620000f26000396000f3fe6080604052600436106100b9576000357c0100000000000000000000000000000000000000000000000000000000900480638c65c81f116100815780638c65c81f146101965780639e817c03146101d4578063aefb2dad146101ff578063b6e992351461023c578063d910c80514610265578063fea9b57214610290576100b9565b80630bc09cfe146100be578063146ca531146100da5780631a95f15f14610105578063379607f51461013057806367ec68c414610159575b600080fd5b6100d860048036038101906100d39190611144565b6102bb565b005b3480156100e657600080fd5b506100ef610656565b6040516100fc91906113db565b60405180910390f35b34801561011157600080fd5b5061011a61065c565b60405161012791906113db565b60405180910390f35b34801561013c57600080fd5b5061015760048036038101906101529190611185565b610667565b005b34801561016557600080fd5b50610180600480360381019061017b9190611185565b610b8e565b60405161018d91906113c0565b60405180910390f35b3480156101a257600080fd5b506101bd60048036038101906101b89190611185565b610bef565b6040516101cb9291906113f6565b60405180910390f35b3480156101e057600080fd5b506101e9610c13565b6040516101f691906113db565b60405180910390f35b34801561020b57600080fd5b50610226600480360381019061022191906111ae565b610c1a565b604051610233919061139e565b60405180910390f35b34801561024857600080fd5b50610263600480360381019061025e9190611185565b610cfe565b005b34801561027157600080fd5b5061027a610f16565b60405161028791906113db565b60405180910390f35b34801561029c57600080fd5b506102a5610f1b565b6040516102b291906113db565b60405180910390f35b3466470de4df82000082516102d0919061155d565b146102da57600080fd5b60005b81518110156104da5760005b600681101561038f57600083838151811061032d577f4e487b7100000000000000000000000000000000000000000000000000000000600052603260045260246000fd5b6020026020010151826006811061036d577f4e487b7100000000000000000000000000000000000000000000000000000000600052603260045260246000fd5b60200201511161037c57600080fd5b80806103879061162e565b9150506102e9565b5060005b600581101561043a5760458383815181106103d7577f4e487b7100000000000000000000000000000000000000000000000000000000600052603260045260246000fd5b60200260200101518260068110610417577f4e487b7100000000000000000000000000000000000000000000000000000000600052603260045260246000fd5b6020020151111561042757600080fd5b80806104329061162e565b915050610393565b50601a828281518110610476577f4e487b7100000000000000000000000000000000000000000000000000000000600052603260045260246000fd5b60200260200101516005600681106104b7577f4e487b7100000000000000000000000000000000000000000000000000000000600052603260045260246000fd5b602002015111156104c757600080fd5b80806104d29061162e565b9150506102dd565b50600160008054815260200190815260200160002060000154421115610566576005436105079190611507565b60016000805481526020019081526020016000206001018190555060016000808282546105349190611507565b925050819055506203f4804261054a9190611507565b6001600080548152602001908152602001600020600001819055505b60005b815181101561065257600160008054815260200190815260200160002060080160003373ffffffffffffffffffffffffffffffffffffffff1673ffffffffffffffffffffffffffffffffffffffff1681526020019081526020016000208282815181106105ff577f4e487b7100000000000000000000000000000000000000000000000000000000600052603260045260246000fd5b6020026020010151908060018154018082558091505060019003906000526020600020906006020160009091909190915090600661063e929190610f20565b50808061064a9061162e565b915050610569565b5050565b60005481565b66470de4df82000081565b60006001600083815260200190815260200160002060080160003373ffffffffffffffffffffffffffffffffffffffff1673ffffffffffffffffffffffffffffffffffffffff16815260200190815260200160002080549050116106ca57600080fd5b60006001600083815260200190815260200160002060020160006006811061071b577f4e487b7100000000000000000000000000000000000000000000000000000000600052603260045260246000fd5b0154141561072857600080fd5b60006001600083815260200190815260200160002060080160003373ffffffffffffffffffffffffffffffffffffffff1673ffffffffffffffffffffffffffffffffffffffff168152602001908152602001600020905060006001600084815260200190815260200160002060020190506000805b8380549050811015610adb576000805b60058110156108bb5760005b60058110156108a7578581600681106107fb577f4e487b7100000000000000000000000000000000000000000000000000000000600052603260045260246000fd5b0154878581548110610836577f4e487b7100000000000000000000000000000000000000000000000000000000600052603260045260246000fd5b9060005260206000209060060201836006811061087c577f4e487b7100000000000000000000000000000000000000000000000000000000600052603260045260246000fd5b01541415610894576001836108919190611507565b92505b808061089f9061162e565b9150506107b9565b5080806108b39061162e565b9150506107ad565b506000846005600681106108f8577f4e487b7100000000000000000000000000000000000000000000000000000000600052603260045260246000fd5b0154868481548110610933577f4e487b7100000000000000000000000000000000000000000000000000000000600052603260045260246000fd5b906000526020600020906006020160056006811061097a577f4e487b7100000000000000000000000000000000000000000000000000000000600052603260045260246000fd5b015414905060058214801561098c5750805b156109b0573073ffffffffffffffffffffffffffffffffffffffff16319350610ac6565b60058214156109d557683635c9adc5dea00000846109ce9190611507565b9350610ac5565b6004821480156109e25750805b15610a03576802b5e3af16b1880000846109fc9190611507565b9350610ac4565b6004821415610a275767016345785d8a000084610a209190611507565b9350610ac3565b600382148015610a345750805b15610a545767016345785d8a000084610a4d9190611507565b9350610ac2565b6003821415610a77576618de76816d800084610a709190611507565b9350610ac1565b600282148015610a845750805b15610aa3576618de76816d800084610a9c9190611507565b9350610ac0565b8015610abf57660e35fa931a000084610abc9190611507565b93505b5b5b5b5b5b5b5b50508080610ad39061162e565b91505061079d565b5060003390508073ffffffffffffffffffffffffffffffffffffffff166108fc839081150290604051600060405180830381858888f19350505050158015610b27573d6000803e3d6000fd5b506001600086815260200190815260200160002060080160003373ffffffffffffffffffffffffffffffffffffffff1673ffffffffffffffffffffffffffffffffffffffff1681526020019081526020016000206000610b879190610f60565b5050505050565b610b96610f84565b60016000838152602001908152602001600020600201600680602002604051908101604052809291908260068015610be3576020028201915b815481526020019060010190808311610bcf575b50505050509050919050565b60016020528060005260406000206000915090508060000154908060010154905082565b6203f48081565b60606001600084815260200190815260200160002060080160008373ffffffffffffffffffffffffffffffffffffffff1673ffffffffffffffffffffffffffffffffffffffff168152602001908152602001600020805480602002602001604051908101604052809291908181526020016000905b82821015610cf25783829060005260206000209060060201600680602002604051908101604052809291908260068015610cde576020028201915b815481526020019060010190808311610cca575b505050505081526020019060010190610c8f565b50505050905092915050565b6000600160008054815260200190815260200160002060010154905060016000838152602001908152602001600020600001544211610d3c57600080fd5b80431015610d4957600080fd5b600060016000848152602001908152602001600020600201600060068110610d9a577f4e487b7100000000000000000000000000000000000000000000000000000000600052603260045260246000fd5b015414610da657600080fd5b60005b6005811015610e6a576000824082604051602001610dc8929190611372565b6040516020818303038152906040528051906020012090506000600160458360019004610df5919061168b565b610dff9190611507565b905080600160008781526020019081526020016000206002018460068110610e50577f4e487b7100000000000000000000000000000000000000000000000000000000600052603260045260246000fd5b018190555050508080610e629061162e565b915050610da9565b50600081406005604051602001610e82929190611372565b6040516020818303038152906040528051906020012090506000600160458360019004610eaf919061168b565b610eb99190611507565b90508060016000868152602001908152602001600020600201600560068110610f0b577f4e487b7100000000000000000000000000000000000000000000000000000000600052603260045260246000fd5b018190555050505050565b601a81565b604581565b8260068101928215610f4f579160200282015b82811115610f4e578251825591602001919060010190610f33565b5b509050610f5c9190610fa6565b5090565b5080546000825560060290600052602060002090810190610f819190610fc3565b50565b6040518060c00160405280600690602082028036833780820191505090505090565b5b80821115610fbf576000816000905550600101610fa7565b5090565b5b80821115610fe35760008181610fda9190610fe7565b50600601610fc4565b5090565b508060060190610ff79190610fa6565b50565b600061100d61100884611444565b61141f565b905080838252602082019050828560c086028201111561102c57600080fd5b60005b8581101561105c57816110428882611108565b845260208401935060c0830192505060018101905061102f565b5050509392505050565b600061107961107484611470565b61141f565b9050808285602086028201111561108f57600080fd5b60005b858110156110bf57816110a5888261112f565b845260208401935060208301925050600181019050611092565b5050509392505050565b6000813590506110d88161175a565b92915050565b600082601f8301126110ef57600080fd5b81356110ff848260208601610ffa565b91505092915050565b600082601f83011261111957600080fd5b6006611126848285611066565b91505092915050565b60008135905061113e81611771565b92915050565b60006020828403121561115657600080fd5b600082013567ffffffffffffffff81111561117057600080fd5b61117c848285016110de565b91505092915050565b60006020828403121561119757600080fd5b60006111a58482850161112f565b91505092915050565b600080604083850312156111c157600080fd5b60006111cf8582860161112f565b92505060206111e0858286016110c9565b9150509250929050565b60006111f68383611278565b60c08301905092915050565b600061120e838361133d565b60208301905092915050565b6000611225826114b0565b61122f81856114e0565b935061123a83611496565b8060005b8381101561126b57815161125288826111ea565b975061125d836114c6565b92505060018101905061123e565b5085935050505092915050565b611281816114bb565b61128b81846114f1565b9250611296826114a6565b8060005b838110156112c75781516112ae8782611202565b96506112b9836114d3565b92505060018101905061129a565b505050505050565b6112d8816114bb565b6112e281846114fc565b92506112ed826114a6565b8060005b8381101561131e5781516113058782611202565b9650611310836114d3565b9250506001810190506112f1565b505050505050565b611337611332826115c9565b611677565b82525050565b611346816115f3565b82525050565b611355816115f3565b82525050565b61136c611367826115f3565b611681565b82525050565b600061137e8285611326565b60208201915061138e828461135b565b6020820191508190509392505050565b600060208201905081810360008301526113b8818461121a565b905092915050565b600060c0820190506113d560008301846112cf565b92915050565b60006020820190506113f0600083018461134c565b92915050565b600060408201905061140b600083018561134c565b611418602083018461134c565b9392505050565b600061142961143a565b905061143582826115fd565b919050565b6000604051905090565b600067ffffffffffffffff82111561145f5761145e61171a565b5b602082029050602081019050919050565b600067ffffffffffffffff82111561148b5761148a61171a565b5b602082029050919050565b6000819050602082019050919050565b6000819050919050565b600081519050919050565b600060069050919050565b6000602082019050919050565b6000602082019050919050565b600082825260208201905092915050565b600081905092915050565b600081905092915050565b6000611512826115f3565b915061151d836115f3565b9250827fffffffffffffffffffffffffffffffffffffffffffffffffffffffffffffffff03821115611552576115516116bc565b5b828201905092915050565b6000611568826115f3565b9150611573836115f3565b9250817fffffffffffffffffffffffffffffffffffffffffffffffffffffffffffffffff04831182151516156115ac576115ab6116bc565b5b828202905092915050565b60006115c2826115d3565b9050919050565b6000819050919050565b600073ffffffffffffffffffffffffffffffffffffffff82169050919050565b6000819050919050565b61160682611749565b810181811067ffffffffffffffff821117156116255761162461171a565b5b80604052505050565b6000611639826115f3565b91507fffffffffffffffffffffffffffffffffffffffffffffffffffffffffffffffff82141561166c5761166b6116bc565b5b600182019050919050565b6000819050919050565b6000819050919050565b6000611696826115f3565b91506116a1836115f3565b9250826116b1576116b06116eb565b5b828206905092915050565b7f4e487b7100000000000000000000000000000000000000000000000000000000600052601160045260246000fd5b7f4e487b7100000000000000000000000000000000000000000000000000000000600052601260045260246000fd5b7f4e487b7100000000000000000000000000000000000000000000000000000000600052604160045260246000fd5b6000601f19601f8301169050919050565b611763816115b7565b811461176e57600080fd5b50565b61177a816115f3565b811461178557600080fd5b5056fea2646970667358221220aa8b9d403a94506e1f702a2248d8d44346152a9c74ad6dfadb9588af084bef8b64736f6c63430008010033",
  "immutableReferences": {},
  "source": "// SPDX-License-Identifier: MIT\npragma solidity ^0.8.1;\n\ncontract Powerball {\n  struct Round {\n    uint256 endTime;\n    uint256 drawBlock;\n    uint256[6] winningNumbers;\n    mapping(address => uint256[6][]) tickets;\n  }\n\n  uint256 public constant TICKET_PRICE = 2e16;\n  uint256 public constant MAX_NUMBER = 69;\n  uint256 public constant MAX_POWERBALL_NUMBER = 26;\n  uint256 public constant ROUND_LENGTH = 3 days;\n\n  uint256 public round;\n  mapping(uint256 => Round) public rounds;\n\n  constructor() {\n    round = 1;\n    rounds[round].endTime = block.timestamp + ROUND_LENGTH;\n  }\n\n  function buy(uint256[6][] memory numbers) public payable {\n    require(numbers.length * TICKET_PRICE == msg.value);\n\n    for (uint256 i = 0; i < numbers.length; i++) {\n      for (uint256 j = 0; j < 6; j++) require(numbers[i][j] > 0);\n      for (uint256 j = 0; j < 5; j++) require(numbers[i][j] <= MAX_NUMBER);\n      require(numbers[i][5] <= MAX_POWERBALL_NUMBER);\n    }\n    if (block.timestamp > rounds[round].endTime) {\n      rounds[round].drawBlock = block.number + 5;\n      round += 1;\n      rounds[round].endTime = block.timestamp + ROUND_LENGTH;\n    }\n    for (uint256 i = 0; i < numbers.length; i++) rounds[round].tickets[msg.sender].push(numbers[i]);\n  }\n\n  function drawNumbers(uint256 _round) public {\n    uint256 drawBlock = rounds[round].drawBlock;\n    require(block.timestamp > rounds[_round].endTime);\n    require(block.number >= drawBlock);\n    require(rounds[_round].winningNumbers[0] == 0);\n\n    for (uint256 i = 0; i < 5; i++) {\n      bytes32 rand = keccak256(abi.encodePacked(blockhash(drawBlock), i));\n      uint256 numberDraw = (uint256(rand) % MAX_NUMBER) + 1;\n      rounds[_round].winningNumbers[i] = numberDraw;\n    }\n    bytes32 rand = keccak256(abi.encodePacked(blockhash(drawBlock), uint256(5)));\n    uint256 powerballDraw = (uint256(rand) % MAX_NUMBER) + 1;\n    rounds[_round].winningNumbers[5] = powerballDraw;\n  }\n\n  function claim(uint256 _round) public {\n    require(rounds[_round].tickets[msg.sender].length > 0);\n    require(rounds[_round].winningNumbers[0] != 0);\n\n    uint256[6][] storage myNumbers = rounds[_round].tickets[msg.sender];\n    uint256[6] storage winningNumbers = rounds[_round].winningNumbers;\n    uint256 payout = 0;\n\n    for (uint256 i = 0; i < myNumbers.length; i++) {\n      uint256 numberMatches = 0;\n      for (uint256 j = 0; j < 5; j++) {\n        for (uint256 k = 0; k < 5; k++) {\n          if (myNumbers[i][j] == winningNumbers[k]) numberMatches += 1;\n        }\n      }\n      bool powerballMatches = (myNumbers[i][5] == winningNumbers[5]);\n      // win conditions\n      if (numberMatches == 5 && powerballMatches) payout = address(this).balance;\n      else if (numberMatches == 5) payout += 1000 ether;\n      else if (numberMatches == 4 && powerballMatches) payout += 50 ether;\n      else if (numberMatches == 4) payout += 1e17;\n      else if (numberMatches == 3 && powerballMatches) payout += 1e17;\n      else if (numberMatches == 3) payout += 7e15;\n      else if (numberMatches == 2 && powerballMatches) payout += 7e15;\n      else if (powerballMatches) payout += 4e15;\n    }\n    address payable winner = payable(msg.sender);\n    winner.transfer(payout);\n    delete rounds[_round].tickets[msg.sender];\n  }\n\n  function ticketsFor(uint256 _round, address user) public view returns (uint256[6][] memory tickets) {\n    return rounds[_round].tickets[user];\n  }\n\n  function winningNumbersFor(uint256 _round) public view returns (uint256[6] memory winningNumbers) {\n    return rounds[_round].winningNumbers;\n  }\n}\n",
  "sourcePath": "/Users/deveshrawat/Desktop/MyApps/learn_solidity/solidity_contracts/lottries/contracts/Powerball.sol",
  "compiler": {
    "name": "solc",
    "version": "0.8.1+commit.df193b15.Linux.g++"
  },
  "schemaVersion": "3.4.5",
  "updatedAt": "2022-02-21T13:53:17.443Z",
  "devdoc": {
    "kind": "dev",
    "methods": {},
    "version": 1
  },
  "userdoc": {
    "kind": "user",
    "methods": {},
    "version": 1
  }
}