{
  "contractName": "Powerball",
  "abi": [
    {
      "inputs": [],
      "stateMutability": "nonpayable",
      "type": "constructor"
    },
    {
      "inputs": [],
      "name": "MAX_NUMBER",
      "outputs": [
        {
          "internalType": "uint256",
          "name": "",
          "type": "uint256"
        }
      ],
      "stateMutability": "view",
      "type": "function",
      "constant": true
    },
    {
      "inputs": [],
      "name": "MAX_POWERBALL_NUMBER",
      "outputs": [
        {
          "internalType": "uint256",
          "name": "",
          "type": "uint256"
        }
      ],
      "stateMutability": "view",
      "type": "function",
      "constant": true
    },
    {
      "inputs": [],
      "name": "ROUND_LENGTH",
      "outputs": [
        {
          "internalType": "uint256",
          "name": "",
          "type": "uint256"
        }
      ],
      "stateMutability": "view",
      "type": "function",
      "constant": true
    },
    {
      "inputs": [],
      "name": "TICKET_PRICE",
      "outputs": [
        {
          "internalType": "uint256",
          "name": "",
          "type": "uint256"
        }
      ],
      "stateMutability": "view",
      "type": "function",
      "constant": true
    },
    {
      "inputs": [],
      "name": "round",
      "outputs": [
        {
          "internalType": "uint256",
          "name": "",
          "type": "uint256"
        }
      ],
      "stateMutability": "view",
      "type": "function",
      "constant": true
    },
    {
      "inputs": [
        {
          "internalType": "uint256",
          "name": "",
          "type": "uint256"
        }
      ],
      "name": "rounds",
      "outputs": [
        {
          "internalType": "uint256",
          "name": "endTime",
          "type": "uint256"
        },
        {
          "internalType": "uint256",
          "name": "drawBlock",
          "type": "uint256"
        }
      ],
      "stateMutability": "view",
      "type": "function",
      "constant": true
    },
    {
      "inputs": [
        {
          "internalType": "uint256[6][]",
          "name": "numbers",
          "type": "uint256[6][]"
        }
      ],
      "name": "buy",
      "outputs": [],
      "stateMutability": "payable",
      "type": "function",
      "payable": true
    },
    {
      "inputs": [
        {
          "internalType": "uint256",
          "name": "_round",
          "type": "uint256"
        }
      ],
      "name": "drawNumbers",
      "outputs": [],
      "stateMutability": "nonpayable",
      "type": "function"
    },
    {
      "inputs": [
        {
          "internalType": "uint256",
          "name": "_round",
          "type": "uint256"
        }
      ],
      "name": "claim",
      "outputs": [],
      "stateMutability": "nonpayable",
      "type": "function"
    },
    {
      "inputs": [
        {
          "internalType": "uint256",
          "name": "_round",
          "type": "uint256"
        },
        {
          "internalType": "address",
          "name": "user",
          "type": "address"
        }
      ],
      "name": "ticketsFor",
      "outputs": [
        {
          "internalType": "uint256[6][]",
          "name": "tickets",
          "type": "uint256[6][]"
        }
      ],
      "stateMutability": "view",
      "type": "function",
      "constant": true
    },
    {
      "inputs": [
        {
          "internalType": "uint256",
          "name": "_round",
          "type": "uint256"
        }
      ],
      "name": "winningNumbersFor",
      "outputs": [
        {
          "internalType": "uint256[6]",
          "name": "winningNumbers",
          "type": "uint256[6]"
        }
      ],
      "stateMutability": "view",
      "type": "function",
      "constant": true
    }
  ],
  "bytecode": "0x608060405234801561001057600080fd5b5060016000819055506203f4804201600160008054815260200190815260200160002060000181905550610e99806100496000396000f3fe6080604052600436106100b9576000357c0100000000000000000000000000000000000000000000000000000000900480638c65c81f116100815780638c65c81f146102ba5780639e817c0314610310578063aefb2dad1461033b578063b6e992351461040c578063d910c80514610447578063fea9b57214610472576100b9565b80630bc09cfe146100be578063146ca531146101b25780631a95f15f146101dd578063379607f51461020857806367ec68c414610243575b600080fd5b6101b0600480360360208110156100d457600080fd5b81019080803590602001906401000000008111156100f157600080fd5b82018360208201111561010357600080fd5b803590602001918460c083028401116401000000008311171561012557600080fd5b9190808060200260200160405190810160405280939291908181526020016000905b8282101561019e57848483905060c002016006806020026040519081016040528092919082600660200280828437600081840152601f19601f82011690508083019250505050505081526020019060010190610147565b5050505050919291929050505061049d565b005b3480156101be57600080fd5b506101c76106cd565b6040518082815260200191505060405180910390f35b3480156101e957600080fd5b506101f26106d3565b6040518082815260200191505060405180910390f35b34801561021457600080fd5b506102416004803603602081101561022b57600080fd5b81019080803590602001909291905050506106de565b005b34801561024f57600080fd5b5061027c6004803603602081101561026657600080fd5b8101908080359060200190929190505050610a7b565b6040518082600660200280838360005b838110156102a757808201518184015260208101905061028c565b5050505090500191505060405180910390f35b3480156102c657600080fd5b506102f3600480360360208110156102dd57600080fd5b8101908080359060200190929190505050610adc565b604051808381526020018281526020019250505060405180910390f35b34801561031c57600080fd5b50610325610b00565b6040518082815260200191505060405180910390f35b34801561034757600080fd5b506103946004803603604081101561035e57600080fd5b8101908080359060200190929190803573ffffffffffffffffffffffffffffffffffffffff169060200190929190505050610b07565b60405180806020018281038252838181518152602001915080516000925b818410156103fb5782846020026020010151600660200280838360005b838110156103ea5780820151818401526020810190506103cf565b5050505090500192600101926103b2565b925050509250505060405180910390f35b34801561041857600080fd5b506104456004803603602081101561042f57600080fd5b8101908080359060200190929190505050610beb565b005b34801561045357600080fd5b5061045c610d6f565b6040518082815260200191505060405180910390f35b34801561047e57600080fd5b50610487610d74565b6040518082815260200191505060405180910390f35b3466470de4df820000825102146104b357600080fd5b60008090505b815181101561059c5760008090505b600681101561050e5760008383815181106104df57fe5b602002602001015182600681106104f257fe5b60200201511161050157600080fd5b80806001019150506104c8565b5060008090505b600581101561055c57604583838151811061052c57fe5b6020026020010151826006811061053f57fe5b6020020151111561054f57600080fd5b8080600101915050610515565b50601a82828151811061056b57fe5b602002602001015160056006811061057f57fe5b6020020151111561058f57600080fd5b80806001019150506104b9565b5060016000805481526020019081526020016000206000015442111561060d5760054301600160008054815260200190815260200160002060010181905550600160008082825401925050819055506203f48042016001600080548152602001908152602001600020600001819055505b60008090505b81518110156106c957600160008054815260200190815260200160002060080160003373ffffffffffffffffffffffffffffffffffffffff1673ffffffffffffffffffffffffffffffffffffffff16815260200190815260200160002082828151811061067c57fe5b602002602001015190806001815401808255809150506001900390600052602060002090600602016000909190919091509060066106bb929190610d79565b508080600101915050610613565b5050565b60005481565b66470de4df82000081565b60006001600083815260200190815260200160002060080160003373ffffffffffffffffffffffffffffffffffffffff1673ffffffffffffffffffffffffffffffffffffffff168152602001908152602001600020805490501161074157600080fd5b60006001600083815260200190815260200160002060020160006006811061076557fe5b0154141561077257600080fd5b60006001600083815260200190815260200160002060080160003373ffffffffffffffffffffffffffffffffffffffff1673ffffffffffffffffffffffffffffffffffffffff16815260200190815260200160002090506000600160008481526020019081526020016000206002019050600080905060008090505b83805490508110156109ce57600080905060008090505b600581101561087a5760008090505b600581101561086c5785816006811061082957fe5b015487858154811061083757fe5b9060005260206000209060060201836006811061085057fe5b0154141561085f576001830192505b8080600101915050610814565b508080600101915050610805565b5060008460056006811061088a57fe5b015486848154811061089857fe5b90600052602060002090600602016005600681106108b257fe5b01541490506005821480156108c45750805b156108e8573073ffffffffffffffffffffffffffffffffffffffff163193506109bf565b600582141561090457683635c9adc5dea00000840193506109be565b6004821480156109115750805b15610929576802b5e3af16b1880000840193506109bd565b60048214156109445767016345785d8a0000840193506109bc565b6003821480156109515750805b156109685767016345785d8a0000840193506109bb565b6003821415610982576618de76816d8000840193506109ba565b60028214801561098f5750805b156109a5576618de76816d8000840193506109b9565b80156109b857660e35fa931a0000840193505b5b5b5b5b5b5b5b505080806001019150506107ee565b503373ffffffffffffffffffffffffffffffffffffffff166108fc829081150290604051600060405180830381858888f19350505050158015610a15573d6000803e3d6000fd5b506001600085815260200190815260200160002060080160003373ffffffffffffffffffffffffffffffffffffffff1673ffffffffffffffffffffffffffffffffffffffff1681526020019081526020016000206000610a759190610db9565b50505050565b610a83610ddd565b60016000838152602001908152602001600020600201600680602002604051908101604052809291908260068015610ad0576020028201915b815481526020019060010190808311610abc575b50505050509050919050565b60016020528060005260406000206000915090508060000154908060010154905082565b6203f48081565b60606001600084815260200190815260200160002060080160008373ffffffffffffffffffffffffffffffffffffffff1673ffffffffffffffffffffffffffffffffffffffff168152602001908152602001600020805480602002602001604051908101604052809291908181526020016000905b82821015610bdf5783829060005260206000209060060201600680602002604051908101604052809291908260068015610bcb576020028201915b815481526020019060010190808311610bb7575b505050505081526020019060010190610b7c565b50505050905092915050565b6000600160008054815260200190815260200160002060010154905060016000838152602001908152602001600020600001544211610c2957600080fd5b80431015610c3657600080fd5b600060016000848152602001908152602001600020600201600060068110610c5a57fe5b015414610c6657600080fd5b60008090505b6005811015610cf55760008240826040516020018083815260200182815260200192505050604051602081830303815290604052805190602001209050600060016045836001900481610cbb57fe5b0601905080600160008781526020019081526020016000206002018460068110610ce157fe5b018190555050508080600101915050610c6c565b506000814060056040516020018083815260200182815260200192505050604051602081830303815290604052805190602001209050600060016045836001900481610d3d57fe5b060190508060016000868152602001908152602001600020600201600560068110610d6457fe5b018190555050505050565b601a81565b604581565b8260068101928215610da8579160200282015b82811115610da7578251825591602001919060010190610d8c565b5b509050610db59190610dff565b5090565b5080546000825560060290600052602060002090810190610dda9190610e24565b50565b6040518060c00160405280600690602082028038833980820191505090505090565b610e2191905b80821115610e1d576000816000905550600101610e05565b5090565b90565b610e4d91905b80821115610e495760008181610e409190610e50565b50600601610e2a565b5090565b90565b508060060190610e609190610dff565b5056fea26469706673582212207062d4864f017e914419111896b3b86812ca70fe2ede58450666c2e129d3e52f64736f6c63430006010033",
  "source": "pragma solidity ^0.6.1;\n\ncontract Powerball {\n  struct Round {\n    uint256 endTime;\n    uint256 drawBlock;\n    uint256[6] winningNumbers;\n    mapping(address => uint256[6][]) tickets;\n  }\n\n  uint256 public constant TICKET_PRICE = 2e16;\n  uint256 public constant MAX_NUMBER = 69;\n  uint256 public constant MAX_POWERBALL_NUMBER = 26;\n  uint256 public constant ROUND_LENGTH = 3 days;\n\n  uint256 public round;\n  mapping(uint256 => Round) public rounds;\n\n  constructor() public {\n    round = 1;\n    rounds[round].endTime = now + ROUND_LENGTH;\n  }\n\n  function buy(uint256[6][] memory numbers) public payable {\n    require(numbers.length * TICKET_PRICE == msg.value);\n\n    for (uint256 i = 0; i < numbers.length; i++) {\n      for (uint256 j = 0; j < 6; j++) require(numbers[i][j] > 0);\n      for (uint256 j = 0; j < 5; j++) require(numbers[i][j] <= MAX_NUMBER);\n      require(numbers[i][5] <= MAX_POWERBALL_NUMBER);\n    }\n    if (now > rounds[round].endTime) {\n      rounds[round].drawBlock = block.number + 5;\n      round += 1;\n      rounds[round].endTime = now + ROUND_LENGTH;\n    }\n    for (uint256 i = 0; i < numbers.length; i++) rounds[round].tickets[msg.sender].push(numbers[i]);\n  }\n\n  function drawNumbers(uint256 _round) public {\n    uint256 drawBlock = rounds[round].drawBlock;\n    require(now > rounds[_round].endTime);\n    require(block.number >= drawBlock);\n    require(rounds[_round].winningNumbers[0] == 0);\n\n    for (uint256 i = 0; i < 5; i++) {\n      bytes32 rand = keccak256(abi.encodePacked(blockhash(drawBlock), i));\n      uint256 numberDraw = (uint256(rand) % MAX_NUMBER) + 1;\n      rounds[_round].winningNumbers[i] = numberDraw;\n    }\n    bytes32 rand = keccak256(abi.encodePacked(blockhash(drawBlock), uint256(5)));\n    uint256 powerballDraw = (uint256(rand) % MAX_NUMBER) + 1;\n    rounds[_round].winningNumbers[5] = powerballDraw;\n  }\n\n  function claim(uint256 _round) public {\n    require(rounds[_round].tickets[msg.sender].length > 0);\n    require(rounds[_round].winningNumbers[0] != 0);\n\n    uint256[6][] storage myNumbers = rounds[_round].tickets[msg.sender];\n    uint256[6] storage winningNumbers = rounds[_round].winningNumbers;\n    uint256 payout = 0;\n\n    for (uint256 i = 0; i < myNumbers.length; i++) {\n      uint256 numberMatches = 0;\n      for (uint256 j = 0; j < 5; j++) {\n        for (uint256 k = 0; k < 5; k++) {\n          if (myNumbers[i][j] == winningNumbers[k]) numberMatches += 1;\n        }\n      }\n      bool powerballMatches = (myNumbers[i][5] == winningNumbers[5]);\n      // win conditions\n      if (numberMatches == 5 && powerballMatches) payout = address(this).balance;\n      else if (numberMatches == 5) payout += 1000 ether;\n      else if (numberMatches == 4 && powerballMatches) payout += 50 ether;\n      else if (numberMatches == 4) payout += 1e17;\n      else if (numberMatches == 3 && powerballMatches) payout += 1e17;\n      else if (numberMatches == 3) payout += 7e15;\n      else if (numberMatches == 2 && powerballMatches) payout += 7e15;\n      else if (powerballMatches) payout += 4e15;\n    }\n    msg.sender.transfer(payout);\n    delete rounds[_round].tickets[msg.sender];\n  }\n\n  function ticketsFor(uint256 _round, address user) public view returns (uint256[6][] memory tickets) {\n    return rounds[_round].tickets[user];\n  }\n\n  function winningNumbersFor(uint256 _round) public view returns (uint256[6] memory winningNumbers) {\n    return rounds[_round].winningNumbers;\n  }\n}\n",
  "sourcePath": "/Users/Devesh/Desktop/Learning/games_blockchain/lottries/contracts/Powerball.sol",
  "compiler": {
    "name": "solc",
    "version": "0.6.1+commit.e6f7d5a4.Linux.g++"
  },
  "schemaVersion": "3.1.0",
  "updatedAt": "2021-04-17T05:57:40.891Z",
  "networkType": "ethereum",
  "devdoc": {
    "methods": {}
  },
  "userdoc": {
    "methods": {}
  }
}