{
  "contractName": "RecurringLottery",
  "abi": [
    {
      "inputs": [
        {
          "internalType": "uint256",
          "name": "_duration",
          "type": "uint256"
        }
      ],
      "stateMutability": "nonpayable",
      "type": "constructor"
    },
    {
      "inputs": [],
      "name": "TICKET_PRICE",
      "outputs": [
        {
          "internalType": "uint256",
          "name": "",
          "type": "uint256"
        }
      ],
      "stateMutability": "view",
      "type": "function"
    },
    {
      "inputs": [
        {
          "internalType": "address",
          "name": "",
          "type": "address"
        }
      ],
      "name": "balances",
      "outputs": [
        {
          "internalType": "uint256",
          "name": "",
          "type": "uint256"
        }
      ],
      "stateMutability": "view",
      "type": "function"
    },
    {
      "inputs": [],
      "name": "duration",
      "outputs": [
        {
          "internalType": "uint256",
          "name": "",
          "type": "uint256"
        }
      ],
      "stateMutability": "view",
      "type": "function"
    },
    {
      "inputs": [],
      "name": "round",
      "outputs": [
        {
          "internalType": "uint256",
          "name": "",
          "type": "uint256"
        }
      ],
      "stateMutability": "view",
      "type": "function"
    },
    {
      "inputs": [
        {
          "internalType": "uint256",
          "name": "",
          "type": "uint256"
        }
      ],
      "name": "rounds",
      "outputs": [
        {
          "internalType": "uint256",
          "name": "endBlock",
          "type": "uint256"
        },
        {
          "internalType": "uint256",
          "name": "drawBlock",
          "type": "uint256"
        },
        {
          "internalType": "uint256",
          "name": "totalQuantity",
          "type": "uint256"
        },
        {
          "internalType": "address payable",
          "name": "winner",
          "type": "address"
        }
      ],
      "stateMutability": "view",
      "type": "function"
    },
    {
      "stateMutability": "payable",
      "type": "receive"
    },
    {
      "inputs": [],
      "name": "buy",
      "outputs": [],
      "stateMutability": "payable",
      "type": "function"
    },
    {
      "inputs": [
        {
          "internalType": "uint256",
          "name": "roundNumber",
          "type": "uint256"
        }
      ],
      "name": "drawWinner",
      "outputs": [],
      "stateMutability": "nonpayable",
      "type": "function"
    },
    {
      "inputs": [],
      "name": "withdraw",
      "outputs": [],
      "stateMutability": "nonpayable",
      "type": "function"
    },
    {
      "inputs": [
        {
          "internalType": "uint256",
          "name": "_round",
          "type": "uint256"
        }
      ],
      "name": "deleteRound",
      "outputs": [],
      "stateMutability": "nonpayable",
      "type": "function"
    }
  ],
  "bytecode": "0x60806040523480156200001157600080fd5b5060405162000fd638038062000fd68339818101604052810190620000379190620000c7565b806002819055506001808190555060025443620000559190620000f3565b600080600154815260200190815260200160002060000181905550600560025443620000829190620000f3565b6200008e9190620000f3565b60008060015481526020019081526020016000206001018190555050620001a3565b600081519050620000c18162000189565b92915050565b600060208284031215620000da57600080fd5b6000620000ea84828501620000b0565b91505092915050565b6000620001008262000150565b91506200010d8362000150565b9250827fffffffffffffffffffffffffffffffffffffffffffffffffffffffffffffffff038211156200014557620001446200015a565b5b828201905092915050565b6000819050919050565b7f4e487b7100000000000000000000000000000000000000000000000000000000600052601160045260246000fd5b620001948162000150565b8114620001a057600080fd5b50565b610e2380620001b36000396000f3fe6080604052600436106100a7576000357c0100000000000000000000000000000000000000000000000000000000900480633b9c0fdc116100765780633b9c0fdc146101795780633ccfd60b146101a257806360b2a56a146101b95780638c65c81f146101e2578063a6f2ae3a14610222576100b6565b80630fb5a6b4146100bb578063146ca531146100e65780631a95f15f1461011157806327e235e31461013c576100b6565b366100b6576100b461022c565b005b600080fd5b3480156100c757600080fd5b506100d0610426565b6040516100dd9190610ab0565b60405180910390f35b3480156100f257600080fd5b506100fb61042c565b6040516101089190610ab0565b60405180910390f35b34801561011d57600080fd5b50610126610432565b6040516101339190610ab0565b60405180910390f35b34801561014857600080fd5b50610163600480360381019061015e91906109cb565b61043e565b6040516101709190610ab0565b60405180910390f35b34801561018557600080fd5b506101a0600480360381019061019b91906109f4565b610456565b005b3480156101ae57600080fd5b506101b7610559565b005b3480156101c557600080fd5b506101e060048036038101906101db91906109f4565b61062c565b005b3480156101ee57600080fd5b50610209600480360381019061020491906109f4565b6108e7565b6040516102199493929190610acb565b60405180910390f35b61022a61022c565b005b600067016345785d8a0000346102429190610ce1565b14610282576040517f08c379a000000000000000000000000000000000000000000000000000000000815260040161027990610a90565b60405180910390fd5b6000806001548152602001908152602001600020600001544311156103195760018060008282546102b39190610b21565b92505081905550600254436102c89190610b21565b6000806001548152602001908152602001600020600001819055506005600254436102f39190610b21565b6102fd9190610b21565b6000806001548152602001908152602001600020600101819055505b600067016345785d8a00003461032f9190610b77565b9050600060405180604001604052803373ffffffffffffffffffffffffffffffffffffffff168152602001838152509050600080600154815260200190815260200160002060020181908060018154018082558091505060019003906000526020600020906002020160009091909190915060008201518160000160006101000a81548173ffffffffffffffffffffffffffffffffffffffff021916908373ffffffffffffffffffffffffffffffffffffffff160217905550602082015181600101555050816000806001548152602001908152602001600020600301600082825461041b9190610b21565b925050819055505050565b60025481565b60015481565b67016345785d8a000081565b60036020528060005260406000206000915090505481565b6064600080838152602001908152602001600020600101546104789190610b21565b431161048357600080fd5b600073ffffffffffffffffffffffffffffffffffffffff1660008083815260200190815260200160002060040160009054906101000a900473ffffffffffffffffffffffffffffffffffffffff1673ffffffffffffffffffffffffffffffffffffffff1614156104f257600080fd5b60008082815260200190815260200160002060008082016000905560018201600090556002820160006105259190610937565b60038201600090556004820160006101000a81549073ffffffffffffffffffffffffffffffffffffffff0219169055505050565b6000600360003373ffffffffffffffffffffffffffffffffffffffff1673ffffffffffffffffffffffffffffffffffffffff1681526020019081526020016000205490506000600360003373ffffffffffffffffffffffffffffffffffffffff1673ffffffffffffffffffffffffffffffffffffffff168152602001908152602001600020819055503373ffffffffffffffffffffffffffffffffffffffff166108fc829081150290604051600060405180830381858888f19350505050158015610628573d6000803e3d6000fd5b5050565b60008060008381526020019081526020016000209050600073ffffffffffffffffffffffffffffffffffffffff168160040160009054906101000a900473ffffffffffffffffffffffffffffffffffffffff1673ffffffffffffffffffffffffffffffffffffffff161461069f57600080fd5b806001015443116106af57600080fd5b60008160020180549050116106c357600080fd5b60008160010154406040516020016106db9190610a75565b6040516020818303038152906040528051906020012090506000826003015482600190046107099190610ce1565b905060005b836002018054905081101561084f57600084600201828154811061075b577f4e487b7100000000000000000000000000000000000000000000000000000000600052603260045260246000fd5b90600052602060002090600202016001015490508281111561082d578460020182815481106107b3577f4e487b7100000000000000000000000000000000000000000000000000000000600052603260045260246000fd5b906000526020600020906002020160000160009054906101000a900473ffffffffffffffffffffffffffffffffffffffff168560040160006101000a81548173ffffffffffffffffffffffffffffffffffffffff021916908373ffffffffffffffffffffffffffffffffffffffff1602179055505061084f565b80836108399190610c02565b925050808061084790610c8e565b91505061070e565b50826003015467016345785d8a00006108689190610ba8565b600360008560040160009054906101000a900473ffffffffffffffffffffffffffffffffffffffff1673ffffffffffffffffffffffffffffffffffffffff1673ffffffffffffffffffffffffffffffffffffffff16815260200190815260200160002060008282546108da9190610b21565b9250508190555050505050565b60006020528060005260406000206000915090508060000154908060010154908060030154908060040160009054906101000a900473ffffffffffffffffffffffffffffffffffffffff16905084565b5080546000825560020290600052602060002090810190610958919061095b565b50565b5b8082111561099d57600080820160006101000a81549073ffffffffffffffffffffffffffffffffffffffff021916905560018201600090555060020161095c565b5090565b6000813590506109b081610dbf565b92915050565b6000813590506109c581610dd6565b92915050565b6000602082840312156109dd57600080fd5b60006109eb848285016109a1565b91505092915050565b600060208284031215610a0657600080fd5b6000610a14848285016109b6565b91505092915050565b610a2681610c48565b82525050565b610a3d610a3882610c5a565b610cd7565b82525050565b6000610a50603483610b10565b9150610a5b82610d70565b604082019050919050565b610a6f81610c84565b82525050565b6000610a818284610a2c565b60208201915081905092915050565b60006020820190508181036000830152610aa981610a43565b9050919050565b6000602082019050610ac56000830184610a66565b92915050565b6000608082019050610ae06000830187610a66565b610aed6020830186610a66565b610afa6040830185610a66565b610b076060830184610a1d565b95945050505050565b600082825260208201905092915050565b6000610b2c82610c84565b9150610b3783610c84565b9250827fffffffffffffffffffffffffffffffffffffffffffffffffffffffffffffffff03821115610b6c57610b6b610d12565b5b828201905092915050565b6000610b8282610c84565b9150610b8d83610c84565b925082610b9d57610b9c610d41565b5b828204905092915050565b6000610bb382610c84565b9150610bbe83610c84565b9250817fffffffffffffffffffffffffffffffffffffffffffffffffffffffffffffffff0483118215151615610bf757610bf6610d12565b5b828202905092915050565b6000610c0d82610c84565b9150610c1883610c84565b925082821015610c2b57610c2a610d12565b5b828203905092915050565b6000610c4182610c64565b9050919050565b6000610c5382610c64565b9050919050565b6000819050919050565b600073ffffffffffffffffffffffffffffffffffffffff82169050919050565b6000819050919050565b6000610c9982610c84565b91507fffffffffffffffffffffffffffffffffffffffffffffffffffffffffffffffff821415610ccc57610ccb610d12565b5b600182019050919050565b6000819050919050565b6000610cec82610c84565b9150610cf783610c84565b925082610d0757610d06610d41565b5b828206905092915050565b7f4e487b7100000000000000000000000000000000000000000000000000000000600052601160045260246000fd5b7f4e487b7100000000000000000000000000000000000000000000000000000000600052601260045260246000fd5b7f76616c7565206d757374206265206d756c7469706c65206f662074686520544960008201527f434b45545f505249434520692e652e2031653137000000000000000000000000602082015250565b610dc881610c36565b8114610dd357600080fd5b50565b610ddf81610c84565b8114610dea57600080fd5b5056fea264697066735822122014225f9142ce376911acb7a1df4325c107f5bd58756d47fc16576825a1cbc39064736f6c63430008010033",
  "immutableReferences": {},
  "source": "// SPDX-License-Identifier: MIT\npragma solidity ^0.8.1;\n\ncontract RecurringLottery {\n  struct Round {\n    uint256 endBlock;\n    uint256 drawBlock;\n    Entry[] entries;\n    uint256 totalQuantity;\n    address payable winner;\n  }\n  struct Entry {\n    address payable buyer;\n    uint256 quantity;\n  }\n\n  uint256 public constant TICKET_PRICE = 1e17;\n  mapping(uint256 => Round) public rounds;\n  uint256 public round;\n  uint256 public duration;\n  mapping(address => uint256) public balances;\n\n  // duration is in blocks. 1 day = ~5500 blocks\n\n  constructor(uint256 _duration) {\n    duration = _duration;\n    round = 1;\n    rounds[round].endBlock = block.number + duration;\n    rounds[round].drawBlock = block.number + duration + 5;\n  }\n\n  function buy() public payable {\n    require(msg.value % TICKET_PRICE == 0, \"value must be multiple of the TICKET_PRICE i.e. 1e17\");\n    if (block.number > rounds[round].endBlock) {\n      round += 1;\n      rounds[round].endBlock = block.number + duration;\n      rounds[round].drawBlock = block.number + duration + 5;\n    }\n    uint256 quantity = msg.value / TICKET_PRICE;\n    Entry memory entry = Entry(payable(msg.sender), quantity);\n    rounds[round].entries.push(entry);\n    rounds[round].totalQuantity += quantity;\n  }\n\n  function drawWinner(uint256 roundNumber) public {\n    Round storage drawing = rounds[roundNumber];\n    require(drawing.winner == address(0));\n    require(block.number > drawing.drawBlock);\n    require(drawing.entries.length > 0);\n\n    bytes32 rand = keccak256(abi.encodePacked(blockhash(drawing.drawBlock)));\n    uint256 counter = uint256(rand) % drawing.totalQuantity;\n\n    for (uint256 i = 0; i < drawing.entries.length; i++) {\n      uint256 quantity = drawing.entries[i].quantity;\n      if (quantity > counter) {\n        drawing.winner = drawing.entries[i].buyer;\n        break;\n      } else {\n        counter -= quantity;\n      }\n    }\n    balances[drawing.winner] += TICKET_PRICE * drawing.totalQuantity;\n  }\n\n  function withdraw() public {\n    uint256 amount = balances[msg.sender];\n    balances[msg.sender] = 0;\n    payable(msg.sender).transfer(amount);\n  }\n\n  function deleteRound(uint256 _round) public {\n    require(block.number > rounds[_round].drawBlock + 100);\n    require(rounds[_round].winner != address(0));\n    delete rounds[_round];\n  }\n\n  receive() external payable {\n    buy();\n  }\n}\n",
  "sourcePath": "/Users/deveshrawat/Desktop/MyApps/learn_solidity/solidity_contracts/lottries/contracts/RecurringLottery.sol",
  "compiler": {
    "name": "solc",
    "version": "0.8.1+commit.df193b15.Linux.g++"
  },
  "schemaVersion": "3.4.5",
  "updatedAt": "2022-02-21T13:53:17.457Z",
  "devdoc": {
    "kind": "dev",
    "methods": {},
    "version": 1
  },
  "userdoc": {
    "kind": "user",
    "methods": {},
    "version": 1
  }
}