{
  "contractName": "RecurringLottery",
  "abi": [
    {
      "inputs": [
        {
          "internalType": "uint256",
          "name": "_duration",
          "type": "uint256"
        }
      ],
      "stateMutability": "nonpayable",
      "type": "constructor"
    },
    {
      "inputs": [],
      "name": "TICKET_PRICE",
      "outputs": [
        {
          "internalType": "uint256",
          "name": "",
          "type": "uint256"
        }
      ],
      "stateMutability": "view",
      "type": "function",
      "constant": true
    },
    {
      "inputs": [
        {
          "internalType": "address",
          "name": "",
          "type": "address"
        }
      ],
      "name": "balances",
      "outputs": [
        {
          "internalType": "uint256",
          "name": "",
          "type": "uint256"
        }
      ],
      "stateMutability": "view",
      "type": "function",
      "constant": true
    },
    {
      "inputs": [],
      "name": "duration",
      "outputs": [
        {
          "internalType": "uint256",
          "name": "",
          "type": "uint256"
        }
      ],
      "stateMutability": "view",
      "type": "function",
      "constant": true
    },
    {
      "inputs": [],
      "name": "round",
      "outputs": [
        {
          "internalType": "uint256",
          "name": "",
          "type": "uint256"
        }
      ],
      "stateMutability": "view",
      "type": "function",
      "constant": true
    },
    {
      "inputs": [
        {
          "internalType": "uint256",
          "name": "",
          "type": "uint256"
        }
      ],
      "name": "rounds",
      "outputs": [
        {
          "internalType": "uint256",
          "name": "endBlock",
          "type": "uint256"
        },
        {
          "internalType": "uint256",
          "name": "drawBlock",
          "type": "uint256"
        },
        {
          "internalType": "uint256",
          "name": "totalQuantity",
          "type": "uint256"
        },
        {
          "internalType": "address payable",
          "name": "winner",
          "type": "address"
        }
      ],
      "stateMutability": "view",
      "type": "function",
      "constant": true
    },
    {
      "stateMutability": "payable",
      "type": "receive",
      "payable": true
    },
    {
      "inputs": [],
      "name": "buy",
      "outputs": [],
      "stateMutability": "payable",
      "type": "function",
      "payable": true
    },
    {
      "inputs": [
        {
          "internalType": "uint256",
          "name": "roundNumber",
          "type": "uint256"
        }
      ],
      "name": "drawWinner",
      "outputs": [],
      "stateMutability": "nonpayable",
      "type": "function"
    },
    {
      "inputs": [],
      "name": "withdraw",
      "outputs": [],
      "stateMutability": "nonpayable",
      "type": "function"
    },
    {
      "inputs": [
        {
          "internalType": "uint256",
          "name": "_round",
          "type": "uint256"
        }
      ],
      "name": "deleteRound",
      "outputs": [],
      "stateMutability": "nonpayable",
      "type": "function"
    }
  ],
  "bytecode": "0x608060405234801561001057600080fd5b50604051610aec380380610aec8339818101604052602081101561003357600080fd5b810190808051906020019092919050505080600281905550600180819055506002544301600080600154815260200190815260200160002060000181905550600560025443010160008060015481526020019081526020016000206001018190555050610a47806100a56000396000f3fe6080604052600436106100a7576000357c0100000000000000000000000000000000000000000000000000000000900480633b9c0fdc116100765780633b9c0fdc146101a15780633ccfd60b146101dc57806360b2a56a146101f35780638c65c81f1461022e578063a6f2ae3a146102be576100b6565b80630fb5a6b4146100bb578063146ca531146100e65780631a95f15f1461011157806327e235e31461013c576100b6565b366100b6576100b46102c8565b005b600080fd5b3480156100c757600080fd5b506100d06104ad565b6040518082815260200191505060405180910390f35b3480156100f257600080fd5b506100fb6104b3565b6040518082815260200191505060405180910390f35b34801561011d57600080fd5b506101266104b9565b6040518082815260200191505060405180910390f35b34801561014857600080fd5b5061018b6004803603602081101561015f57600080fd5b81019080803573ffffffffffffffffffffffffffffffffffffffff1690602001909291905050506104c5565b6040518082815260200191505060405180910390f35b3480156101ad57600080fd5b506101da600480360360208110156101c457600080fd5b81019080803590602001909291905050506104dd565b005b3480156101e857600080fd5b506101f16105d7565b005b3480156101ff57600080fd5b5061022c6004803603602081101561021657600080fd5b81019080803590602001909291905050506106aa565b005b34801561023a57600080fd5b506102676004803603602081101561025157600080fd5b81019080803590602001909291905050506108eb565b604051808581526020018481526020018381526020018273ffffffffffffffffffffffffffffffffffffffff1673ffffffffffffffffffffffffffffffffffffffff16815260200194505050505060405180910390f35b6102c66102c8565b005b600067016345785d8a000034816102db57fe5b0614610332576040517f08c379a00000000000000000000000000000000000000000000000000000000081526004018080602001828103825260348152602001806109de6034913960400191505060405180910390fd5b6000806001548152602001908152602001600020600001544311156103a55760018060008282540192505081905550600254430160008060015481526020019081526020016000206000018190555060056002544301016000806001548152602001908152602001600020600101819055505b600067016345785d8a000034816103b857fe5b0490506103c361093b565b60405180604001604052803373ffffffffffffffffffffffffffffffffffffffff168152602001838152509050600080600154815260200190815260200160002060020181908060018154018082558091505060019003906000526020600020906002020160009091909190915060008201518160000160006101000a81548173ffffffffffffffffffffffffffffffffffffffff021916908373ffffffffffffffffffffffffffffffffffffffff160217905550602082015181600101555050816000806001548152602001908152602001600020600301600082825401925050819055505050565b60025481565b60015481565b67016345785d8a000081565b60036020528060005260406000206000915090505481565b60646000808381526020019081526020016000206001015401431161050157600080fd5b600073ffffffffffffffffffffffffffffffffffffffff1660008083815260200190815260200160002060040160009054906101000a900473ffffffffffffffffffffffffffffffffffffffff1673ffffffffffffffffffffffffffffffffffffffff16141561057057600080fd5b60008082815260200190815260200160002060008082016000905560018201600090556002820160006105a3919061096b565b60038201600090556004820160006101000a81549073ffffffffffffffffffffffffffffffffffffffff0219169055505050565b6000600360003373ffffffffffffffffffffffffffffffffffffffff1673ffffffffffffffffffffffffffffffffffffffff1681526020019081526020016000205490506000600360003373ffffffffffffffffffffffffffffffffffffffff1673ffffffffffffffffffffffffffffffffffffffff168152602001908152602001600020819055503373ffffffffffffffffffffffffffffffffffffffff166108fc829081150290604051600060405180830381858888f193505050501580156106a6573d6000803e3d6000fd5b5050565b60008060008381526020019081526020016000209050600073ffffffffffffffffffffffffffffffffffffffff168160040160009054906101000a900473ffffffffffffffffffffffffffffffffffffffff1673ffffffffffffffffffffffffffffffffffffffff161461071d57600080fd5b8060010154431161072d57600080fd5b600081600201805490501161074157600080fd5b6000816001015440604051602001808281526020019150506040516020818303038152906040528051906020012090506000826003015482600190048161078457fe5b06905060008090505b83600201805490508110156108655760008460020182815481106107ad57fe5b906000526020600020906002020160010154905082811115610852578460020182815481106107d857fe5b906000526020600020906002020160000160009054906101000a900473ffffffffffffffffffffffffffffffffffffffff168560040160006101000a81548173ffffffffffffffffffffffffffffffffffffffff021916908373ffffffffffffffffffffffffffffffffffffffff16021790555050610865565b808303925050808060010191505061078d565b50826003015467016345785d8a000002600360008560040160009054906101000a900473ffffffffffffffffffffffffffffffffffffffff1673ffffffffffffffffffffffffffffffffffffffff1673ffffffffffffffffffffffffffffffffffffffff1681526020019081526020016000206000828254019250508190555050505050565b60006020528060005260406000206000915090508060000154908060010154908060030154908060040160009054906101000a900473ffffffffffffffffffffffffffffffffffffffff16905084565b6040518060400160405280600073ffffffffffffffffffffffffffffffffffffffff168152602001600081525090565b508054600082556002029060005260206000209081019061098c919061098f565b50565b6109da91905b808211156109d657600080820160006101000a81549073ffffffffffffffffffffffffffffffffffffffff0219169055600182016000905550600201610995565b5090565b9056fe76616c7565206d757374206265206d756c7469706c65206f6620746865205449434b45545f505249434520692e652e2031653137a26469706673582212204b8b5c166b89eac8e96e9b646b8838940b33196d54f767cc71382c8ea110827f64736f6c63430006010033",
  "source": "pragma solidity ^0.6.1;\n\ncontract RecurringLottery{\n     struct Round {\n        uint endBlock;\n        uint drawBlock;\n        Entry[] entries;\n        uint totalQuantity;\n        address payable winner;\n    }\n\n    struct Entry {\n        address payable buyer;\n        uint quantity;\n    }\n\n    uint constant public TICKET_PRICE = 1e17;\n    mapping (uint => Round) public rounds;\n    uint public round;\n    uint public duration;\n    mapping(address => uint) public balances;\n    // duration is in blocks. 1 day = ~5500 blocks\n\n    constructor(uint _duration) public {\n        duration =_duration;\n        round =1 ;\n        rounds[round].endBlock = block.number +duration;\n        rounds[round].drawBlock = block.number + duration +5;\n    }\n\n    function buy() public payable{\n        require( msg.value % TICKET_PRICE == 0 ,'value must be multiple of the TICKET_PRICE i.e. 1e17');\n        if(block.number > rounds[round].endBlock){\n            round +=1;\n            rounds[round].endBlock = block.number + duration;\n            rounds[round].drawBlock = block.number + duration + 5;\n        }\n        uint quantity = msg.value/TICKET_PRICE;\n        Entry memory entry = Entry(msg.sender,quantity);\n        rounds[round].entries.push(entry);\n        rounds[round].totalQuantity += quantity;\n    }\n    function drawWinner(uint roundNumber) public {\n        Round storage drawing = rounds[roundNumber];\n        require(drawing.winner == address(0));\n        require(block.number > drawing.drawBlock);\n        require(drawing.entries.length >0);\n\n        bytes32 rand = keccak256(abi.encodePacked(blockhash(drawing.drawBlock)));\n        uint counter = uint(rand) % drawing.totalQuantity;\n\n        for (uint256 i = 0; i < drawing.entries.length; i++) {\n            uint quantity = drawing.entries[i].quantity;\n            if(quantity > counter) {\n                drawing.winner = drawing.entries[i].buyer;\n                break;\n            }else {\n                counter -= quantity;\n            }\n        }\n        balances[drawing.winner] += TICKET_PRICE * drawing.totalQuantity;\n    }\n\n    function withdraw () public {\n        uint amount = balances[msg.sender];\n        balances[msg.sender] = 0;\n        msg.sender.transfer(amount);\n    }\n\n    function deleteRound (uint _round) public {\n        require(block.number > rounds[_round].drawBlock + 100);\n        require(rounds[_round].winner != address(0));\n        delete rounds[_round];\n    }\n\n    receive() external payable{\n        buy();\n    }\n}\n",
  "sourcePath": "/Users/Devesh/Desktop/Learning/games_blockchain/lottries/contracts/RecurringLottery.sol",
  "compiler": {
    "name": "solc",
    "version": "0.6.1+commit.e6f7d5a4.Linux.g++"
  },
  "schemaVersion": "3.3.4",
  "updatedAt": "2021-04-16T06:25:14.832Z",
  "networkType": "ethereum",
  "devdoc": {
    "methods": {}
  },
  "userdoc": {
    "methods": {}
  }
}