{
  "contractName": "RNGLottery",
  "abi": [
    {
      "inputs": [
        {
          "internalType": "uint256",
          "name": "duration",
          "type": "uint256"
        },
        {
          "internalType": "uint256",
          "name": "revealDuration",
          "type": "uint256"
        }
      ],
      "stateMutability": "nonpayable",
      "type": "constructor"
    },
    {
      "inputs": [],
      "name": "TICKET_PRICE",
      "outputs": [
        {
          "internalType": "uint256",
          "name": "",
          "type": "uint256"
        }
      ],
      "stateMutability": "view",
      "type": "function",
      "constant": true
    },
    {
      "inputs": [
        {
          "internalType": "address",
          "name": "",
          "type": "address"
        }
      ],
      "name": "commitments",
      "outputs": [
        {
          "internalType": "bytes32",
          "name": "",
          "type": "bytes32"
        }
      ],
      "stateMutability": "view",
      "type": "function",
      "constant": true
    },
    {
      "inputs": [],
      "name": "drawBlock",
      "outputs": [
        {
          "internalType": "uint256",
          "name": "",
          "type": "uint256"
        }
      ],
      "stateMutability": "view",
      "type": "function",
      "constant": true
    },
    {
      "inputs": [],
      "name": "revealDeadline",
      "outputs": [
        {
          "internalType": "uint256",
          "name": "",
          "type": "uint256"
        }
      ],
      "stateMutability": "view",
      "type": "function",
      "constant": true
    },
    {
      "inputs": [],
      "name": "seed",
      "outputs": [
        {
          "internalType": "bytes32",
          "name": "",
          "type": "bytes32"
        }
      ],
      "stateMutability": "view",
      "type": "function",
      "constant": true
    },
    {
      "inputs": [],
      "name": "ticketDeadline",
      "outputs": [
        {
          "internalType": "uint256",
          "name": "",
          "type": "uint256"
        }
      ],
      "stateMutability": "view",
      "type": "function",
      "constant": true
    },
    {
      "inputs": [
        {
          "internalType": "uint256",
          "name": "",
          "type": "uint256"
        }
      ],
      "name": "tickets",
      "outputs": [
        {
          "internalType": "address payable",
          "name": "",
          "type": "address"
        }
      ],
      "stateMutability": "view",
      "type": "function",
      "constant": true
    },
    {
      "inputs": [
        {
          "internalType": "address",
          "name": "user",
          "type": "address"
        },
        {
          "internalType": "uint256",
          "name": "N",
          "type": "uint256"
        }
      ],
      "name": "createCommitment",
      "outputs": [
        {
          "internalType": "bytes32",
          "name": "commitment",
          "type": "bytes32"
        }
      ],
      "stateMutability": "pure",
      "type": "function",
      "constant": true
    },
    {
      "inputs": [
        {
          "internalType": "bytes32",
          "name": "commitment",
          "type": "bytes32"
        }
      ],
      "name": "buy",
      "outputs": [],
      "stateMutability": "payable",
      "type": "function",
      "payable": true
    },
    {
      "inputs": [
        {
          "internalType": "uint256",
          "name": "N",
          "type": "uint256"
        }
      ],
      "name": "reveal",
      "outputs": [],
      "stateMutability": "nonpayable",
      "type": "function"
    },
    {
      "inputs": [],
      "name": "drawWinner",
      "outputs": [],
      "stateMutability": "nonpayable",
      "type": "function"
    },
    {
      "inputs": [],
      "name": "withdraw",
      "outputs": [],
      "stateMutability": "nonpayable",
      "type": "function"
    }
  ],
  "bytecode": "0x608060405234801561001057600080fd5b5060405161085b38038061085b8339818101604052604081101561003357600080fd5b810190808051906020019092919080519060200190929190505050814301600481905550806004540160068190555060056006540160058190555050506107dc8061007f6000396000f3fe6080604052600436106100c4576000357c010000000000000000000000000000000000000000000000000000000090048063b14b28a311610081578063b14b28a31461024e578063b2185bb114610279578063c2ca0ac514610290578063e8fcf723146102cb578063ed7dd93214610330578063f5a46f471461035b576100c4565b80631a95f15f146100c95780633ccfd60b146100f457806350b447121461010b5780637d94792a1461018657806388fa7249146101b15780639c9a106114610220575b600080fd5b3480156100d557600080fd5b506100de610386565b6040518082815260200191505060405180910390f35b34801561010057600080fd5b50610109610392565b005b34801561011757600080fd5b506101446004803603602081101561012e57600080fd5b810190808035906020019092919050505061044c565b604051808273ffffffffffffffffffffffffffffffffffffffff1673ffffffffffffffffffffffffffffffffffffffff16815260200191505060405180910390f35b34801561019257600080fd5b5061019b610488565b6040518082815260200191505060405180910390f35b3480156101bd57600080fd5b5061020a600480360360408110156101d457600080fd5b81019080803573ffffffffffffffffffffffffffffffffffffffff1690602001909291908035906020019092919050505061048e565b6040518082815260200191505060405180910390f35b61024c6004803603602081101561023657600080fd5b8101908080359060200190929190505050610502565b005b34801561025a57600080fd5b5061026361056c565b6040518082815260200191505060405180910390f35b34801561028557600080fd5b5061028e610572565b005b34801561029c57600080fd5b506102c9600480360360208110156102b357600080fd5b810190808035906020019092919050505061066e565b005b3480156102d757600080fd5b5061031a600480360360208110156102ee57600080fd5b81019080803573ffffffffffffffffffffffffffffffffffffffff169060200190929190505050610782565b6040518082815260200191505060405180910390f35b34801561033c57600080fd5b5061034561079a565b6040518082815260200191505060405180910390f35b34801561036757600080fd5b506103706107a0565b6040518082815260200191505060405180910390f35b67016345785d8a000081565b600160009054906101000a900473ffffffffffffffffffffffffffffffffffffffff1673ffffffffffffffffffffffffffffffffffffffff163373ffffffffffffffffffffffffffffffffffffffff16146103ec57600080fd5b3373ffffffffffffffffffffffffffffffffffffffff166108fc3073ffffffffffffffffffffffffffffffffffffffff16319081150290604051600060405180830381858888f19350505050158015610449573d6000803e3d6000fd5b50565b6000818154811061045957fe5b906000526020600020016000915054906101000a900473ffffffffffffffffffffffffffffffffffffffff1681565b60025481565b60008282604051602001808373ffffffffffffffffffffffffffffffffffffffff1673ffffffffffffffffffffffffffffffffffffffff166c010000000000000000000000000281526014018281526020019250505060405160208183030381529060405280519060200120905092915050565b67016345785d8a0000341461051657600080fd5b60045443111561052557600080fd5b80600360003373ffffffffffffffffffffffffffffffffffffffff1673ffffffffffffffffffffffffffffffffffffffff1681526020019081526020016000208190555050565b60065481565b600554431161058057600080fd5b600073ffffffffffffffffffffffffffffffffffffffff16600160009054906101000a900473ffffffffffffffffffffffffffffffffffffffff1673ffffffffffffffffffffffffffffffffffffffff16146105db57600080fd5b6000808054905060025460019004816105f057fe5b0690506000818154811061060057fe5b9060005260206000200160009054906101000a900473ffffffffffffffffffffffffffffffffffffffff16600160006101000a81548173ffffffffffffffffffffffffffffffffffffffff021916908373ffffffffffffffffffffffffffffffffffffffff16021790555050565b600454431161067c57600080fd5b60065443111561068b57600080fd5b6000610697338361048e565b9050600360003373ffffffffffffffffffffffffffffffffffffffff1673ffffffffffffffffffffffffffffffffffffffff1681526020019081526020016000205481146106e457600080fd5b600254826040516020018083815260200182815260200192505050604051602081830303815290604052805190602001206002819055506000339080600181540180825580915050600190039060005260206000200160009091909190916101000a81548173ffffffffffffffffffffffffffffffffffffffff021916908373ffffffffffffffffffffffffffffffffffffffff1602179055505050565b60036020528060005260406000206000915090505481565b60055481565b6004548156fea2646970667358221220ec63474aa942ed6c2f93d142370e72057ef4af33a6100bcad4e722cd4e83a65c64736f6c63430006010033",
  "source": "pragma solidity ^0.6.1;\n\ncontract RNGLottery {\n  uint256 public constant TICKET_PRICE = 1e17;\n\n  address payable[] public tickets;\n  address payable winner;\n  bytes32 public seed;\n  mapping(address => bytes32) public commitments;\n\n  uint256 public ticketDeadline;\n  uint256 public drawBlock;\n  uint256 public revealDeadline;\n\n  constructor(uint256 duration, uint256 revealDuration) public {\n    ticketDeadline = block.number + duration;\n    revealDeadline = ticketDeadline + revealDuration;\n    drawBlock = revealDeadline + 5;\n  }\n\n  function createCommitment(address user, uint256 N) public pure returns (bytes32 commitment) {\n    return keccak256(abi.encodePacked(user, N));\n  }\n\n  function buy(bytes32 commitment) public payable {\n    require(msg.value == TICKET_PRICE);\n    require(block.number <= ticketDeadline);\n\n    commitments[msg.sender] = commitment;\n  }\n\n  function reveal(uint256 N) public {\n    require(block.number > ticketDeadline);\n    require(block.number <= revealDeadline);\n\n    bytes32 hash = createCommitment(msg.sender, N);\n    require(hash == commitments[msg.sender]);\n\n    seed = keccak256(abi.encodePacked(seed, N));\n    tickets.push(msg.sender);\n  }\n\n  function drawWinner() public {\n    require(block.number > drawBlock);\n    require(winner == address(0));\n\n    uint256 randIndex = uint256(seed) % tickets.length;\n    winner = tickets[randIndex];\n  }\n\n  function withdraw() public {\n    require(msg.sender == winner);\n    msg.sender.transfer(address(this).balance);\n  }\n}\n",
  "sourcePath": "/Users/Devesh/Desktop/Learning/games_blockchain/lottries/contracts/RNGLottery.sol",
  "compiler": {
    "name": "solc",
    "version": "0.6.1+commit.e6f7d5a4.Linux.g++"
  },
  "schemaVersion": "3.3.4",
  "updatedAt": "2021-04-16T11:12:48.395Z",
  "networkType": "ethereum",
  "devdoc": {
    "methods": {}
  },
  "userdoc": {
    "methods": {}
  }
}