{
  "contractName": "RNGLottery",
  "abi": [
    {
      "inputs": [
        {
          "internalType": "uint256",
          "name": "duration",
          "type": "uint256"
        },
        {
          "internalType": "uint256",
          "name": "revealDuration",
          "type": "uint256"
        }
      ],
      "stateMutability": "nonpayable",
      "type": "constructor"
    },
    {
      "inputs": [],
      "name": "TICKET_PRICE",
      "outputs": [
        {
          "internalType": "uint256",
          "name": "",
          "type": "uint256"
        }
      ],
      "stateMutability": "view",
      "type": "function"
    },
    {
      "inputs": [
        {
          "internalType": "address",
          "name": "",
          "type": "address"
        }
      ],
      "name": "commitments",
      "outputs": [
        {
          "internalType": "bytes32",
          "name": "",
          "type": "bytes32"
        }
      ],
      "stateMutability": "view",
      "type": "function"
    },
    {
      "inputs": [],
      "name": "drawBlock",
      "outputs": [
        {
          "internalType": "uint256",
          "name": "",
          "type": "uint256"
        }
      ],
      "stateMutability": "view",
      "type": "function"
    },
    {
      "inputs": [],
      "name": "revealDeadline",
      "outputs": [
        {
          "internalType": "uint256",
          "name": "",
          "type": "uint256"
        }
      ],
      "stateMutability": "view",
      "type": "function"
    },
    {
      "inputs": [],
      "name": "seed",
      "outputs": [
        {
          "internalType": "bytes32",
          "name": "",
          "type": "bytes32"
        }
      ],
      "stateMutability": "view",
      "type": "function"
    },
    {
      "inputs": [],
      "name": "ticketDeadline",
      "outputs": [
        {
          "internalType": "uint256",
          "name": "",
          "type": "uint256"
        }
      ],
      "stateMutability": "view",
      "type": "function"
    },
    {
      "inputs": [
        {
          "internalType": "uint256",
          "name": "",
          "type": "uint256"
        }
      ],
      "name": "tickets",
      "outputs": [
        {
          "internalType": "address payable",
          "name": "",
          "type": "address"
        }
      ],
      "stateMutability": "view",
      "type": "function"
    },
    {
      "inputs": [
        {
          "internalType": "address",
          "name": "user",
          "type": "address"
        },
        {
          "internalType": "uint256",
          "name": "N",
          "type": "uint256"
        }
      ],
      "name": "createCommitment",
      "outputs": [
        {
          "internalType": "bytes32",
          "name": "commitment",
          "type": "bytes32"
        }
      ],
      "stateMutability": "pure",
      "type": "function"
    },
    {
      "inputs": [
        {
          "internalType": "bytes32",
          "name": "commitment",
          "type": "bytes32"
        }
      ],
      "name": "buy",
      "outputs": [],
      "stateMutability": "payable",
      "type": "function"
    },
    {
      "inputs": [
        {
          "internalType": "uint256",
          "name": "N",
          "type": "uint256"
        }
      ],
      "name": "reveal",
      "outputs": [],
      "stateMutability": "nonpayable",
      "type": "function"
    },
    {
      "inputs": [],
      "name": "drawWinner",
      "outputs": [],
      "stateMutability": "nonpayable",
      "type": "function"
    },
    {
      "inputs": [],
      "name": "withdraw",
      "outputs": [],
      "stateMutability": "nonpayable",
      "type": "function"
    }
  ],
  "bytecode": "0x60806040523480156200001157600080fd5b5060405162000c0238038062000c02833981810160405281019062000037919062000097565b8143620000459190620000d8565b600481905550806004546200005b9190620000d8565b6006819055506005600654620000729190620000d8565b600581905550505062000188565b60008151905062000091816200016e565b92915050565b60008060408385031215620000ab57600080fd5b6000620000bb8582860162000080565b9250506020620000ce8582860162000080565b9150509250929050565b6000620000e58262000135565b9150620000f28362000135565b9250827fffffffffffffffffffffffffffffffffffffffffffffffffffffffffffffffff038211156200012a57620001296200013f565b5b828201905092915050565b6000819050919050565b7f4e487b7100000000000000000000000000000000000000000000000000000000600052601160045260246000fd5b620001798162000135565b81146200018557600080fd5b50565b610a6a80620001986000396000f3fe6080604052600436106100c4576000357c010000000000000000000000000000000000000000000000000000000090048063b14b28a311610081578063b14b28a3146101cc578063b2185bb1146101f7578063c2ca0ac51461020e578063e8fcf72314610237578063ed7dd93214610274578063f5a46f471461029f576100c4565b80631a95f15f146100c95780633ccfd60b146100f457806350b447121461010b5780637d94792a1461014857806388fa7249146101735780639c9a1061146101b0575b600080fd5b3480156100d557600080fd5b506100de6102ca565b6040516100eb91906108cb565b60405180910390f35b34801561010057600080fd5b506101096102d6565b005b34801561011757600080fd5b50610132600480360381019061012d91906107a2565b610390565b60405161013f9190610895565b60405180910390f35b34801561015457600080fd5b5061015d6103cf565b60405161016a91906108b0565b60405180910390f35b34801561017f57600080fd5b5061019a6004803603810190610195919061073d565b6103d5565b6040516101a791906108b0565b60405180910390f35b6101ca60048036038101906101c59190610779565b610408565b005b3480156101d857600080fd5b506101e1610472565b6040516101ee91906108cb565b60405180910390f35b34801561020357600080fd5b5061020c610478565b005b34801561021a57600080fd5b50610235600480360381019061023091906107a2565b6105a3565b005b34801561024357600080fd5b5061025e60048036038101906102599190610714565b6106b1565b60405161026b91906108b0565b60405180910390f35b34801561028057600080fd5b506102896106c9565b60405161029691906108cb565b60405180910390f35b3480156102ab57600080fd5b506102b46106cf565b6040516102c191906108cb565b60405180910390f35b67016345785d8a000081565b600160009054906101000a900473ffffffffffffffffffffffffffffffffffffffff1673ffffffffffffffffffffffffffffffffffffffff163373ffffffffffffffffffffffffffffffffffffffff161461033057600080fd5b3373ffffffffffffffffffffffffffffffffffffffff166108fc3073ffffffffffffffffffffffffffffffffffffffff16319081150290604051600060405180830381858888f1935050505015801561038d573d6000803e3d6000fd5b50565b600081815481106103a057600080fd5b906000526020600020016000915054906101000a900473ffffffffffffffffffffffffffffffffffffffff1681565b60025481565b600082826040516020016103ea92919061083d565b60405160208183030381529060405280519060200120905092915050565b67016345785d8a0000341461041c57600080fd5b60045443111561042b57600080fd5b80600360003373ffffffffffffffffffffffffffffffffffffffff1673ffffffffffffffffffffffffffffffffffffffff1681526020019081526020016000208190555050565b60065481565b600554431161048657600080fd5b600073ffffffffffffffffffffffffffffffffffffffff16600160009054906101000a900473ffffffffffffffffffffffffffffffffffffffff1673ffffffffffffffffffffffffffffffffffffffff16146104e157600080fd5b60008080549050600254600190046104f99190610976565b905060008181548110610535577f4e487b7100000000000000000000000000000000000000000000000000000000600052603260045260246000fd5b9060005260206000200160009054906101000a900473ffffffffffffffffffffffffffffffffffffffff16600160006101000a81548173ffffffffffffffffffffffffffffffffffffffff021916908373ffffffffffffffffffffffffffffffffffffffff16021790555050565b60045443116105b157600080fd5b6006544311156105c057600080fd5b60006105cc33836103d5565b9050600360003373ffffffffffffffffffffffffffffffffffffffff1673ffffffffffffffffffffffffffffffffffffffff16815260200190815260200160002054811461061957600080fd5b6002548260405160200161062e929190610869565b604051602081830303815290604052805190602001206002819055506000339080600181540180825580915050600190039060005260206000200160009091909190916101000a81548173ffffffffffffffffffffffffffffffffffffffff021916908373ffffffffffffffffffffffffffffffffffffffff1602179055505050565b60036020528060005260406000206000915090505481565b60055481565b60045481565b6000813590506106e4816109ef565b92915050565b6000813590506106f981610a06565b92915050565b60008135905061070e81610a1d565b92915050565b60006020828403121561072657600080fd5b6000610734848285016106d5565b91505092915050565b6000806040838503121561075057600080fd5b600061075e858286016106d5565b925050602061076f858286016106ff565b9150509250929050565b60006020828403121561078b57600080fd5b6000610799848285016106ea565b91505092915050565b6000602082840312156107b457600080fd5b60006107c2848285016106ff565b91505092915050565b6107d4816108f8565b82525050565b6107eb6107e6826108e6565b61093e565b82525050565b6107fa8161090a565b82525050565b61081161080c8261090a565b610950565b82525050565b61082081610934565b82525050565b61083761083282610934565b61096c565b82525050565b600061084982856107da565b6014820191506108598284610826565b6020820191508190509392505050565b60006108758285610800565b6020820191506108858284610826565b6020820191508190509392505050565b60006020820190506108aa60008301846107cb565b92915050565b60006020820190506108c560008301846107f1565b92915050565b60006020820190506108e06000830184610817565b92915050565b60006108f182610914565b9050919050565b600061090382610914565b9050919050565b6000819050919050565b600073ffffffffffffffffffffffffffffffffffffffff82169050919050565b6000819050919050565b60006109498261095a565b9050919050565b6000819050919050565b6000610965826109d6565b9050919050565b6000819050919050565b600061098182610934565b915061098c83610934565b92508261099c5761099b6109a7565b5b828206905092915050565b7f4e487b7100000000000000000000000000000000000000000000000000000000600052601260045260246000fd5b60006c0100000000000000000000000082029050919050565b6109f8816108e6565b8114610a0357600080fd5b50565b610a0f8161090a565b8114610a1a57600080fd5b50565b610a2681610934565b8114610a3157600080fd5b5056fea26469706673582212200a7aa59fca85b9627ad42c4350c4212a8c0e8dc4b7235094d09643ef9a10a42a64736f6c63430008010033",
  "immutableReferences": {},
  "source": "// SPDX-License-Identifier: MIT\npragma solidity ^0.8.1;\n\ncontract RNGLottery {\n  uint256 public constant TICKET_PRICE = 1e17;\n\n  address payable[] public tickets;\n  address payable winner;\n  bytes32 public seed;\n  mapping(address => bytes32) public commitments;\n\n  uint256 public ticketDeadline;\n  uint256 public drawBlock;\n  uint256 public revealDeadline;\n\n  constructor(uint256 duration, uint256 revealDuration) {\n    ticketDeadline = block.number + duration;\n    revealDeadline = ticketDeadline + revealDuration;\n    drawBlock = revealDeadline + 5;\n  }\n\n  function createCommitment(address user, uint256 N) public pure returns (bytes32 commitment) {\n    return keccak256(abi.encodePacked(user, N));\n  }\n\n  function buy(bytes32 commitment) public payable {\n    require(msg.value == TICKET_PRICE);\n    require(block.number <= ticketDeadline);\n\n    commitments[msg.sender] = commitment;\n  }\n\n  function reveal(uint256 N) public {\n    require(block.number > ticketDeadline);\n    require(block.number <= revealDeadline);\n\n    bytes32 hash = createCommitment(msg.sender, N);\n    require(hash == commitments[msg.sender]);\n\n    seed = keccak256(abi.encodePacked(seed, N));\n    tickets.push(payable(msg.sender));\n  }\n\n  function drawWinner() public {\n    require(block.number > drawBlock);\n    require(winner == address(0));\n\n    uint256 randIndex = uint256(seed) % tickets.length;\n    winner = tickets[randIndex];\n  }\n\n  function withdraw() public {\n    require(msg.sender == winner);\n    payable(msg.sender).transfer(address(this).balance);\n  }\n}\n",
  "sourcePath": "/Users/deveshrawat/Desktop/MyApps/learn_solidity/solidity_contracts/lottries/contracts/RNGLottery.sol",
  "compiler": {
    "name": "solc",
    "version": "0.8.1+commit.df193b15.Linux.g++"
  },
  "schemaVersion": "3.4.5",
  "updatedAt": "2022-02-21T13:53:17.452Z",
  "devdoc": {
    "kind": "dev",
    "methods": {},
    "version": 1
  },
  "userdoc": {
    "kind": "user",
    "methods": {},
    "version": 1
  }
}