{
  "contractName": "SimpleLottery",
  "abi": [
    {
      "inputs": [
        {
          "internalType": "uint256",
          "name": "duration",
          "type": "uint256"
        }
      ],
      "stateMutability": "nonpayable",
      "type": "constructor"
    },
    {
      "inputs": [],
      "name": "TICKIT_PRICE",
      "outputs": [
        {
          "internalType": "uint256",
          "name": "",
          "type": "uint256"
        }
      ],
      "stateMutability": "view",
      "type": "function"
    },
    {
      "inputs": [],
      "name": "ticketingCloses",
      "outputs": [
        {
          "internalType": "uint256",
          "name": "",
          "type": "uint256"
        }
      ],
      "stateMutability": "view",
      "type": "function"
    },
    {
      "inputs": [
        {
          "internalType": "uint256",
          "name": "",
          "type": "uint256"
        }
      ],
      "name": "tickets",
      "outputs": [
        {
          "internalType": "address payable",
          "name": "",
          "type": "address"
        }
      ],
      "stateMutability": "view",
      "type": "function"
    },
    {
      "inputs": [],
      "name": "winner",
      "outputs": [
        {
          "internalType": "address payable",
          "name": "",
          "type": "address"
        }
      ],
      "stateMutability": "view",
      "type": "function"
    },
    {
      "stateMutability": "payable",
      "type": "receive"
    },
    {
      "inputs": [],
      "name": "buy",
      "outputs": [],
      "stateMutability": "payable",
      "type": "function"
    },
    {
      "inputs": [],
      "name": "drawWinner",
      "outputs": [],
      "stateMutability": "nonpayable",
      "type": "function"
    },
    {
      "inputs": [],
      "name": "withdraw",
      "outputs": [],
      "stateMutability": "nonpayable",
      "type": "function"
    }
  ],
  "bytecode": "0x608060405234801561001057600080fd5b506040516109263803806109268339818101604052810190610032919061005f565b804261003e9190610088565b6002819055505061012e565b60008151905061005981610117565b92915050565b60006020828403121561007157600080fd5b600061007f8482850161004a565b91505092915050565b6000610093826100de565b915061009e836100de565b9250827fffffffffffffffffffffffffffffffffffffffffffffffffffffffffffffffff038211156100d3576100d26100e8565b5b828201905092915050565b6000819050919050565b7f4e487b7100000000000000000000000000000000000000000000000000000000600052601160045260246000fd5b610120816100de565b811461012b57600080fd5b50565b6107e98061013d6000396000f3fe608060405260043610610091576000357c010000000000000000000000000000000000000000000000000000000090048063b2185bb11161006b578063b2185bb114610103578063dfbf53ae1461011a578063f3d7a2c414610145578063fdbbfbc614610170576100a0565b80633ccfd60b146100a557806350b44712146100bc578063a6f2ae3a146100f9576100a0565b366100a05761009e61019b565b005b600080fd5b3480156100b157600080fd5b506100ba610221565b005b3480156100c857600080fd5b506100e360048036038101906100de9190610507565b6102db565b6040516100f091906105a3565b60405180910390f35b61010161019b565b005b34801561010f57600080fd5b5061011861031a565b005b34801561012657600080fd5b5061012f6104bb565b60405161013c91906105a3565b60405180910390f35b34801561015157600080fd5b5061015a6104e1565b60405161016791906105de565b60405180910390f35b34801561017c57600080fd5b506101856104ec565b60405161019291906105de565b60405180910390f35b662386f26fc1000034146101ae57600080fd5b60025442106101bc57600080fd5b6000339080600181540180825580915050600190039060005260206000200160009091909190916101000a81548173ffffffffffffffffffffffffffffffffffffffff021916908373ffffffffffffffffffffffffffffffffffffffff160217905550565b600160009054906101000a900473ffffffffffffffffffffffffffffffffffffffff1673ffffffffffffffffffffffffffffffffffffffff163373ffffffffffffffffffffffffffffffffffffffff161461027b57600080fd5b3373ffffffffffffffffffffffffffffffffffffffff166108fc3073ffffffffffffffffffffffffffffffffffffffff16319081150290604051600060405180830381858888f193505050501580156102d8573d6000803e3d6000fd5b50565b600081815481106102eb57600080fd5b906000526020600020016000915054906101000a900473ffffffffffffffffffffffffffffffffffffffff1681565b603c600254610329919061060a565b421161036a576040517f08c379a0000000000000000000000000000000000000000000000000000000008152600401610361906105be565b60405180910390fd5b600073ffffffffffffffffffffffffffffffffffffffff16600160009054906101000a900473ffffffffffffffffffffffffffffffffffffffff1673ffffffffffffffffffffffffffffffffffffffff16146103c557600080fd5b6001436103d29190610660565b406040516020016103e39190610588565b60405160208183030381529060405280519060200120600381905550600080805490506003546001900461041791906106e4565b8154811061044e577f4e487b7100000000000000000000000000000000000000000000000000000000600052603260045260246000fd5b9060005260206000200160009054906101000a900473ffffffffffffffffffffffffffffffffffffffff16600160006101000a81548173ffffffffffffffffffffffffffffffffffffffff021916908373ffffffffffffffffffffffffffffffffffffffff160217905550565b600160009054906101000a900473ffffffffffffffffffffffffffffffffffffffff1681565b662386f26fc1000081565b60025481565b6000813590506105018161079c565b92915050565b60006020828403121561051957600080fd5b6000610527848285016104f2565b91505092915050565b61053981610694565b82525050565b61055061054b826106a6565b6106da565b82525050565b60006105636016836105f9565b915061056e82610773565b602082019050919050565b610582816106d0565b82525050565b6000610594828461053f565b60208201915081905092915050565b60006020820190506105b86000830184610530565b92915050565b600060208201905081810360008301526105d781610556565b9050919050565b60006020820190506105f36000830184610579565b92915050565b600082825260208201905092915050565b6000610615826106d0565b9150610620836106d0565b9250827fffffffffffffffffffffffffffffffffffffffffffffffffffffffffffffffff0382111561065557610654610715565b5b828201905092915050565b600061066b826106d0565b9150610676836106d0565b92508282101561068957610688610715565b5b828203905092915050565b600061069f826106b0565b9050919050565b6000819050919050565b600073ffffffffffffffffffffffffffffffffffffffff82169050919050565b6000819050919050565b6000819050919050565b60006106ef826106d0565b91506106fa836106d0565b92508261070a57610709610744565b5b828206905092915050565b7f4e487b7100000000000000000000000000000000000000000000000000000000600052601160045260246000fd5b7f4e487b7100000000000000000000000000000000000000000000000000000000600052601260045260246000fd5b7f74696d65206973207374696c6c207469636b696e672100000000000000000000600082015250565b6107a5816106d0565b81146107b057600080fd5b5056fea2646970667358221220bc9a3491d1845a27b419ccc6ffef9193a0d522de75446f9bad8447b4a8dde87d64736f6c63430008010033",
  "immutableReferences": {},
  "source": "// SPDX-License-Identifier: MIT\npragma solidity ^0.8.1;\n\ncontract SimpleLottery {\n  //Sets the ticket price for lottery to subscribe\n  uint256 public constant TICKIT_PRICE = 1e16;\n\n  address payable[] public tickets;\n  address payable public winner;\n  uint256 public ticketingCloses;\n  bytes32 private rand;\n\n  constructor(uint256 duration) {\n    ticketingCloses = block.timestamp + duration;\n  }\n\n  function buy() public payable {\n    require(msg.value == TICKIT_PRICE);\n    require(block.timestamp < ticketingCloses);\n    tickets.push(payable(msg.sender));\n  }\n\n  function drawWinner() public {\n    require(block.timestamp > ticketingCloses + 1 minutes, \"time is still ticking!\");\n    require(winner == address(0));\n    rand = keccak256(abi.encodePacked(blockhash(block.number - 1)));\n    winner = tickets[uint256(rand) % tickets.length];\n  }\n\n  function withdraw() public {\n    require(msg.sender == winner);\n    payable(msg.sender).transfer(address(this).balance);\n  }\n\n  receive() external payable {\n    buy();\n  }\n}\n",
  "sourcePath": "/Users/deveshrawat/Desktop/MyApps/learn_solidity/solidity_contracts/lottries/contracts/SimpleLottery.sol",
  "compiler": {
    "name": "solc",
    "version": "0.8.1+commit.df193b15.Linux.g++"
  },
  "schemaVersion": "3.4.5",
  "updatedAt": "2022-02-21T13:53:17.461Z",
  "devdoc": {
    "kind": "dev",
    "methods": {},
    "version": 1
  },
  "userdoc": {
    "kind": "user",
    "methods": {},
    "version": 1
  }
}