{
  "contractName": "SimpleLottery",
  "abi": [
    {
      "inputs": [
        {
          "internalType": "uint256",
          "name": "duration",
          "type": "uint256"
        }
      ],
      "stateMutability": "nonpayable",
      "type": "constructor"
    },
    {
      "inputs": [],
      "name": "TICKIT_PRICE",
      "outputs": [
        {
          "internalType": "uint256",
          "name": "",
          "type": "uint256"
        }
      ],
      "stateMutability": "view",
      "type": "function",
      "constant": true
    },
    {
      "inputs": [],
      "name": "ticketingCloses",
      "outputs": [
        {
          "internalType": "uint256",
          "name": "",
          "type": "uint256"
        }
      ],
      "stateMutability": "view",
      "type": "function",
      "constant": true
    },
    {
      "inputs": [
        {
          "internalType": "uint256",
          "name": "",
          "type": "uint256"
        }
      ],
      "name": "tickets",
      "outputs": [
        {
          "internalType": "address payable",
          "name": "",
          "type": "address"
        }
      ],
      "stateMutability": "view",
      "type": "function",
      "constant": true
    },
    {
      "inputs": [],
      "name": "winner",
      "outputs": [
        {
          "internalType": "address payable",
          "name": "",
          "type": "address"
        }
      ],
      "stateMutability": "view",
      "type": "function",
      "constant": true
    },
    {
      "stateMutability": "payable",
      "type": "receive",
      "payable": true
    },
    {
      "inputs": [],
      "name": "buy",
      "outputs": [],
      "stateMutability": "payable",
      "type": "function",
      "payable": true
    },
    {
      "inputs": [],
      "name": "drawWinner",
      "outputs": [],
      "stateMutability": "nonpayable",
      "type": "function"
    },
    {
      "inputs": [],
      "name": "withdraw",
      "outputs": [],
      "stateMutability": "nonpayable",
      "type": "function"
    }
  ],
  "bytecode": "0x608060405234801561001057600080fd5b506040516105de3803806105de8339818101604052602081101561003357600080fd5b8101908080519060200190929190505050804201600281905550506105818061005d6000396000f3fe608060405260043610610091576000357c010000000000000000000000000000000000000000000000000000000090048063b2185bb11161006b578063b2185bb114610141578063dfbf53ae14610158578063f3d7a2c4146101af578063fdbbfbc6146101da576100a0565b80633ccfd60b146100a557806350b44712146100bc578063a6f2ae3a14610137576100a0565b366100a05761009e610205565b005b600080fd5b3480156100b157600080fd5b506100ba61028b565b005b3480156100c857600080fd5b506100f5600480360360208110156100df57600080fd5b8101908080359060200190929190505050610345565b604051808273ffffffffffffffffffffffffffffffffffffffff1673ffffffffffffffffffffffffffffffffffffffff16815260200191505060405180910390f35b61013f610205565b005b34801561014d57600080fd5b50610156610381565b005b34801561016457600080fd5b5061016d610514565b604051808273ffffffffffffffffffffffffffffffffffffffff1673ffffffffffffffffffffffffffffffffffffffff16815260200191505060405180910390f35b3480156101bb57600080fd5b506101c461053a565b6040518082815260200191505060405180910390f35b3480156101e657600080fd5b506101ef610545565b6040518082815260200191505060405180910390f35b662386f26fc10000341461021857600080fd5b600254421061022657600080fd5b6000339080600181540180825580915050600190039060005260206000200160009091909190916101000a81548173ffffffffffffffffffffffffffffffffffffffff021916908373ffffffffffffffffffffffffffffffffffffffff160217905550565b600160009054906101000a900473ffffffffffffffffffffffffffffffffffffffff1673ffffffffffffffffffffffffffffffffffffffff163373ffffffffffffffffffffffffffffffffffffffff16146102e557600080fd5b3373ffffffffffffffffffffffffffffffffffffffff166108fc3073ffffffffffffffffffffffffffffffffffffffff16319081150290604051600060405180830381858888f19350505050158015610342573d6000803e3d6000fd5b50565b6000818154811061035257fe5b906000526020600020016000915054906101000a900473ffffffffffffffffffffffffffffffffffffffff1681565b603c6002540142116103fb576040517f08c379a00000000000000000000000000000000000000000000000000000000081526004018080602001828103825260168152602001807f74696d65206973207374696c6c207469636b696e67210000000000000000000081525060200191505060405180910390fd5b600073ffffffffffffffffffffffffffffffffffffffff16600160009054906101000a900473ffffffffffffffffffffffffffffffffffffffff1673ffffffffffffffffffffffffffffffffffffffff161461045657600080fd5b6001430340604051602001808281526020019150506040516020818303038152906040528051906020012060038190555060008080549050600354600190048161049c57fe5b06815481106104a757fe5b9060005260206000200160009054906101000a900473ffffffffffffffffffffffffffffffffffffffff16600160006101000a81548173ffffffffffffffffffffffffffffffffffffffff021916908373ffffffffffffffffffffffffffffffffffffffff160217905550565b600160009054906101000a900473ffffffffffffffffffffffffffffffffffffffff1681565b662386f26fc1000081565b6002548156fea2646970667358221220a6e62a9e6d1da42ed645d4fa822b0d35af697a8e2d352aeaebf74efb0dffd3ac64736f6c63430006010033",
  "source": "pragma solidity ^0.6.1;\n\ncontract SimpleLottery {\n    uint public constant TICKIT_PRICE = 1e16;\n\n    address payable [] public tickets;\n    address payable public winner;\n    uint public ticketingCloses;\n    bytes32 private rand;\n\n    constructor(uint duration) public{\n        ticketingCloses = now + duration;\n    }\n\n    function buy() public payable {\n        require( msg.value == TICKIT_PRICE);\n        require(now < ticketingCloses);\n        tickets.push(msg.sender);\n    }\n\n    function drawWinner() public {\n        require( now > ticketingCloses + 1 minutes,'time is still ticking!');\n        require(winner == address(0));\n        rand = keccak256(abi.encodePacked(blockhash(block.number -1)) );\n        winner =  tickets[uint(rand) % tickets.length];\n    }\n\n    function withdraw() public {\n        require(msg.sender == winner);\n        msg.sender.transfer(address(this).balance);\n    }\n\n    receive() external payable {\n        buy();\n    }\n}\n\n\n",
  "sourcePath": "/Users/Devesh/Desktop/Learning/games_blockchain/lottries/contracts/SimpleLottery.sol",
  "compiler": {
    "name": "solc",
    "version": "0.6.1+commit.e6f7d5a4.Linux.g++"
  },
  "schemaVersion": "3.3.4",
  "updatedAt": "2021-04-16T06:25:14.828Z",
  "networkType": "ethereum",
  "devdoc": {
    "methods": {}
  },
  "userdoc": {
    "methods": {}
  }
}