{
  "contractName": "CommitRevealPuzzle",
  "abi": [
    {
      "inputs": [
        {
          "internalType": "bytes32",
          "name": "_commitment",
          "type": "bytes32"
        }
      ],
      "stateMutability": "payable",
      "type": "constructor",
      "payable": true
    },
    {
      "inputs": [],
      "name": "GUESS_DURATION_BLOCKS",
      "outputs": [
        {
          "internalType": "uint256",
          "name": "",
          "type": "uint256"
        }
      ],
      "stateMutability": "view",
      "type": "function",
      "constant": true
    },
    {
      "inputs": [],
      "name": "REVEAL_DURATION_BLOCKS",
      "outputs": [
        {
          "internalType": "uint256",
          "name": "",
          "type": "uint256"
        }
      ],
      "stateMutability": "view",
      "type": "function",
      "constant": true
    },
    {
      "inputs": [
        {
          "internalType": "address",
          "name": "",
          "type": "address"
        }
      ],
      "name": "claimed",
      "outputs": [
        {
          "internalType": "bool",
          "name": "",
          "type": "bool"
        }
      ],
      "stateMutability": "view",
      "type": "function",
      "constant": true
    },
    {
      "inputs": [
        {
          "internalType": "address",
          "name": "",
          "type": "address"
        }
      ],
      "name": "commitments",
      "outputs": [
        {
          "internalType": "bytes32",
          "name": "",
          "type": "bytes32"
        }
      ],
      "stateMutability": "view",
      "type": "function",
      "constant": true
    },
    {
      "inputs": [],
      "name": "creator",
      "outputs": [
        {
          "internalType": "address",
          "name": "",
          "type": "address"
        }
      ],
      "stateMutability": "view",
      "type": "function",
      "constant": true
    },
    {
      "inputs": [],
      "name": "guessDeadline",
      "outputs": [
        {
          "internalType": "uint256",
          "name": "",
          "type": "uint256"
        }
      ],
      "stateMutability": "view",
      "type": "function",
      "constant": true
    },
    {
      "inputs": [],
      "name": "revealDeadline",
      "outputs": [
        {
          "internalType": "uint256",
          "name": "",
          "type": "uint256"
        }
      ],
      "stateMutability": "view",
      "type": "function",
      "constant": true
    },
    {
      "inputs": [],
      "name": "totalPrize",
      "outputs": [
        {
          "internalType": "uint256",
          "name": "",
          "type": "uint256"
        }
      ],
      "stateMutability": "view",
      "type": "function",
      "constant": true
    },
    {
      "inputs": [
        {
          "internalType": "uint256",
          "name": "",
          "type": "uint256"
        }
      ],
      "name": "winners",
      "outputs": [
        {
          "internalType": "address payable",
          "name": "",
          "type": "address"
        }
      ],
      "stateMutability": "view",
      "type": "function",
      "constant": true
    },
    {
      "stateMutability": "payable",
      "type": "receive",
      "payable": true
    },
    {
      "inputs": [
        {
          "internalType": "address",
          "name": "user",
          "type": "address"
        },
        {
          "internalType": "uint256",
          "name": "answer",
          "type": "uint256"
        }
      ],
      "name": "createCommitment",
      "outputs": [
        {
          "internalType": "bytes32",
          "name": "",
          "type": "bytes32"
        }
      ],
      "stateMutability": "pure",
      "type": "function",
      "constant": true
    },
    {
      "inputs": [
        {
          "internalType": "bytes32",
          "name": "_commitments",
          "type": "bytes32"
        }
      ],
      "name": "guess",
      "outputs": [],
      "stateMutability": "nonpayable",
      "type": "function"
    },
    {
      "inputs": [
        {
          "internalType": "uint256",
          "name": "answer",
          "type": "uint256"
        }
      ],
      "name": "reveal",
      "outputs": [],
      "stateMutability": "nonpayable",
      "type": "function"
    },
    {
      "inputs": [],
      "name": "claim",
      "outputs": [],
      "stateMutability": "nonpayable",
      "type": "function"
    },
    {
      "inputs": [
        {
          "internalType": "address",
          "name": "user",
          "type": "address"
        }
      ],
      "name": "isWinner",
      "outputs": [
        {
          "internalType": "bool",
          "name": "",
          "type": "bool"
        }
      ],
      "stateMutability": "view",
      "type": "function",
      "constant": true
    }
  ],
  "bytecode": "0x6080604052604051610b3c380380610b3c8339818101604052602081101561002657600080fd5b8101908080519060200190929190505050336000806101000a81548173ffffffffffffffffffffffffffffffffffffffff021916908373ffffffffffffffffffffffffffffffffffffffff16021790555080600460003373ffffffffffffffffffffffffffffffffffffffff1673ffffffffffffffffffffffffffffffffffffffff1681526020019081526020016000208190555060054301600181905550600543016002819055503460036000828254019250508190555050610a4d806100ef6000396000f3fe6080604052600436106100fe576000357c0100000000000000000000000000000000000000000000000000000000900480639d9ca28d1161009c578063c2ca0ac511610076578063c2ca0ac5146103b2578063c884ef83146103ed578063e4aa533e14610456578063e8fcf7231461049157610115565b80639d9ca28d146102a3578063a2fb11751461030c578063b14b28a31461038757610115565b80634e71d92d116100d85780634e71d92d146101c75780637ac01d4e146101de57806382b1ad501461020957806388fa72491461023457610115565b806302d05d3f1461011a5780633c18ac271461017157806341b5100d1461019c57610115565b366101155734600360008282540192505081905550005b600080fd5b34801561012657600080fd5b5061012f6104f6565b604051808273ffffffffffffffffffffffffffffffffffffffff1673ffffffffffffffffffffffffffffffffffffffff16815260200191505060405180910390f35b34801561017d57600080fd5b5061018661051b565b6040518082815260200191505060405180910390f35b3480156101a857600080fd5b506101b1610520565b6040518082815260200191505060405180910390f35b3480156101d357600080fd5b506101dc610526565b005b3480156101ea57600080fd5b506101f361065a565b6040518082815260200191505060405180910390f35b34801561021557600080fd5b5061021e61065f565b6040518082815260200191505060405180910390f35b34801561024057600080fd5b5061028d6004803603604081101561025757600080fd5b81019080803573ffffffffffffffffffffffffffffffffffffffff16906020019092919080359060200190929190505050610665565b6040518082815260200191505060405180910390f35b3480156102af57600080fd5b506102f2600480360360208110156102c657600080fd5b81019080803573ffffffffffffffffffffffffffffffffffffffff1690602001909291905050506106ca565b604051808215151515815260200191505060405180910390f35b34801561031857600080fd5b506103456004803603602081101561032f57600080fd5b810190808035906020019092919050505061076f565b604051808273ffffffffffffffffffffffffffffffffffffffff1673ffffffffffffffffffffffffffffffffffffffff16815260200191505060405180910390f35b34801561039357600080fd5b5061039c6107ab565b6040518082815260200191505060405180910390f35b3480156103be57600080fd5b506103eb600480360360208110156103d557600080fd5b81019080803590602001909291905050506107b1565b005b3480156103f957600080fd5b5061043c6004803603602081101561041057600080fd5b81019080803573ffffffffffffffffffffffffffffffffffffffff169060200190929190505050610930565b604051808215151515815260200191505060405180910390f35b34801561046257600080fd5b5061048f6004803603602081101561047957600080fd5b8101908080359060200190929190505050610950565b005b34801561049d57600080fd5b506104e0600480360360208110156104b457600080fd5b81019080803573ffffffffffffffffffffffffffffffffffffffff1690602001909291905050506109ff565b6040518082815260200191505060405180910390f35b6000809054906101000a900473ffffffffffffffffffffffffffffffffffffffff1681565b600581565b60015481565b600254431161053457600080fd5b60001515600660003373ffffffffffffffffffffffffffffffffffffffff1673ffffffffffffffffffffffffffffffffffffffff16815260200190815260200160002060009054906101000a900460ff1615151461059157600080fd5b61059a336106ca565b6105a357600080fd5b6000600580549050600354816105b557fe5b0490506001600660003373ffffffffffffffffffffffffffffffffffffffff1673ffffffffffffffffffffffffffffffffffffffff16815260200190815260200160002060006101000a81548160ff0219169083151502179055503373ffffffffffffffffffffffffffffffffffffffff166108fc829081150290604051600060405180830381858888f19350505050158015610656573d6000803e3d6000fd5b5050565b600581565b60035481565b60008282604051602001808373ffffffffffffffffffffffffffffffffffffffff1673ffffffffffffffffffffffffffffffffffffffff1681526020018281526020019250505060405160208183030381529060405280519060200120905092915050565b6000806000905060008090505b600580549050811015610765578373ffffffffffffffffffffffffffffffffffffffff166005828154811061070857fe5b9060005260206000200160009054906101000a900473ffffffffffffffffffffffffffffffffffffffff1673ffffffffffffffffffffffffffffffffffffffff1614156107585760019150610765565b80806001019150506106d7565b5080915050919050565b6005818154811061077c57fe5b906000526020600020016000915054906101000a900473ffffffffffffffffffffffffffffffffffffffff1681565b60025481565b60015443116107bf57600080fd5b60025443106107cd57600080fd5b600460003373ffffffffffffffffffffffffffffffffffffffff1673ffffffffffffffffffffffffffffffffffffffff168152602001908152602001600020546108173383610665565b1461082157600080fd5b600460008060009054906101000a900473ffffffffffffffffffffffffffffffffffffffff1673ffffffffffffffffffffffffffffffffffffffff1673ffffffffffffffffffffffffffffffffffffffff168152602001908152602001600020546108ad6000809054906101000a900473ffffffffffffffffffffffffffffffffffffffff1683610665565b146108b757600080fd5b6108c0336106ca565b156108ca57600080fd5b6005339080600181540180825580915050600190039060005260206000200160009091909190916101000a81548173ffffffffffffffffffffffffffffffffffffffff021916908373ffffffffffffffffffffffffffffffffffffffff16021790555050565b60066020528060005260406000206000915054906101000a900460ff1681565b600154431061095e57600080fd5b6000809054906101000a900473ffffffffffffffffffffffffffffffffffffffff1673ffffffffffffffffffffffffffffffffffffffff163373ffffffffffffffffffffffffffffffffffffffff1614156109b857600080fd5b80600460003373ffffffffffffffffffffffffffffffffffffffff1673ffffffffffffffffffffffffffffffffffffffff1681526020019081526020016000208190555050565b6004602052806000526040600020600091509050548156fea26469706673582212202a6680a9678d36bd4f07b29e4a9972f4addc69645b7dcf7b1d81b873a32dc45f64736f6c63430006030033",
  "source": "pragma solidity ^0.6.1;\n\ncontract CommitRevealPuzzle {\n  uint256 public constant GUESS_DURATION_BLOCKS = 5;\n  uint256 public constant REVEAL_DURATION_BLOCKS = 5;\n\n  address public creator;\n  uint256 public guessDeadline;\n  uint256 public revealDeadline;\n  uint256 public totalPrize;\n\n  mapping(address => bytes32) public commitments;\n  address payable[] public winners;\n  mapping(address => bool) public claimed;\n\n  constructor(bytes32 _commitment) public payable {\n    creator = msg.sender;\n    commitments[msg.sender] = _commitment;\n    guessDeadline = block.number + GUESS_DURATION_BLOCKS;\n    revealDeadline = block.number + REVEAL_DURATION_BLOCKS;\n    totalPrize += msg.value;\n  }\n\n  function createCommitment(address user, uint256 answer) public pure returns (bytes32) {\n    return keccak256(abi.encode(user, answer));\n  }\n\n  function guess(bytes32 _commitments) public {\n    require(block.number < guessDeadline);\n    require(msg.sender != creator);\n    commitments[msg.sender] = _commitments;\n  }\n\n  function reveal(uint256 answer) public {\n    require(block.number > guessDeadline);\n    require(block.number < revealDeadline);\n    require(createCommitment(msg.sender, answer) == commitments[msg.sender]);\n    require(createCommitment(creator, answer) == commitments[creator]);\n    require(!isWinner(msg.sender));\n    winners.push(msg.sender);\n  }\n\n  function claim() public {\n    require(block.number > revealDeadline);\n    require(claimed[msg.sender] == false);\n    require(isWinner(msg.sender));\n    uint256 payout = totalPrize / winners.length;\n    claimed[msg.sender] = true;\n    msg.sender.transfer(payout);\n  }\n\n  function isWinner(address user) public view returns (bool) {\n    bool winner = false;\n    for (uint256 index = 0; index < winners.length; index++) {\n      if (winners[index] == user) {\n        winner = true;\n        break;\n      }\n    }\n    return winner;\n  }\n\n  receive() external payable {\n    totalPrize += msg.value;\n  }\n}\n",
  "sourcePath": "/Users/Devesh/Desktop/Learning/games_blockchain/pyramid/contracts/CommitRevealPuzzle.sol",
  "compiler": {
    "name": "solc",
    "version": "0.6.3+commit.8dda9521.Linux.g++"
  },
  "schemaVersion": "3.1.0",
  "updatedAt": "2021-04-17T17:56:50.513Z",
  "networkType": "ethereum",
  "devdoc": {
    "methods": {}
  },
  "userdoc": {
    "methods": {}
  }
}