{
  "contractName": "SimplePrize",
  "abi": [
    {
      "inputs": [
        {
          "internalType": "bytes32",
          "name": "_commitment",
          "type": "bytes32"
        }
      ],
      "stateMutability": "nonpayable",
      "type": "constructor"
    },
    {
      "inputs": [],
      "name": "commitment",
      "outputs": [
        {
          "internalType": "bytes32",
          "name": "",
          "type": "bytes32"
        }
      ],
      "stateMutability": "view",
      "type": "function",
      "constant": true
    },
    {
      "inputs": [],
      "name": "salt",
      "outputs": [
        {
          "internalType": "bytes32",
          "name": "",
          "type": "bytes32"
        }
      ],
      "stateMutability": "view",
      "type": "function",
      "constant": true
    },
    {
      "inputs": [
        {
          "internalType": "uint256",
          "name": "answer",
          "type": "uint256"
        }
      ],
      "name": "createCommitment",
      "outputs": [
        {
          "internalType": "bytes32",
          "name": "",
          "type": "bytes32"
        }
      ],
      "stateMutability": "view",
      "type": "function",
      "constant": true
    },
    {
      "inputs": [
        {
          "internalType": "uint256",
          "name": "answer",
          "type": "uint256"
        }
      ],
      "name": "guess",
      "outputs": [],
      "stateMutability": "nonpayable",
      "type": "function"
    }
  ],
  "bytecode": "0x608060405234801561001057600080fd5b506040516102723803806102728339818101604052602081101561003357600080fd5b810190808051906020019092919050505080600081905550506102178061005b6000396000f3fe608060405234801561001057600080fd5b5060043610610069576000357c0100000000000000000000000000000000000000000000000000000000900480631303a4841461006e5780639189fec11461008c578063bfa0b133146100ba578063eb88d688146100d8575b600080fd5b61007661011a565b6040518082815260200191505060405180910390f35b6100b8600480360360208110156100a257600080fd5b8101908080359060200190929190505050610120565b005b6100c2610197565b6040518082815260200191505060405180910390f35b610104600480360360208110156100ee57600080fd5b81019080803590602001909291905050506101a2565b6040518082815260200191505060405180910390f35b60005481565b60005461012c826101a2565b1461013657600080fd5b3373ffffffffffffffffffffffffffffffffffffffff166108fc3073ffffffffffffffffffffffffffffffffffffffff16319081150290604051600060405180830381858888f19350505050158015610193573d6000803e3d6000fd5b5050565b633adb809560010281565b6000633adb809560010282604051602001808381526020018281526020019250505060405160208183030381529060405280519060200120905091905056fea2646970667358221220b0915ba1097b3a81ef179b7787b35513cebc151fc645626124b6b7824cd18fb064736f6c63430006030033",
  "source": "pragma solidity ^0.6.1;\n\ncontract SimplePrize {\n  uint256 constant salter = 987463829;\n  bytes32 public constant salt = bytes32(salter);\n  bytes32 public commitment;\n\n  constructor(bytes32 _commitment) public {\n    commitment = _commitment;\n  }\n\n  function createCommitment(uint256 answer) public view returns (bytes32) {\n    return keccak256(abi.encode(salt, answer));\n  }\n\n  function guess(uint256 answer) public {\n    require(createCommitment(answer) == commitment);\n    msg.sender.transfer(address(this).balance);\n  }\n}\n",
  "sourcePath": "/Users/Devesh/Desktop/Learning/games_blockchain/pyramid/contracts/SimplePrize.sol",
  "compiler": {
    "name": "solc",
    "version": "0.6.3+commit.8dda9521.Linux.g++"
  },
  "schemaVersion": "3.1.0",
  "updatedAt": "2021-04-17T17:56:50.511Z",
  "networkType": "ethereum",
  "devdoc": {
    "methods": {}
  },
  "userdoc": {
    "methods": {}
  }
}